{
  "contractName": "Address",
  "abi": [
    {
      "inputs": [],
      "name": "getBytes32ArrayForInput",
      "outputs": [
        {
          "internalType": "bytes32[10]",
          "name": "b32Arr",
          "type": "bytes32[10]"
        }
      ],
      "stateMutability": "pure",
      "type": "function"
    }
  ],
  "bytecode": "0x608060405234801561001057600080fd5b50610261806100206000396000f3fe608060405234801561001057600080fd5b506004361061002a5760003560e01c806265f9b51461002f575b600080fd5b610037610075565b6040518082600a60200280838360005b83811015610062578082015181840152602081019050610047565b5050505090500191505060405180910390f35b61007d610208565b6040518061014001604052807f53756d697400000000000000000000000000000000000000000000000000000081526020017f526176690000000000000000000000000000000000000000000000000000000081526020017f52616a616e00000000000000000000000000000000000000000000000000000081526020017f526167687500000000000000000000000000000000000000000000000000000081526020017f45746865724b696e67000000000000000000000000000000000000000000000081526020017f5368656b6861720000000000000000000000000000000000000000000000000081526020017f436f6e74726163746f720000000000000000000000000000000000000000000081526020017f50756c75626b000000000000000000000000000000000000000000000000000081526020017f426974636f696e4b696e6700000000000000000000000000000000000000000081526020017f44616f4865636b65720000000000000000000000000000000000000000000000815250905090565b604051806101400160405280600a9060208202803683378082019150509050509056fea2646970667358221220905b13c0eaf3f5247adafdeeab1ff180a7d4102a4e2111e4a3bcaa6002d49bb564736f6c63430007060033",
  "immutableReferences": {},
  "source": "// SPDX-License-Identifier: GPL-3.0\n\npragma solidity >=0.7.0 <0.9.0;\n\ncontract Address {\n    function getBytes32ArrayForInput() pure public returns (bytes32[10] memory b32Arr) {\n        b32Arr = [bytes32(\"Sumit\"), bytes32(\"Ravi\"), bytes32(\"Rajan\"), bytes32(\"Raghu\"), bytes32(\"EtherKing\"), \n        bytes32(\"Shekhar\"), bytes32(\"Contractor\"), bytes32(\"Pulubk\"), bytes32(\"BitcoinKing\"), bytes32(\"DaoHecker\")];\n    }\n}\n",
  "sourcePath": "/home/zcluster55/Documents/Research/Solidity-Examples/ballot-example/contracts/Address.sol",
  "compiler": {
    "name": "solc",
    "version": "0.7.6+commit.7338295f.Emscripten.clang"
  },
  "schemaVersion": "3.4.3",
  "updatedAt": "2021-10-18T06:58:45.768Z",
  "devdoc": {
    "kind": "dev",
    "methods": {},
    "version": 1
  },
  "userdoc": {
    "kind": "user",
    "methods": {},
    "version": 1
  }
}