{
  "contractName": "Example",
  "abi": [
    {
      "inputs": [],
      "name": "transferEther",
      "outputs": [],
      "stateMutability": "payable",
      "type": "function"
    }
  ],
  "bytecode": "0x6080604052348015600f57600080fd5b5060a58061001e6000396000f3fe608060405260043610601c5760003560e01c8063c9b25f0f146021575b600080fd5b60276029565b005b60008060003373ffffffffffffffffffffffffffffffffffffffff1673ffffffffffffffffffffffffffffffffffffffff1681526020019081526020016000208190555056fea2646970667358221220aa006f26c738ff4915455a0c96d0a24c08cd9bde77f762c4c436b9094ba732b464736f6c63430008090033",
  "immutableReferences": {},
  "source": "// SPDX-License-Identifier: GPL-3.0\npragma solidity >=0.4.2 <0.9.0;\n\ncontract Example {\n    // A vulnerable bank smart contract.\n    mapping (address => uint256) balances;\n    \n    // // This gives the amount/ether strored in the smart contract.\n    // function deposit(uint256 amount) public payable {\n    //     (bool sent, bytes memory data) = payable(address(this))\n    //                                 .call{value:amount}(\"\");\n    //     balances[msg.sender] += amount;\n    // }\n    \n    // web3.utils.toWei('1', 'ether') else goes to fallback since\n    // arguments error.\n    function transferEther()\n        public\n        payable\n    {\n        // (bool sent, bytes memory data) = addressToSend\n        //                    .call{value:amount}(\"\");\n        // require(sent, \"Failed to send Ether\");\n        balances[msg.sender] = 0;\n    }\n}\n",
  "sourcePath": "/home/clustfuzz/Documents/Research/Smart Contracts Project/Solidity-Examples/contract-samples/contracts/Example.sol",
  "compiler": {
    "name": "solc",
    "version": "0.8.9+commit.e5eed63a.Emscripten.clang"
  },
  "schemaVersion": "3.4.4",
  "updatedAt": "2022-01-18T13:33:08.720Z",
  "devdoc": {
    "kind": "dev",
    "methods": {},
    "version": 1
  },
  "userdoc": {
    "kind": "user",
    "methods": {},
    "version": 1
  }
}