{
  "contractName": "RaceCondition",
  "abi": [
    {
      "inputs": [
        {
          "internalType": "uint256",
          "name": "_price",
          "type": "uint256"
        },
        {
          "internalType": "contract ERC20",
          "name": "_token",
          "type": "address"
        }
      ],
      "stateMutability": "nonpayable",
      "type": "constructor"
    },
    {
      "inputs": [],
      "name": "price",
      "outputs": [
        {
          "internalType": "uint256",
          "name": "",
          "type": "uint256"
        }
      ],
      "stateMutability": "view",
      "type": "function"
    },
    {
      "inputs": [
        {
          "internalType": "uint256",
          "name": "new_price",
          "type": "uint256"
        }
      ],
      "name": "buy",
      "outputs": [],
      "stateMutability": "payable",
      "type": "function"
    },
    {
      "inputs": [
        {
          "internalType": "uint256",
          "name": "new_price",
          "type": "uint256"
        }
      ],
      "name": "changePrice",
      "outputs": [],
      "stateMutability": "nonpayable",
      "type": "function"
    }
  ],
  "bytecode": "0x608060405234801561001057600080fd5b5060405161059e38038061059e8339818101604052810190610032919061016c565b336000806101000a81548173ffffffffffffffffffffffffffffffffffffffff021916908373ffffffffffffffffffffffffffffffffffffffff1602179055508160018190555080600260006101000a81548173ffffffffffffffffffffffffffffffffffffffff021916908373ffffffffffffffffffffffffffffffffffffffff16021790555050506101ac565b600080fd5b6000819050919050565b6100d9816100c6565b81146100e457600080fd5b50565b6000815190506100f6816100d0565b92915050565b600073ffffffffffffffffffffffffffffffffffffffff82169050919050565b6000610127826100fc565b9050919050565b60006101398261011c565b9050919050565b6101498161012e565b811461015457600080fd5b50565b60008151905061016681610140565b92915050565b60008060408385031215610183576101826100c1565b5b6000610191858286016100e7565b92505060206101a285828601610157565b9150509250929050565b6103e3806101bb6000396000f3fe6080604052600436106100345760003560e01c8063a035b1fe14610039578063a2b40d1914610064578063d96a094a1461008d575b600080fd5b34801561004557600080fd5b5061004e6100a9565b60405161005b9190610257565b60405180910390f35b34801561007057600080fd5b5061008b600480360381019061008691906102a3565b6100af565b005b6100a760048036038101906100a291906102a3565b610111565b005b60015481565b60008054906101000a900473ffffffffffffffffffffffffffffffffffffffff1673ffffffffffffffffffffffffffffffffffffffff163373ffffffffffffffffffffffffffffffffffffffff161461010757600080fd5b8060018190555050565b60015434101561012057600080fd5b600260009054906101000a900473ffffffffffffffffffffffffffffffffffffffff1673ffffffffffffffffffffffffffffffffffffffff166323b872dd3360008054906101000a900473ffffffffffffffffffffffffffffffffffffffff166001546040518463ffffffff1660e01b81526004016101a193929190610311565b602060405180830381600087803b1580156101bb57600080fd5b505af11580156101cf573d6000803e3d6000fd5b505050506040513d601f19601f820116820180604052508101906101f39190610380565b5080600181905550336000806101000a81548173ffffffffffffffffffffffffffffffffffffffff021916908373ffffffffffffffffffffffffffffffffffffffff16021790555050565b6000819050919050565b6102518161023e565b82525050565b600060208201905061026c6000830184610248565b92915050565b600080fd5b6102808161023e565b811461028b57600080fd5b50565b60008135905061029d81610277565b92915050565b6000602082840312156102b9576102b8610272565b5b60006102c78482850161028e565b91505092915050565b600073ffffffffffffffffffffffffffffffffffffffff82169050919050565b60006102fb826102d0565b9050919050565b61030b816102f0565b82525050565b60006060820190506103266000830186610302565b6103336020830185610302565b6103406040830184610248565b949350505050565b60008115159050919050565b61035d81610348565b811461036857600080fd5b50565b60008151905061037a81610354565b92915050565b60006020828403121561039657610395610272565b5b60006103a48482850161036b565b9150509291505056fea2646970667358221220856c975a5f598a342c2ac2456ac77f790f5afa3fab98aa57b56967f3047b220164736f6c63430008090033",
  "immutableReferences": {},
  "source": "// SPDX-License-Identifier: MIT\npragma solidity >=0.4.22 <0.9.0;\n\n// https://github.com/ethereum/EIPs/issues/20\nabstract contract ERC20 {\n    // function totalSupply() private view returns (uint256 totalSupply);\n\n    // function balanceOf(address _owner) view returns (uint256 balance);\n\n    // function transfer(address _to, uint256 _value) returns (bool success);\n\n    function transferFrom(\n        address _from,\n        address _to,\n        uint256 _value\n    ) public virtual returns (bool success) {\n        return success;\n    }\n\n    // function approve(address _spender, uint256 _value) returns (bool success);\n\n    // function allowance(address _owner, address _spender)\n    //     view\n    //     returns (uint256 remaining);\n\n    event Transfer(address indexed _from, address indexed _to, uint256 _value);\n    event Approval(\n        address indexed _owner,\n        address indexed _spender,\n        uint256 _value\n    );\n}\n\ncontract RaceCondition {\n    address private owner;\n    uint256 public price;\n    ERC20 token;\n\n    constructor(uint256 _price, ERC20 _token) {\n        owner = msg.sender;\n        price = _price;\n        token = _token;\n    }\n\n    // If the owner sees someone calls buy\n    // he can call changePrice to set a new price\n    // If his transaction is mined first, he can\n    // receive more tokens than excepted by the new buyer\n    function buy(uint256 new_price) public payable {\n        require(msg.value >= price);\n        // we assume that the RaceCondition contract\n        // has enough allowance\n        token.transferFrom(msg.sender, owner, price);\n        price = new_price;\n        owner = msg.sender;\n    }\n\n    function changePrice(uint256 new_price) public {\n        require(msg.sender == owner);\n        price = new_price;\n    }\n}\n",
  "sourcePath": "/home/zcluster55/Documents/Research/Solidity-Examples/contract-samples/contracts/RaceCondition.sol",
  "compiler": {
    "name": "solc",
    "version": "0.8.9+commit.e5eed63a.Emscripten.clang"
  },
  "schemaVersion": "3.4.3",
  "updatedAt": "2021-10-18T16:33:23.976Z",
  "devdoc": {
    "kind": "dev",
    "methods": {},
    "version": 1
  },
  "userdoc": {
    "kind": "user",
    "methods": {},
    "version": 1
  }
}