{
  "contractName": "Sample",
  "abi": [
    {
      "inputs": [],
      "name": "returnOne",
      "outputs": [
        {
          "internalType": "uint256",
          "name": "",
          "type": "uint256"
        }
      ],
      "stateMutability": "pure",
      "type": "function",
      "constant": true
    },
    {
      "inputs": [
        {
          "internalType": "uint256",
          "name": "w",
          "type": "uint256"
        },
        {
          "internalType": "uint256",
          "name": "h",
          "type": "uint256"
        }
      ],
      "name": "rectangle",
      "outputs": [
        {
          "internalType": "uint256",
          "name": "s",
          "type": "uint256"
        },
        {
          "internalType": "uint256",
          "name": "p",
          "type": "uint256"
        }
      ],
      "stateMutability": "pure",
      "type": "function",
      "constant": true
    },
    {
      "inputs": [],
      "name": "getBalance",
      "outputs": [
        {
          "internalType": "uint256",
          "name": "bal",
          "type": "uint256"
        }
      ],
      "stateMutability": "view",
      "type": "function",
      "constant": true
    },
    {
      "inputs": [],
      "name": "getBalanceOwn",
      "outputs": [
        {
          "internalType": "uint256",
          "name": "bal",
          "type": "uint256"
        }
      ],
      "stateMutability": "view",
      "type": "function",
      "constant": true
    },
    {
      "inputs": [
        {
          "internalType": "uint256",
          "name": "a",
          "type": "uint256"
        },
        {
          "internalType": "uint256",
          "name": "b",
          "type": "uint256"
        }
      ],
      "name": "addNums1",
      "outputs": [
        {
          "internalType": "uint256",
          "name": "addResult",
          "type": "uint256"
        }
      ],
      "stateMutability": "pure",
      "type": "function",
      "constant": true
    },
    {
      "inputs": [
        {
          "internalType": "uint256",
          "name": "a",
          "type": "uint256"
        },
        {
          "internalType": "uint256",
          "name": "b",
          "type": "uint256"
        },
        {
          "internalType": "address payable",
          "name": "addressToSend",
          "type": "address"
        }
      ],
      "name": "whileTrue",
      "outputs": [],
      "stateMutability": "payable",
      "type": "function",
      "payable": true
    },
    {
      "inputs": [
        {
          "internalType": "address payable",
          "name": "addressToSend",
          "type": "address"
        },
        {
          "internalType": "uint256",
          "name": "amount",
          "type": "uint256"
        }
      ],
      "name": "transferToaddress",
      "outputs": [],
      "stateMutability": "payable",
      "type": "function",
      "payable": true
    }
  ],
  "bytecode": "0x60806040526000805534801561001457600080fd5b5061084a806100246000396000f3fe6080604052600436106100705760003560e01c8063602b09f31161004e578063602b09f314610109578063676d7b0e146101465780638a19c67f146101625780638c8303871461018d57610070565b806312065fe0146100755780633db22b12146100a057806344767548146100cb575b600080fd5b34801561008157600080fd5b5061008a6101a9565b6040516100979190610434565b60405180910390f35b3480156100ac57600080fd5b506100b56101b1565b6040516100c29190610434565b60405180910390f35b3480156100d757600080fd5b506100f260048036038101906100ed9190610480565b6101ba565b6040516101009291906104c0565b60405180910390f35b34801561011557600080fd5b50610130600480360381019061012b9190610480565b6101ec565b60405161013d9190610434565b60405180910390f35b610160600480360381019061015b9190610547565b61020e565b005b34801561016e57600080fd5b506101776102ef565b6040516101849190610434565b60405180910390f35b6101a760048036038101906101a2919061059a565b61030e565b005b600047905090565b60006001905090565b60008082846101c99190610609565b915082846101d79190610663565b60026101e39190610609565b90509250929050565b6000602a826101fb9190610663565b836102069190610609565b905092915050565b670de0b6b3a7640000341015610259576040517f08c379a000000000000000000000000000000000000000000000000000000000815260040161025090610716565b60405180910390fd5b6000600a905083600054141580156102885750823373ffffffffffffffffffffffffffffffffffffffff163110155b156102e9575b600081106102e8576102d46040518060400160405280600b81526020017f52616e204c6f6f702e200a000000000000000000000000000000000000000000815250610359565b6001816102e19190610736565b905061028e565b5b50505050565b60003373ffffffffffffffffffffffffffffffffffffffff1631905090565b8173ffffffffffffffffffffffffffffffffffffffff166108fc829081150290604051600060405180830381858888f19350505050158015610354573d6000803e3d6000fd5b505050565b6103ef8160405160240161036d91906107f2565b6040516020818303038152906040527f41304fac000000000000000000000000000000000000000000000000000000007bffffffffffffffffffffffffffffffffffffffffffffffffffffffff19166020820180517bffffffffffffffffffffffffffffffffffffffffffffffffffffffff83818316178352505050506103f2565b50565b60008151905060006a636f6e736f6c652e6c6f679050602083016000808483855afa5050505050565b6000819050919050565b61042e8161041b565b82525050565b60006020820190506104496000830184610425565b92915050565b600080fd5b61045d8161041b565b811461046857600080fd5b50565b60008135905061047a81610454565b92915050565b600080604083850312156104975761049661044f565b5b60006104a58582860161046b565b92505060206104b68582860161046b565b9150509250929050565b60006040820190506104d56000830185610425565b6104e26020830184610425565b9392505050565b600073ffffffffffffffffffffffffffffffffffffffff82169050919050565b6000610514826104e9565b9050919050565b61052481610509565b811461052f57600080fd5b50565b6000813590506105418161051b565b92915050565b6000806000606084860312156105605761055f61044f565b5b600061056e8682870161046b565b935050602061057f8682870161046b565b925050604061059086828701610532565b9150509250925092565b600080604083850312156105b1576105b061044f565b5b60006105bf85828601610532565b92505060206105d08582860161046b565b9150509250929050565b7f4e487b7100000000000000000000000000000000000000000000000000000000600052601160045260246000fd5b60006106148261041b565b915061061f8361041b565b9250817fffffffffffffffffffffffffffffffffffffffffffffffffffffffffffffffff0483118215151615610658576106576105da565b5b828202905092915050565b600061066e8261041b565b91506106798361041b565b9250827fffffffffffffffffffffffffffffffffffffffffffffffffffffffffffffffff038211156106ae576106ad6105da565b5b828201905092915050565b600082825260208201905092915050565b7f4d6f7265207468616e2031206574686572206e65656465640000000000000000600082015250565b60006107006018836106b9565b915061070b826106ca565b602082019050919050565b6000602082019050818103600083015261072f816106f3565b9050919050565b60006107418261041b565b915061074c8361041b565b92508282101561075f5761075e6105da565b5b828203905092915050565b600081519050919050565b60005b83811015610793578082015181840152602081019050610778565b838111156107a2576000848401525b50505050565b6000601f19601f8301169050919050565b60006107c48261076a565b6107ce81856106b9565b93506107de818560208601610775565b6107e7816107a8565b840191505092915050565b6000602082019050818103600083015261080c81846107b9565b90509291505056fea264697066735822122027c2c8a8b989bc7522b06f0277a3bf4a810b0ee1c2594e8007112b35f6001e5164736f6c63430008090033",
  "immutableReferences": {},
  "source": "// SPDX-License-Identifier: GPL-3.0\npragma solidity >=0.4.2 <0.9.0;\nimport \"hardhat/console.sol\";\n\ncontract Sample {\n    uint256 counter = 0;\n\n    function returnOne() public pure returns (uint256) {\n        return 1;\n    }\n\n    function rectangle(uint256 w, uint256 h)\n        public\n        pure\n        returns (uint256 s, uint256 p)\n    {\n        s = w * h;\n        p = 2 * (w + h);\n    }\n\n    function getBalance() public view returns (uint256 bal) {\n        return address(this).balance;\n    }\n\n    function getBalanceOwn() public view returns (uint256 bal) {\n        return msg.sender.balance;\n    }\n\n    function addNums1(uint256 a, uint256 b)\n        public\n        pure\n        returns (uint256 addResult)\n    {\n        addResult = a * (b + 42);\n    }\n\n    function whileTrue(\n        uint256 a,\n        uint256 b,\n        address payable addressToSend\n    ) external payable {\n        require(msg.value >= 1 ether, \"More than 1 ether needed\");\n        uint256 count = 10;\n        if (counter != a && msg.sender.balance >= b) {\n            while (count >= 0) {\n                console.log(\"Ran Loop. \\n\");\n                count = count - 1;\n            }\n        }\n    }\n\n    function transferToaddress(address payable addressToSend, uint256 amount)\n        public\n        payable\n    {\n        addressToSend.transfer(amount);\n    }\n}\n",
  "sourcePath": "/home/clustfuzz/Documents/Research/Solidity-Examples/contract-samples/contracts/Sample.sol",
  "compiler": {
    "name": "solc",
    "version": "0.8.9+commit.e5eed63a.Emscripten.clang"
  },
  "schemaVersion": "3.4.4",
  "updatedAt": "2022-01-12T08:22:08.600Z",
  "networkType": "ethereum",
  "devdoc": {
    "kind": "dev",
    "methods": {},
    "version": 1
  },
  "userdoc": {
    "kind": "user",
    "methods": {},
    "version": 1
  }
}