{
  "contractName": "Sample",
  "abi": [
    {
      "inputs": [],
      "name": "returnOne",
      "outputs": [
        {
          "internalType": "uint256",
          "name": "",
          "type": "uint256"
        }
      ],
      "stateMutability": "pure",
      "type": "function",
      "constant": true
    },
    {
      "inputs": [
        {
          "internalType": "uint256",
          "name": "w",
          "type": "uint256"
        },
        {
          "internalType": "uint256",
          "name": "h",
          "type": "uint256"
        }
      ],
      "name": "rectangle",
      "outputs": [
        {
          "internalType": "uint256",
          "name": "s",
          "type": "uint256"
        },
        {
          "internalType": "uint256",
          "name": "p",
          "type": "uint256"
        }
      ],
      "stateMutability": "pure",
      "type": "function",
      "constant": true
    },
    {
      "inputs": [],
      "name": "getBalance",
      "outputs": [
        {
          "internalType": "uint256",
          "name": "bal",
          "type": "uint256"
        }
      ],
      "stateMutability": "view",
      "type": "function",
      "constant": true
    },
    {
      "inputs": [],
      "name": "getBalanceOwn",
      "outputs": [
        {
          "internalType": "uint256",
          "name": "bal",
          "type": "uint256"
        }
      ],
      "stateMutability": "view",
      "type": "function",
      "constant": true
    },
    {
      "inputs": [
        {
          "internalType": "uint256",
          "name": "a",
          "type": "uint256"
        },
        {
          "internalType": "uint256",
          "name": "b",
          "type": "uint256"
        }
      ],
      "name": "addNums1",
      "outputs": [
        {
          "internalType": "uint256",
          "name": "addResult",
          "type": "uint256"
        }
      ],
      "stateMutability": "pure",
      "type": "function",
      "constant": true
    }
  ],
  "bytecode": "0x608060405234801561001057600080fd5b5061037e806100206000396000f3fe608060405234801561001057600080fd5b50600436106100575760003560e01c806312065fe01461005c5780633db22b121461007a5780634476754814610098578063602b09f3146100c95780638a19c67f146100f9575b600080fd5b610064610117565b60405161007191906101b4565b60405180910390f35b61008261011f565b60405161008f91906101b4565b60405180910390f35b6100b260048036038101906100ad9190610200565b610128565b6040516100c0929190610240565b60405180910390f35b6100e360048036038101906100de9190610200565b61015a565b6040516100f091906101b4565b60405180910390f35b61010161017c565b60405161010e91906101b4565b60405180910390f35b600047905090565b60006001905090565b60008082846101379190610298565b9150828461014591906102f2565b60026101519190610298565b90509250929050565b6000602a8261016991906102f2565b836101749190610298565b905092915050565b60003373ffffffffffffffffffffffffffffffffffffffff1631905090565b6000819050919050565b6101ae8161019b565b82525050565b60006020820190506101c960008301846101a5565b92915050565b600080fd5b6101dd8161019b565b81146101e857600080fd5b50565b6000813590506101fa816101d4565b92915050565b60008060408385031215610217576102166101cf565b5b6000610225858286016101eb565b9250506020610236858286016101eb565b9150509250929050565b600060408201905061025560008301856101a5565b61026260208301846101a5565b9392505050565b7f4e487b7100000000000000000000000000000000000000000000000000000000600052601160045260246000fd5b60006102a38261019b565b91506102ae8361019b565b9250817fffffffffffffffffffffffffffffffffffffffffffffffffffffffffffffffff04831182151516156102e7576102e6610269565b5b828202905092915050565b60006102fd8261019b565b91506103088361019b565b9250827fffffffffffffffffffffffffffffffffffffffffffffffffffffffffffffffff0382111561033d5761033c610269565b5b82820190509291505056fea2646970667358221220c24b899957618802b346157f7c1474b7c94b226f72479b884728665b6abe185a64736f6c63430008090033",
  "immutableReferences": {},
  "source": "// SPDX-License-Identifier: GPL-3.0\npragma solidity >=0.5.0 <0.9.0;\n\ncontract Sample {\n    function returnOne() public pure returns (uint256) {\n        return 1;\n    }\n\n    function rectangle(uint256 w, uint256 h)\n        public\n        pure\n        returns (uint256 s, uint256 p)\n    {\n        s = w * h;\n        p = 2 * (w + h);\n    }\n\n    function getBalance() public view returns (uint256 bal) {\n        return address(this).balance;\n    }\n\n    function getBalanceOwn() public view returns (uint256 bal) {\n        return msg.sender.balance;\n    }\n\n    function addNums1(uint256 a, uint256 b)\n        public\n        pure\n        returns (uint256 addResult)\n    {\n        addResult = a * (b + 42);\n    }\n}\n",
  "sourcePath": "/home/zcluster55/Documents/Research/Solidity-Examples/contract-samples/contracts/Sample.sol",
  "compiler": {
    "name": "solc",
    "version": "0.8.9+commit.e5eed63a.Emscripten.clang"
  },
  "schemaVersion": "3.4.3",
  "updatedAt": "2021-10-19T06:21:48.233Z",
  "networkType": "ethereum",
  "devdoc": {
    "kind": "dev",
    "methods": {},
    "version": 1
  },
  "userdoc": {
    "kind": "user",
    "methods": {},
    "version": 1
  }
}