{
  "contractName": "Sample",
  "abi": [
    {
      "inputs": [],
      "name": "returnOne",
      "outputs": [
        {
          "internalType": "uint256",
          "name": "",
          "type": "uint256"
        }
      ],
      "stateMutability": "pure",
      "type": "function"
    },
    {
      "inputs": [
        {
          "internalType": "uint256",
          "name": "w",
          "type": "uint256"
        },
        {
          "internalType": "uint256",
          "name": "h",
          "type": "uint256"
        }
      ],
      "name": "rectangle",
      "outputs": [
        {
          "internalType": "uint256",
          "name": "s",
          "type": "uint256"
        },
        {
          "internalType": "uint256",
          "name": "p",
          "type": "uint256"
        }
      ],
      "stateMutability": "pure",
      "type": "function"
    },
    {
      "inputs": [],
      "name": "getBalance",
      "outputs": [
        {
          "internalType": "uint256",
          "name": "bal",
          "type": "uint256"
        }
      ],
      "stateMutability": "view",
      "type": "function"
    },
    {
      "inputs": [],
      "name": "getBalanceOwn",
      "outputs": [
        {
          "internalType": "uint256",
          "name": "bal",
          "type": "uint256"
        }
      ],
      "stateMutability": "view",
      "type": "function"
    },
    {
      "inputs": [
        {
          "internalType": "uint256",
          "name": "a",
          "type": "uint256"
        },
        {
          "internalType": "uint256",
          "name": "b",
          "type": "uint256"
        }
      ],
      "name": "addNums1",
      "outputs": [
        {
          "internalType": "uint256",
          "name": "addResult",
          "type": "uint256"
        }
      ],
      "stateMutability": "pure",
      "type": "function"
    },
    {
      "inputs": [
        {
          "internalType": "uint256",
          "name": "a",
          "type": "uint256"
        },
        {
          "internalType": "uint256",
          "name": "b",
          "type": "uint256"
        },
        {
          "internalType": "uint256",
          "name": "bal",
          "type": "uint256"
        }
      ],
      "name": "sendContractEther",
      "outputs": [],
      "stateMutability": "payable",
      "type": "function"
    },
    {
      "inputs": [
        {
          "internalType": "address payable",
          "name": "addressToSend",
          "type": "address"
        },
        {
          "internalType": "uint256",
          "name": "amount",
          "type": "uint256"
        }
      ],
      "name": "transferEther",
      "outputs": [],
      "stateMutability": "payable",
      "type": "function"
    }
  ],
  "bytecode": "0x60806040526000805561238060015534801561001a57600080fd5b506107068061002a6000396000f3fe6080604052600436106100705760003560e01c80633e28545c1161004e5780633e28545c146100e75780634476754814610103578063602b09f3146101415780638a19c67f1461017e57610070565b806305b1137b1461007557806312065fe0146100915780633db22b12146100bc575b600080fd5b61008f600480360381019061008a9190610408565b6101a9565b005b34801561009d57600080fd5b506100a661025d565b6040516100b39190610457565b60405180910390f35b3480156100c857600080fd5b506100d1610265565b6040516100de9190610457565b60405180910390f35b61010160048036038101906100fc9190610472565b61026e565b005b34801561010f57600080fd5b5061012a600480360381019061012591906104c5565b6102fc565b604051610138929190610505565b60405180910390f35b34801561014d57600080fd5b50610168600480360381019061016391906104c5565b61032e565b6040516101759190610457565b60405180910390f35b34801561018a57600080fd5b50610193610350565b6040516101a09190610457565b60405180910390f35b6000808373ffffffffffffffffffffffffffffffffffffffff16836040516101d09061055f565b60006040518083038185875af1925050503d806000811461020d576040519150601f19603f3d011682016040523d82523d6000602084013e610212565b606091505b509150915081610257576040517f08c379a000000000000000000000000000000000000000000000000000000000815260040161024e906105d1565b60405180910390fd5b50505050565b600047905090565b60006001905090565b6000828461027c9190610620565b90506000803073ffffffffffffffffffffffffffffffffffffffff16670de0b6b3a76400006040516102ad9061055f565b60006040518083038185875af1925050503d80600081146102ea576040519150601f19603f3d011682016040523d82523d6000602084013e6102ef565b606091505b5091509150505050505050565b600080828461030b9190610676565b915082846103199190610620565b60026103259190610676565b90509250929050565b6000602a8261033d9190610620565b836103489190610676565b905092915050565b60003373ffffffffffffffffffffffffffffffffffffffff1631905090565b600080fd5b600073ffffffffffffffffffffffffffffffffffffffff82169050919050565b600061039f82610374565b9050919050565b6103af81610394565b81146103ba57600080fd5b50565b6000813590506103cc816103a6565b92915050565b6000819050919050565b6103e5816103d2565b81146103f057600080fd5b50565b600081359050610402816103dc565b92915050565b6000806040838503121561041f5761041e61036f565b5b600061042d858286016103bd565b925050602061043e858286016103f3565b9150509250929050565b610451816103d2565b82525050565b600060208201905061046c6000830184610448565b92915050565b60008060006060848603121561048b5761048a61036f565b5b6000610499868287016103f3565b93505060206104aa868287016103f3565b92505060406104bb868287016103f3565b9150509250925092565b600080604083850312156104dc576104db61036f565b5b60006104ea858286016103f3565b92505060206104fb858286016103f3565b9150509250929050565b600060408201905061051a6000830185610448565b6105276020830184610448565b9392505050565b600081905092915050565b50565b600061054960008361052e565b915061055482610539565b600082019050919050565b600061056a8261053c565b9150819050919050565b600082825260208201905092915050565b7f4661696c656420746f2073656e64204574686572000000000000000000000000600082015250565b60006105bb601483610574565b91506105c682610585565b602082019050919050565b600060208201905081810360008301526105ea816105ae565b9050919050565b7f4e487b7100000000000000000000000000000000000000000000000000000000600052601160045260246000fd5b600061062b826103d2565b9150610636836103d2565b9250827fffffffffffffffffffffffffffffffffffffffffffffffffffffffffffffffff0382111561066b5761066a6105f1565b5b828201905092915050565b6000610681826103d2565b915061068c836103d2565b9250817fffffffffffffffffffffffffffffffffffffffffffffffffffffffffffffffff04831182151516156106c5576106c46105f1565b5b82820290509291505056fea264697066735822122006d83e69cdf45e935f248b041a3261d7ebbc9a2c12cdfa75951dcbf97362781f64736f6c63430008090033",
  "immutableReferences": {},
  "source": "// SPDX-License-Identifier: GPL-3.0\npragma solidity >=0.4.2 <0.9.0;\n\ncontract Sample {\n    uint256 x = 0;\n    uint256 z = 9088;\n    \n    function returnOne() public pure returns (uint256) {\n        return 1;\n    }\n\n    function rectangle(uint256 w, uint256 h)\n        public\n        pure\n        returns (uint256 s, uint256 p)\n    {\n        s = w * h;\n        p = 2 * (w + h);\n    }\n\n    function getBalance() public view returns (uint256 bal) {\n        return address(this).balance;\n    }\n\n    function getBalanceOwn() public view returns (uint256 bal) {\n        return msg.sender.balance;\n    }\n\n    function addNums1(uint256 a, uint256 b)\n        public\n        pure\n        returns (uint256 addResult)\n    {\n        addResult = a * (b + 42);\n    }\n    \n    // This gives the amount/ether strored in the smart contract.\n    function sendContractEther(uint256 a, uint256 b, uint256 bal) public payable {\n        uint256 x = a + b;\n        (bool sent, bytes memory data) = payable(address(this))\n                                    .call{value:1 ether}(\"\");\n    }\n    \n    // web3.utils.toWei('1', 'ether') else goes to fallback since\n    // arguments error.\n    function transferEther(address payable addressToSend, uint256 amount)\n        public\n        payable\n    {\n        (bool sent, bytes memory data) = addressToSend\n                           .call{value:amount}(\"\");\n        require(sent, \"Failed to send Ether\");\n    }\n    \n\n}\n",
  "sourcePath": "/home/clustfuzz/Documents/Research/Smart Contracts Project/Solidity-Examples/contract-samples/contracts/Sample.sol",
  "compiler": {
    "name": "solc",
    "version": "0.8.9+commit.e5eed63a.Emscripten.clang"
  },
  "schemaVersion": "3.4.4",
  "updatedAt": "2022-01-16T13:15:33.203Z",
  "devdoc": {
    "kind": "dev",
    "methods": {},
    "version": 1
  },
  "userdoc": {
    "kind": "user",
    "methods": {},
    "version": 1
  }
}