{
  "contractName": "Sample",
  "abi": [
    {
      "inputs": [],
      "stateMutability": "payable",
      "type": "constructor"
    },
    {
      "inputs": [],
      "name": "returnOne",
      "outputs": [
        {
          "internalType": "uint256",
          "name": "",
          "type": "uint256"
        }
      ],
      "stateMutability": "pure",
      "type": "function"
    },
    {
      "inputs": [
        {
          "internalType": "uint256",
          "name": "w",
          "type": "uint256"
        },
        {
          "internalType": "uint256",
          "name": "h",
          "type": "uint256"
        }
      ],
      "name": "rectangle",
      "outputs": [
        {
          "internalType": "uint256",
          "name": "s",
          "type": "uint256"
        },
        {
          "internalType": "uint256",
          "name": "p",
          "type": "uint256"
        }
      ],
      "stateMutability": "pure",
      "type": "function"
    },
    {
      "inputs": [],
      "name": "getBalance",
      "outputs": [
        {
          "internalType": "uint256",
          "name": "bal",
          "type": "uint256"
        }
      ],
      "stateMutability": "view",
      "type": "function"
    },
    {
      "inputs": [],
      "name": "getBalanceOwn",
      "outputs": [
        {
          "internalType": "uint256",
          "name": "bal",
          "type": "uint256"
        }
      ],
      "stateMutability": "view",
      "type": "function"
    },
    {
      "inputs": [
        {
          "internalType": "uint256",
          "name": "a",
          "type": "uint256"
        },
        {
          "internalType": "uint256",
          "name": "b",
          "type": "uint256"
        }
      ],
      "name": "addNums1",
      "outputs": [
        {
          "internalType": "uint256",
          "name": "addResult",
          "type": "uint256"
        }
      ],
      "stateMutability": "pure",
      "type": "function"
    },
    {
      "inputs": [
        {
          "internalType": "uint256",
          "name": "a",
          "type": "uint256"
        },
        {
          "internalType": "uint256",
          "name": "b",
          "type": "uint256"
        },
        {
          "internalType": "address payable",
          "name": "addressToSend",
          "type": "address"
        }
      ],
      "name": "transferToAddressStub",
      "outputs": [],
      "stateMutability": "payable",
      "type": "function"
    },
    {
      "inputs": [
        {
          "internalType": "address payable",
          "name": "addressToSend",
          "type": "address"
        },
        {
          "internalType": "uint256",
          "name": "amount",
          "type": "uint256"
        }
      ],
      "name": "transferToaddress",
      "outputs": [],
      "stateMutability": "payable",
      "type": "function"
    },
    {
      "inputs": [
        {
          "internalType": "address payable",
          "name": "addressToSend",
          "type": "address"
        }
      ],
      "name": "transferEther",
      "outputs": [],
      "stateMutability": "nonpayable",
      "type": "function"
    }
  ],
  "bytecode": "0x6080604052600080556106b4806100176000396000f3fe60806040526004361061007b5760003560e01c80636b55e9911161004e5780636b55e991146101515780638a19c67f1461017a5780638c830387146101a5578063dc08a662146101c15761007b565b806312065fe0146100805780633db22b12146100ab57806344767548146100d6578063602b09f314610114575b600080fd5b34801561008c57600080fd5b506100956101dd565b6040516100a29190610398565b60405180910390f35b3480156100b757600080fd5b506100c06101e5565b6040516100cd9190610398565b60405180910390f35b3480156100e257600080fd5b506100fd60048036038101906100f891906103e4565b6101ee565b60405161010b929190610424565b60405180910390f35b34801561012057600080fd5b5061013b600480360381019061013691906103e4565b610220565b6040516101489190610398565b60405180910390f35b34801561015d57600080fd5b50610178600480360381019061017391906104ab565b610242565b005b34801561018657600080fd5b5061018f610294565b60405161019c9190610398565b60405180910390f35b6101bf60048036038101906101ba91906104d8565b6102b3565b005b6101db60048036038101906101d69190610518565b6102fe565b005b600047905090565b60006001905090565b60008082846101fd919061059a565b9150828461020b91906105f4565b6002610217919061059a565b90509250929050565b6000602a8261022f91906105f4565b8361023a919061059a565b905092915050565b8073ffffffffffffffffffffffffffffffffffffffff166108fc670de0b6b3a76400009081150290604051600060405180830381858888f19350505050158015610290573d6000803e3d6000fd5b5050565b60003373ffffffffffffffffffffffffffffffffffffffff1631905090565b8173ffffffffffffffffffffffffffffffffffffffff166108fc829081150290604051600060405180830381858888f193505050501580156102f9573d6000803e3d6000fd5b505050565b60008290508360005414610379575b60008114610378578173ffffffffffffffffffffffffffffffffffffffff166108fc670de0b6b3a76400009081150290604051600060405180830381858888f19350505050158015610363573d6000803e3d6000fd5b50600181610371919061064a565b905061030d565b5b50505050565b6000819050919050565b6103928161037f565b82525050565b60006020820190506103ad6000830184610389565b92915050565b600080fd5b6103c18161037f565b81146103cc57600080fd5b50565b6000813590506103de816103b8565b92915050565b600080604083850312156103fb576103fa6103b3565b5b6000610409858286016103cf565b925050602061041a858286016103cf565b9150509250929050565b60006040820190506104396000830185610389565b6104466020830184610389565b9392505050565b600073ffffffffffffffffffffffffffffffffffffffff82169050919050565b60006104788261044d565b9050919050565b6104888161046d565b811461049357600080fd5b50565b6000813590506104a58161047f565b92915050565b6000602082840312156104c1576104c06103b3565b5b60006104cf84828501610496565b91505092915050565b600080604083850312156104ef576104ee6103b3565b5b60006104fd85828601610496565b925050602061050e858286016103cf565b9150509250929050565b600080600060608486031215610531576105306103b3565b5b600061053f868287016103cf565b9350506020610550868287016103cf565b925050604061056186828701610496565b9150509250925092565b7f4e487b7100000000000000000000000000000000000000000000000000000000600052601160045260246000fd5b60006105a58261037f565b91506105b08361037f565b9250817fffffffffffffffffffffffffffffffffffffffffffffffffffffffffffffffff04831182151516156105e9576105e861056b565b5b828202905092915050565b60006105ff8261037f565b915061060a8361037f565b9250827fffffffffffffffffffffffffffffffffffffffffffffffffffffffffffffffff0382111561063f5761063e61056b565b5b828201905092915050565b60006106558261037f565b91506106608361037f565b9250828210156106735761067261056b565b5b82820390509291505056fea26469706673582212200ecce7ff69193e4ed7b29d9506249014bb34662c8ccaebc5ad2761d90b5c3e8564736f6c63430008090033",
  "immutableReferences": {},
  "source": "// SPDX-License-Identifier: GPL-3.0\npragma solidity >=0.4.2 <0.9.0;\nimport \"hardhat/console.sol\";\n\ncontract Sample {\n    uint256 counter = 0;\n\n    constructor() public payable {}\n\n    function returnOne() public pure returns (uint256) {\n        return 1;\n    }\n\n    function rectangle(uint256 w, uint256 h)\n        public\n        pure\n        returns (uint256 s, uint256 p)\n    {\n        s = w * h;\n        p = 2 * (w + h);\n    }\n\n    function getBalance() public view returns (uint256 bal) {\n        return address(this).balance;\n    }\n\n    function getBalanceOwn() public view returns (uint256 bal) {\n        return msg.sender.balance;\n    }\n\n    function addNums1(uint256 a, uint256 b)\n        public\n        pure\n        returns (uint256 addResult)\n    {\n        addResult = a * (b + 42);\n    }\n\n    function transferToAddressStub(\n        uint256 a,\n        uint256 b,\n        address payable addressToSend\n    ) public payable {\n        // require(msg.value >= 1 ether, \"More than 1 ether needed\");\n        uint256 count = b;\n        if (counter != a) {\n            // count may go negative : revert.\n            while (count != 0) {\n                // reverts if msg.value is lower than 1 ether here.\n                // Ether is lost.\n                addressToSend.transfer(1 ether);\n                count = count - 1;\n            }\n        }\n    }\n\n    function transferToaddress(address payable addressToSend, uint256 amount)\n        public\n        payable\n    {\n        addressToSend.transfer(amount);\n    }\n\n    function transferEther(address payable addressToSend) public {\n        addressToSend.transfer(1 ether);\n    }\n}\n",
  "sourcePath": "/home/clustfuzz/Documents/Research/Solidity-Examples/contract-samples/contracts/Sample.sol",
  "compiler": {
    "name": "solc",
    "version": "0.8.9+commit.e5eed63a.Emscripten.clang"
  },
  "schemaVersion": "3.4.4",
  "updatedAt": "2022-01-12T19:14:10.760Z",
  "devdoc": {
    "kind": "dev",
    "methods": {},
    "version": 1
  },
  "userdoc": {
    "kind": "user",
    "methods": {},
    "version": 1
  }
}