{
  "contractName": "Stack",
  "abi": [
    {
      "inputs": [],
      "stateMutability": "nonpayable",
      "type": "constructor"
    },
    {
      "inputs": [
        {
          "internalType": "uint256",
          "name": "temp",
          "type": "uint256"
        }
      ],
      "name": "setValue",
      "outputs": [],
      "stateMutability": "nonpayable",
      "type": "function"
    },
    {
      "inputs": [
        {
          "internalType": "uint256",
          "name": "a",
          "type": "uint256"
        },
        {
          "internalType": "uint256",
          "name": "b",
          "type": "uint256"
        }
      ],
      "name": "findValue",
      "outputs": [
        {
          "internalType": "uint256",
          "name": "",
          "type": "uint256"
        }
      ],
      "stateMutability": "nonpayable",
      "type": "function"
    }
  ],
  "bytecode": "0x608060405234801561001057600080fd5b506417bf3efc1a6000819055506102998061002c6000396000f3fe608060405234801561001057600080fd5b50600436106100365760003560e01c8063552410771461003b57806365a5e8f914610057575b600080fd5b61005560048036038101906100509190610113565b610087565b005b610071600480360381019061006c9190610140565b610091565b60405161007e919061018f565b60405180910390f35b8060008190555050565b6000605a8311156100cd575b60008311156100cc5781836100b291906101d9565b6000819055506001836100c5919061022f565b925061009d565b5b600054905092915050565b600080fd5b6000819050919050565b6100f0816100dd565b81146100fb57600080fd5b50565b60008135905061010d816100e7565b92915050565b600060208284031215610129576101286100d8565b5b6000610137848285016100fe565b91505092915050565b60008060408385031215610157576101566100d8565b5b6000610165858286016100fe565b9250506020610176858286016100fe565b9150509250929050565b610189816100dd565b82525050565b60006020820190506101a46000830184610180565b92915050565b7f4e487b7100000000000000000000000000000000000000000000000000000000600052601160045260246000fd5b60006101e4826100dd565b91506101ef836100dd565b9250827fffffffffffffffffffffffffffffffffffffffffffffffffffffffffffffffff03821115610224576102236101aa565b5b828201905092915050565b600061023a826100dd565b9150610245836100dd565b925082821015610258576102576101aa565b5b82820390509291505056fea2646970667358221220489dbb0a5dc53e8c5fdd23d4b38e870efa05cf9abcf9cbd261f50a33bf655bdf64736f6c63430008090033",
  "immutableReferences": {},
  "source": "// SPDX-License-Identifier: MIT\npragma solidity ^0.8.0;\n\n// Try these first.\ncontract Stack {\n\t\tuint256 c;\n\t\t\n\t\tconstructor() public {\n\t\t\tc = 101992823834;\n\t\t}\n\t\t\n\t\tfunction setValue (uint256 temp) public {\n\t\t\tc = temp;\n\t\t}\n\t\t\n    function findValue (uint256 a, uint256 b) public returns (uint256) {\n    \tif (a > 90) {\n    \t\twhile (a > 0) {\n    \t\t\tc = a + b;\n    \t\t\ta = a - 1;\n    \t\t}\n    \t}\n    \treturn c;\n    }\n}\n",
  "sourcePath": "/home/clustfuzz/Documents/Research/Smart Contracts Project/Solidity-Examples/contract-samples/contracts/Stack.sol",
  "compiler": {
    "name": "solc",
    "version": "0.8.9+commit.e5eed63a.Emscripten.clang"
  },
  "schemaVersion": "3.4.4",
  "updatedAt": "2022-01-31T06:03:17.649Z",
  "devdoc": {
    "kind": "dev",
    "methods": {},
    "version": 1
  },
  "userdoc": {
    "kind": "user",
    "methods": {},
    "version": 1
  }
}