{
  "contractName": "Stack",
  "abi": [
    {
      "inputs": [
        {
          "internalType": "uint256",
          "name": "a",
          "type": "uint256"
        },
        {
          "internalType": "uint256",
          "name": "b",
          "type": "uint256"
        }
      ],
      "name": "findsum",
      "outputs": [
        {
          "internalType": "uint256",
          "name": "",
          "type": "uint256"
        }
      ],
      "stateMutability": "pure",
      "type": "function"
    }
  ],
  "bytecode": "0x608060405234801561001057600080fd5b506101d6806100206000396000f3fe608060405234801561001057600080fd5b506004361061002b5760003560e01c80635549672b14610030575b600080fd5b61004a600480360381019061004591906100b1565b610060565b6040516100579190610100565b60405180910390f35b6000818361006e919061014a565b905092915050565b600080fd5b6000819050919050565b61008e8161007b565b811461009957600080fd5b50565b6000813590506100ab81610085565b92915050565b600080604083850312156100c8576100c7610076565b5b60006100d68582860161009c565b92505060206100e78582860161009c565b9150509250929050565b6100fa8161007b565b82525050565b600060208201905061011560008301846100f1565b92915050565b7f4e487b7100000000000000000000000000000000000000000000000000000000600052601160045260246000fd5b60006101558261007b565b91506101608361007b565b9250827fffffffffffffffffffffffffffffffffffffffffffffffffffffffffffffffff038211156101955761019461011b565b5b82820190509291505056fea26469706673582212203bebc96c14fc7144097b0bb774c37ba294d2e5afc16f9e23aba747d9afece27b64736f6c63430008090033",
  "immutableReferences": {},
  "source": "// SPDX-License-Identifier: MIT\npragma solidity ^0.8.0;\n\ncontract Stack {\n    function findsum (uint256 a, uint256 b) public pure returns (uint256) {\n    \treturn a + b;\n    }\n}\n",
  "sourcePath": "/home/clustfuzz/Documents/Research/Smart Contracts Project/Solidity-Examples/contract-samples/contracts/Stack.sol",
  "compiler": {
    "name": "solc",
    "version": "0.8.9+commit.e5eed63a.Emscripten.clang"
  },
  "schemaVersion": "3.4.4",
  "updatedAt": "2022-01-31T04:39:47.329Z",
  "devdoc": {
    "kind": "dev",
    "methods": {},
    "version": 1
  },
  "userdoc": {
    "kind": "user",
    "methods": {},
    "version": 1
  }
}