{
  "contractName": "Test",
  "abi": [
    {
      "inputs": [],
      "stateMutability": "nonpayable",
      "type": "constructor"
    },
    {
      "anonymous": false,
      "inputs": [
        {
          "indexed": true,
          "internalType": "address",
          "name": "sender",
          "type": "address"
        },
        {
          "indexed": false,
          "internalType": "string",
          "name": "message",
          "type": "string"
        }
      ],
      "name": "Log",
      "type": "event"
    },
    {
      "anonymous": false,
      "inputs": [
        {
          "indexed": false,
          "internalType": "string",
          "name": "message",
          "type": "string"
        },
        {
          "indexed": false,
          "internalType": "uint256",
          "name": "number",
          "type": "uint256"
        }
      ],
      "name": "Looper",
      "type": "event"
    },
    {
      "stateMutability": "payable",
      "type": "fallback",
      "payable": true
    },
    {
      "inputs": [],
      "name": "owner",
      "outputs": [
        {
          "internalType": "address",
          "name": "",
          "type": "address"
        }
      ],
      "stateMutability": "view",
      "type": "function",
      "constant": true
    },
    {
      "stateMutability": "payable",
      "type": "receive",
      "payable": true
    },
    {
      "inputs": [],
      "name": "depositOwner",
      "outputs": [],
      "stateMutability": "payable",
      "type": "function",
      "payable": true
    },
    {
      "inputs": [],
      "name": "depositContract",
      "outputs": [],
      "stateMutability": "payable",
      "type": "function",
      "payable": true
    },
    {
      "inputs": [
        {
          "internalType": "uint256",
          "name": "a",
          "type": "uint256"
        },
        {
          "internalType": "uint256",
          "name": "b",
          "type": "uint256"
        }
      ],
      "name": "testAdhoc",
      "outputs": [
        {
          "internalType": "uint256",
          "name": "",
          "type": "uint256"
        }
      ],
      "stateMutability": "pure",
      "type": "function",
      "constant": true
    },
    {
      "inputs": [],
      "name": "getContractBalance",
      "outputs": [
        {
          "internalType": "uint256",
          "name": "bal",
          "type": "uint256"
        }
      ],
      "stateMutability": "view",
      "type": "function",
      "constant": true
    },
    {
      "inputs": [],
      "name": "getOwnerBalance",
      "outputs": [
        {
          "internalType": "uint256",
          "name": "bal",
          "type": "uint256"
        }
      ],
      "stateMutability": "view",
      "type": "function",
      "constant": true
    },
    {
      "inputs": [],
      "name": "getBalanceSender",
      "outputs": [
        {
          "internalType": "uint256",
          "name": "bal",
          "type": "uint256"
        }
      ],
      "stateMutability": "view",
      "type": "function",
      "constant": true
    },
    {
      "inputs": [
        {
          "internalType": "address payable",
          "name": "addressToSend",
          "type": "address"
        },
        {
          "internalType": "uint256",
          "name": "amount",
          "type": "uint256"
        }
      ],
      "name": "transferEther",
      "outputs": [],
      "stateMutability": "payable",
      "type": "function",
      "payable": true
    },
    {
      "inputs": [
        {
          "internalType": "uint256",
          "name": "a",
          "type": "uint256"
        },
        {
          "internalType": "uint256",
          "name": "b",
          "type": "uint256"
        },
        {
          "internalType": "address payable",
          "name": "addressToSend",
          "type": "address"
        }
      ],
      "name": "transferToAddressStub",
      "outputs": [],
      "stateMutability": "payable",
      "type": "function",
      "payable": true
    }
  ],
  "bytecode": "0x608060405260008055600060025534801561001957600080fd5b5033600160006101000a81548173ffffffffffffffffffffffffffffffffffffffff021916908373ffffffffffffffffffffffffffffffffffffffff160217905550610ba58061006a6000396000f3fe60806040526004361061008a5760003560e01c806371c39ff91161005957806371c39ff91461010f5780638da5cb5b1461014c578063a4bbbd2d14610177578063dc08a662146101a2578063e94ad65b146101be57610091565b806305b1137b14610093578063590791f2146100af5780636c9382cd146100da5780636f9fb98a146100e457610091565b3661009157005b005b6100ad60048036038101906100a8919061070e565b6101c8565b005b3480156100bb57600080fd5b506100c461027c565b6040516100d1919061075d565b60405180910390f35b6100e26102bd565b005b3480156100f057600080fd5b506100f96103dd565b604051610106919061075d565b60405180910390f35b34801561011b57600080fd5b5061013660048036038101906101319190610778565b6103e5565b604051610143919061075d565b60405180910390f35b34801561015857600080fd5b50610161610411565b60405161016e91906107d9565b60405180910390f35b34801561018357600080fd5b5061018c610437565b604051610199919061075d565b60405180910390f35b6101bc60048036038101906101b791906107f4565b610456565b005b6101c6610577565b005b6000808373ffffffffffffffffffffffffffffffffffffffff16836040516101ef90610878565b60006040518083038185875af1925050503d806000811461022c576040519150601f19603f3d011682016040523d82523d6000602084013e610231565b606091505b509150915081610276576040517f08c379a000000000000000000000000000000000000000000000000000000000815260040161026d906108ea565b60405180910390fd5b50505050565b6000600160009054906101000a900473ffffffffffffffffffffffffffffffffffffffff1673ffffffffffffffffffffffffffffffffffffffff1631905090565b600080600160009054906101000a900473ffffffffffffffffffffffffffffffffffffffff1673ffffffffffffffffffffffffffffffffffffffff163460405161030690610878565b60006040518083038185875af1925050503d8060008114610343576040519150601f19603f3d011682016040523d82523d6000602084013e610348565b606091505b50915091503373ffffffffffffffffffffffffffffffffffffffff167f0738f4da267a110d810e6e89fc59e46be6de0c37b1d5cd559b267dc3688e74e060405161039190610956565b60405180910390a2816103d9576040517f08c379a00000000000000000000000000000000000000000000000000000000081526004016103d0906108ea565b60405180910390fd5b5050565b600047905090565b600081836103f391906109a5565b82846103ff91906109d9565b6104099190610a2f565b905092915050565b600160009054906101000a900473ffffffffffffffffffffffffffffffffffffffff1681565b60003373ffffffffffffffffffffffffffffffffffffffff1631905090565b60008290508360005414610571575b60008114610570576000808373ffffffffffffffffffffffffffffffffffffffff166706f05b59d3b2000060405161049c90610878565b60006040518083038185875af1925050503d80600081146104d9576040519150601f19603f3d011682016040523d82523d6000602084013e6104de565b606091505b50915091507ffe5d75a9913bddb645e0ea76900e63ff7084426ca0f4eeaa58111229c8ddc81d836040516105129190610ad5565b60405180910390a18161055a576040517f08c379a0000000000000000000000000000000000000000000000000000000008152600401610551906108ea565b60405180910390fd5b60018361056791906109a5565b92505050610465565b5b50505050565b6000803073ffffffffffffffffffffffffffffffffffffffff163460405161059e90610878565b60006040518083038185875af1925050503d80600081146105db576040519150601f19603f3d011682016040523d82523d6000602084013e6105e0565b606091505b50915091503373ffffffffffffffffffffffffffffffffffffffff167f0738f4da267a110d810e6e89fc59e46be6de0c37b1d5cd559b267dc3688e74e060405161062990610b4f565b60405180910390a281610671576040517f08c379a0000000000000000000000000000000000000000000000000000000008152600401610668906108ea565b60405180910390fd5b5050565b600080fd5b600073ffffffffffffffffffffffffffffffffffffffff82169050919050565b60006106a58261067a565b9050919050565b6106b58161069a565b81146106c057600080fd5b50565b6000813590506106d2816106ac565b92915050565b6000819050919050565b6106eb816106d8565b81146106f657600080fd5b50565b600081359050610708816106e2565b92915050565b6000806040838503121561072557610724610675565b5b6000610733858286016106c3565b9250506020610744858286016106f9565b9150509250929050565b610757816106d8565b82525050565b6000602082019050610772600083018461074e565b92915050565b6000806040838503121561078f5761078e610675565b5b600061079d858286016106f9565b92505060206107ae858286016106f9565b9150509250929050565b60006107c38261067a565b9050919050565b6107d3816107b8565b82525050565b60006020820190506107ee60008301846107ca565b92915050565b60008060006060848603121561080d5761080c610675565b5b600061081b868287016106f9565b935050602061082c868287016106f9565b925050604061083d868287016106c3565b9150509250925092565b600081905092915050565b50565b6000610862600083610847565b915061086d82610852565b600082019050919050565b600061088382610855565b9150819050919050565b600082825260208201905092915050565b7f4661696c656420746f2073656e64204574686572000000000000000000000000600082015250565b60006108d460148361088d565b91506108df8261089e565b602082019050919050565b60006020820190508181036000830152610903816108c7565b9050919050565b7f4465706f73697420457468657220746f204f776e657200000000000000000000600082015250565b600061094060168361088d565b915061094b8261090a565b602082019050919050565b6000602082019050818103600083015261096f81610933565b9050919050565b7f4e487b7100000000000000000000000000000000000000000000000000000000600052601160045260246000fd5b60006109b0826106d8565b91506109bb836106d8565b9250828210156109ce576109cd610976565b5b828203905092915050565b60006109e4826106d8565b91506109ef836106d8565b9250827fffffffffffffffffffffffffffffffffffffffffffffffffffffffffffffffff03821115610a2457610a23610976565b5b828201905092915050565b6000610a3a826106d8565b9150610a45836106d8565b9250817fffffffffffffffffffffffffffffffffffffffffffffffffffffffffffffffff0483118215151615610a7e57610a7d610976565b5b828202905092915050565b7f4c6f6f70696e6700000000000000000000000000000000000000000000000000600082015250565b6000610abf60078361088d565b9150610aca82610a89565b602082019050919050565b60006040820190508181036000830152610aee81610ab2565b9050610afd602083018461074e565b92915050565b7f4465706f73697420457468657220746f20436f6e747261637400000000000000600082015250565b6000610b3960198361088d565b9150610b4482610b03565b602082019050919050565b60006020820190508181036000830152610b6881610b2c565b905091905056fea2646970667358221220366258850fc026c0e8f68763a1f69baa8588d818fd930c19090d2d36066c551864736f6c63430008090033",
  "immutableReferences": {},
  "source": "// SPDX-License-Identifier: GPL-3.0\npragma solidity >=0.4.2 <0.9.0;\n// Not so Smart Contract.\n\ncontract Test {\n    uint256 counter = 0;\n    address public owner;\n    uint256 contractBalance = 0;\n    // Basic Event Lgging\n    event Log(address indexed sender, string message);\n    event Looper(string message, uint256 number);\n    \n    \n    // Function to receive Ether. msg.data must be empty\n    receive() external payable {}\n\n    // Fallback function is called when msg.data is not empty\n    fallback() external payable {}\n\n    constructor() public {\n        owner = msg.sender;\n    }\n\n    function depositOwner() public payable {\n         (bool sent, bytes memory data) = payable(owner).call{value:msg.value}(\"\");\n         emit Log(msg.sender, \"Deposit Ether to Owner\");\n         require(sent, \"Failed to send Ether\");\n    }\n\n    function depositContract() public payable {\n        (bool sent, bytes memory data) = payable(address(this))\n                                            .call{value:msg.value}(\"\");\n        emit Log(msg.sender, \"Deposit Ether to Contract\");     \n        require(sent, \"Failed to send Ether\");\n    }\n    \n    function testAdhoc(uint256 a, uint256 b) public pure returns (uint256) {\n        return (a + b) * (a - b);\n    }\n\n    // This gives the amount/ether strored in the smart contract.\n    function getContractBalance() public view returns (uint256 bal) {\n        return address(this).balance;\n    }\n\n    // This gives the balance of the owner account.\n    // Not the amount/ether strored in the smart contract.\n    // The name is confusing here.\n    function getOwnerBalance() public view returns (uint256 bal) {\n        return owner.balance;\n    }\n\n    // Balance of the sender who called this function.\n    function getBalanceSender() public view returns (uint256 bal) {\n        return msg.sender.balance;\n    }\n    \n    // web3.utils.toWei('1', 'ether') else goes to fallback since\n    // arguments error.\n    function transferEther(address payable addressToSend, uint256 amount)\n        public\n        payable\n    {\n        (bool sent, bytes memory data) = addressToSend\n                           .call{value:amount}(\"\");\n        require(sent, \"Failed to send Ether\");\n    }\n    \n    function transferToAddressStub(\n        uint256 a,\n        uint256 b,\n        address payable addressToSend\n    ) public payable {\n        // require(msg.value >= 1 ether, \"More than 1 ether needed\");\n        uint256 count = b;\n        if (counter != a) {\n            // count may go negative : revert.\n            while (count != 0) {\n                // reverts if msg.value is lower than required \n                // ether here.\n                // Ether is lost to contract here if extra \n                // ether sent >= amout to transfer.\n                (bool sent, bytes memory data) = addressToSend\n                                   .call{value:0.5 ether}(\"\");\n                emit Looper(\"Looping\", count);\n                require(sent, \"Failed to send Ether\");\n                count = count - 1;\n            }\n        }\n    }\n}\n",
  "sourcePath": "/home/clustfuzz/Documents/Research/Smart Contracts Project/Solidity-Examples/contract-samples/contracts/Test.sol",
  "compiler": {
    "name": "solc",
    "version": "0.8.9+commit.e5eed63a.Emscripten.clang"
  },
  "schemaVersion": "3.4.4",
  "updatedAt": "2022-01-15T10:05:36.756Z",
  "networkType": "ethereum",
  "devdoc": {
    "kind": "dev",
    "methods": {},
    "version": 1
  },
  "userdoc": {
    "kind": "user",
    "methods": {},
    "version": 1
  }
}