{
  "contractName": "Test",
  "abi": [
    {
      "inputs": [],
      "stateMutability": "nonpayable",
      "type": "constructor"
    },
    {
      "inputs": [],
      "name": "owner",
      "outputs": [
        {
          "internalType": "address",
          "name": "",
          "type": "address"
        }
      ],
      "stateMutability": "view",
      "type": "function",
      "constant": true
    },
    {
      "inputs": [],
      "name": "depositOwner",
      "outputs": [],
      "stateMutability": "payable",
      "type": "function",
      "payable": true
    },
    {
      "inputs": [
        {
          "internalType": "uint256",
          "name": "a",
          "type": "uint256"
        },
        {
          "internalType": "uint256",
          "name": "b",
          "type": "uint256"
        }
      ],
      "name": "testAdhoc",
      "outputs": [
        {
          "internalType": "uint256",
          "name": "",
          "type": "uint256"
        }
      ],
      "stateMutability": "pure",
      "type": "function",
      "constant": true
    },
    {
      "inputs": [],
      "name": "getBalance",
      "outputs": [
        {
          "internalType": "uint256",
          "name": "bal",
          "type": "uint256"
        }
      ],
      "stateMutability": "view",
      "type": "function",
      "constant": true
    },
    {
      "inputs": [],
      "name": "getContractBalance",
      "outputs": [
        {
          "internalType": "uint256",
          "name": "bal",
          "type": "uint256"
        }
      ],
      "stateMutability": "view",
      "type": "function",
      "constant": true
    },
    {
      "inputs": [],
      "name": "getBalanceSender",
      "outputs": [
        {
          "internalType": "uint256",
          "name": "bal",
          "type": "uint256"
        }
      ],
      "stateMutability": "view",
      "type": "function",
      "constant": true
    },
    {
      "inputs": [
        {
          "internalType": "uint256",
          "name": "a",
          "type": "uint256"
        },
        {
          "internalType": "uint256",
          "name": "b",
          "type": "uint256"
        },
        {
          "internalType": "address payable",
          "name": "addressToSend",
          "type": "address"
        }
      ],
      "name": "transferToAddressStub",
      "outputs": [],
      "stateMutability": "payable",
      "type": "function",
      "payable": true
    },
    {
      "inputs": [
        {
          "internalType": "address payable",
          "name": "addressToSend",
          "type": "address"
        },
        {
          "internalType": "uint256",
          "name": "amount",
          "type": "uint256"
        }
      ],
      "name": "transferEther",
      "outputs": [],
      "stateMutability": "payable",
      "type": "function",
      "payable": true
    }
  ],
  "bytecode": "0x608060405260008055600060025534801561001957600080fd5b5033600160006101000a81548173ffffffffffffffffffffffffffffffffffffffff021916908373ffffffffffffffffffffffffffffffffffffffff1602179055506106b78061006a6000396000f3fe60806040526004361061007b5760003560e01c806371c39ff91161004e57806371c39ff9146100fc5780638da5cb5b14610139578063a4bbbd2d14610164578063dc08a6621461018f5761007b565b806305b1137b1461008057806312065fe01461009c5780636c9382cd146100c75780636f9fb98a146100d1575b600080fd5b61009a60048036038101906100959190610435565b6101ab565b005b3480156100a857600080fd5b506100b16101f6565b6040516100be9190610484565b60405180910390f35b6100cf6101fe565b005b3480156100dd57600080fd5b506100e6610269565b6040516100f39190610484565b60405180910390f35b34801561010857600080fd5b50610123600480360381019061011e919061049f565b6102aa565b6040516101309190610484565b60405180910390f35b34801561014557600080fd5b5061014e6102d6565b60405161015b9190610500565b60405180910390f35b34801561017057600080fd5b506101796102fc565b6040516101869190610484565b60405180910390f35b6101a960048036038101906101a4919061051b565b61031b565b005b8173ffffffffffffffffffffffffffffffffffffffff166108fc829081150290604051600060405180830381858888f193505050501580156101f1573d6000803e3d6000fd5b505050565b600047905090565b600160009054906101000a900473ffffffffffffffffffffffffffffffffffffffff1673ffffffffffffffffffffffffffffffffffffffff166108fc349081150290604051600060405180830381858888f19350505050158015610266573d6000803e3d6000fd5b50565b6000600160009054906101000a900473ffffffffffffffffffffffffffffffffffffffff1673ffffffffffffffffffffffffffffffffffffffff1631905090565b600081836102b8919061059d565b82846102c491906105d1565b6102ce9190610627565b905092915050565b600160009054906101000a900473ffffffffffffffffffffffffffffffffffffffff1681565b60003373ffffffffffffffffffffffffffffffffffffffff1631905090565b60008290508360005414610396575b60008114610395578173ffffffffffffffffffffffffffffffffffffffff166108fc670de0b6b3a76400009081150290604051600060405180830381858888f19350505050158015610380573d6000803e3d6000fd5b5060018161038e919061059d565b905061032a565b5b50505050565b600080fd5b600073ffffffffffffffffffffffffffffffffffffffff82169050919050565b60006103cc826103a1565b9050919050565b6103dc816103c1565b81146103e757600080fd5b50565b6000813590506103f9816103d3565b92915050565b6000819050919050565b610412816103ff565b811461041d57600080fd5b50565b60008135905061042f81610409565b92915050565b6000806040838503121561044c5761044b61039c565b5b600061045a858286016103ea565b925050602061046b85828601610420565b9150509250929050565b61047e816103ff565b82525050565b60006020820190506104996000830184610475565b92915050565b600080604083850312156104b6576104b561039c565b5b60006104c485828601610420565b92505060206104d585828601610420565b9150509250929050565b60006104ea826103a1565b9050919050565b6104fa816104df565b82525050565b600060208201905061051560008301846104f1565b92915050565b6000806000606084860312156105345761053361039c565b5b600061054286828701610420565b935050602061055386828701610420565b9250506040610564868287016103ea565b9150509250925092565b7f4e487b7100000000000000000000000000000000000000000000000000000000600052601160045260246000fd5b60006105a8826103ff565b91506105b3836103ff565b9250828210156105c6576105c561056e565b5b828203905092915050565b60006105dc826103ff565b91506105e7836103ff565b9250827fffffffffffffffffffffffffffffffffffffffffffffffffffffffffffffffff0382111561061c5761061b61056e565b5b828201905092915050565b6000610632826103ff565b915061063d836103ff565b9250817fffffffffffffffffffffffffffffffffffffffffffffffffffffffffffffffff04831182151516156106765761067561056e565b5b82820290509291505056fea26469706673582212204c18fe0c604d8c27e13bce6b1a78af29cba08c193544adca5b563f8028bff22664736f6c63430008090033",
  "immutableReferences": {},
  "source": "// SPDX-License-Identifier: GPL-3.0\npragma solidity >=0.4.2 <0.9.0;\n\ncontract Test {\n    uint256 counter = 0;\n    address public owner;\n    uint256 contractBalance = 0;\n\n    constructor() public {\n        owner = msg.sender;\n    }\n\n    function depositOwner() public payable {\n        payable(owner).transfer(msg.value);\n    }\n\n    function testAdhoc(uint256 a, uint256 b) public pure returns (uint256) {\n        return (a + b) * (a - b);\n    }\n\n    function getBalance() public view returns (uint256 bal) {\n        return address(this).balance;\n    }\n\n    function getContractBalance() public view returns (uint256 bal) {\n        return owner.balance;\n    }\n\n    function getBalanceSender() public view returns (uint256 bal) {\n        return msg.sender.balance;\n    }\n\n    function transferToAddressStub(\n        uint256 a,\n        uint256 b,\n        address payable addressToSend\n    ) public payable {\n        // require(msg.value >= 1 ether, \"More than 1 ether needed\");\n        uint256 count = b;\n        if (counter != a) {\n            // count may go negative : revert.\n            while (count != 0) {\n                // reverts if msg.value is lower than 1 ether here.\n                // Ether is lost.\n                addressToSend.transfer(1 ether);\n                count = count - 1;\n            }\n        }\n    }\n\n    function transferEther(address payable addressToSend, uint256 amount)\n        public\n        payable\n    {\n        addressToSend.transfer(amount);\n    }\n}\n",
  "sourcePath": "/home/clustfuzz/Documents/Research/Solidity-Examples/contract-samples/contracts/Test.sol",
  "compiler": {
    "name": "solc",
    "version": "0.8.9+commit.e5eed63a.Emscripten.clang"
  },
  "schemaVersion": "3.4.4",
  "updatedAt": "2022-01-13T07:14:21.846Z",
  "networkType": "ethereum",
  "devdoc": {
    "kind": "dev",
    "methods": {},
    "version": 1
  },
  "userdoc": {
    "kind": "user",
    "methods": {},
    "version": 1
  }
}