{
  "contractName": "Marks_Reent",
  "abi": [
    {
      "anonymous": false,
      "inputs": [
        {
          "indexed": false,
          "internalType": "address",
          "name": "addr",
          "type": "address"
        },
        {
          "indexed": false,
          "internalType": "uint8[]",
          "name": "mark",
          "type": "uint8[]"
        },
        {
          "indexed": false,
          "internalType": "string",
          "name": "g",
          "type": "string"
        },
        {
          "indexed": false,
          "internalType": "uint256",
          "name": "avg",
          "type": "uint256"
        }
      ],
      "name": "MarksAdd",
      "type": "event"
    },
    {
      "anonymous": false,
      "inputs": [
        {
          "indexed": false,
          "internalType": "address",
          "name": "student",
          "type": "address"
        },
        {
          "indexed": false,
          "internalType": "string",
          "name": "funcname",
          "type": "string"
        }
      ],
      "name": "path",
      "type": "event"
    },
    {
      "inputs": [
        {
          "internalType": "address",
          "name": "addr",
          "type": "address"
        },
        {
          "internalType": "uint8[]",
          "name": "m",
          "type": "uint8[]"
        }
      ],
      "name": "insert",
      "outputs": [
        {
          "internalType": "bool",
          "name": "",
          "type": "bool"
        }
      ],
      "stateMutability": "nonpayable",
      "type": "function"
    },
    {
      "inputs": [
        {
          "internalType": "uint256",
          "name": "avg",
          "type": "uint256"
        }
      ],
      "name": "compgrade",
      "outputs": [
        {
          "internalType": "string",
          "name": "",
          "type": "string"
        }
      ],
      "stateMutability": "nonpayable",
      "type": "function"
    },
    {
      "inputs": [
        {
          "internalType": "address",
          "name": "addr",
          "type": "address"
        },
        {
          "internalType": "uint8",
          "name": "idx",
          "type": "uint8"
        }
      ],
      "name": "getIndMark",
      "outputs": [
        {
          "internalType": "uint8",
          "name": "",
          "type": "uint8"
        }
      ],
      "stateMutability": "view",
      "type": "function",
      "constant": true
    },
    {
      "inputs": [
        {
          "internalType": "address",
          "name": "addr",
          "type": "address"
        }
      ],
      "name": "getGrade",
      "outputs": [
        {
          "internalType": "string",
          "name": "",
          "type": "string"
        }
      ],
      "stateMutability": "view",
      "type": "function",
      "constant": true
    },
    {
      "inputs": [
        {
          "internalType": "address",
          "name": "addr",
          "type": "address"
        }
      ],
      "name": "getStatus",
      "outputs": [
        {
          "internalType": "bool",
          "name": "",
          "type": "bool"
        }
      ],
      "stateMutability": "view",
      "type": "function",
      "constant": true
    },
    {
      "inputs": [
        {
          "internalType": "address",
          "name": "addr",
          "type": "address"
        }
      ],
      "name": "graceMarks",
      "outputs": [],
      "stateMutability": "nonpayable",
      "type": "function"
    },
    {
      "inputs": [
        {
          "internalType": "address",
          "name": "addr",
          "type": "address"
        }
      ],
      "name": "checktot",
      "outputs": [
        {
          "internalType": "string",
          "name": "message",
          "type": "string"
        }
      ],
      "stateMutability": "nonpayable",
      "type": "function"
    }
  ],
  "bytecode": "0x608060405234801561001057600080fd5b50612cd0806100206000396000f3fe608060405234801561001057600080fd5b506004361061007d5760003560e01c806330ccebb51161005b57806330ccebb5146100fe578063313739a31461012e57806335151bf11461015e5780634fb0b7c41461018e5761007d565b8063095aec6014610082578063149cff49146100b25780631fb71f88146100ce575b600080fd5b61009c600480360381019061009791906116b2565b6101be565b6040516100a99190611701565b60405180910390f35b6100cc60048036038101906100c7919061171c565b61023b565b005b6100e860048036038101906100e3919061177f565b61052c565b6040516100f59190611845565b60405180910390f35b6101186004803603810190610113919061171c565b6106d2565b6040516101259190611882565b60405180910390f35b6101486004803603810190610143919061171c565b610728565b6040516101559190611845565b60405180910390f35b610178600480360381019061017391906119e5565b6107f9565b6040516101859190611882565b60405180910390f35b6101a860048036038101906101a3919061171c565b610c56565b6040516101b59190611845565b60405180910390f35b60008060008473ffffffffffffffffffffffffffffffffffffffff1673ffffffffffffffffffffffffffffffffffffffff1681526020019081526020016000208260ff168154811061021357610212611a41565b5b90600052602060002090602091828204019190069054906101000a900460ff16905092915050565b60001515600360008373ffffffffffffffffffffffffffffffffffffffff1673ffffffffffffffffffffffffffffffffffffffff16815260200190815260200160002060009054906101000a900460ff161515141561052957600061029f82610728565b90506102e0816040518060400160405280600281526020017f412a0000000000000000000000000000000000000000000000000000000000008152506112cb565b806103265750610325816040518060400160405280600181526020017f41000000000000000000000000000000000000000000000000000000000000008152506112cb565b5b8061036c575061036b816040518060400160405280600181526020017f42000000000000000000000000000000000000000000000000000000000000008152506112cb565b5b806103b257506103b1816040518060400160405280600181526020017f46000000000000000000000000000000000000000000000000000000000000008152506112cb565b5b156103bc576104cf565b6103fb816040518060400160405280600181526020017f43000000000000000000000000000000000000000000000000000000000000008152506112cb565b806104415750610440816040518060400160405280600181526020017f44000000000000000000000000000000000000000000000000000000000000008152506112cb565b5b806104875750610486816040518060400160405280600181526020017f45000000000000000000000000000000000000000000000000000000000000008152506112cb565b5b156104ce577fbd6616c0f1f9a7f666369b8343913166ddbf61881ea9eb495a48f96defa59a73826040516104bb9190611acb565b60405180910390a16104cc82610c56565b505b5b6001600360008473ffffffffffffffffffffffffffffffffffffffff1673ffffffffffffffffffffffffffffffffffffffff16815260200190815260200160002060006101000a81548160ff021916908315150217905550505b50565b6060605a8210610573576040518060400160405280600181526020017f410000000000000000000000000000000000000000000000000000000000000081525090506106cd565b605082106105b8576040518060400160405280600181526020017f420000000000000000000000000000000000000000000000000000000000000081525090506106cd565b604682106105fd576040518060400160405280600181526020017f430000000000000000000000000000000000000000000000000000000000000081525090506106cd565b603c8210610642576040518060400160405280600181526020017f440000000000000000000000000000000000000000000000000000000000000081525090506106cd565b60328210610687576040518060400160405280600181526020017f450000000000000000000000000000000000000000000000000000000000000081525090506106cd565b602d82106106cc576040518060400160405280600a81526020017f496e636f6d706c6574650000000000000000000000000000000000000000000081525090506106cd565b5b919050565b6000600360008373ffffffffffffffffffffffffffffffffffffffff1673ffffffffffffffffffffffffffffffffffffffff16815260200190815260200160002060009054906101000a900460ff169050919050565b6060600160008373ffffffffffffffffffffffffffffffffffffffff1673ffffffffffffffffffffffffffffffffffffffff168152602001908152602001600020805461077490611b28565b80601f01602080910402602001604051908101604052809291908181526020018280546107a090611b28565b80156107ed5780601f106107c2576101008083540402835291602001916107ed565b820191906000526020600020905b8154815290600101906020018083116107d057829003601f168201915b50505050509050919050565b6000816000808573ffffffffffffffffffffffffffffffffffffffff1673ffffffffffffffffffffffffffffffffffffffff168152602001908152602001600020908051906020019061084d9291906114bd565b50600080600080600090505b60058160ff16101561092e57858160ff168151811061087b5761087a611a41565b5b602002602001015160ff16846108919190611b89565b935060008360ff161480156108c65750602e868260ff16815181106108b9576108b8611a41565b5b602002602001015160ff16115b156108d057600192505b60008360ff1614806108e5575060018360ff16145b801561091157506014868260ff168151811061090457610903611a41565b5b602002602001015160ff16105b1561091b57600292505b808061092690611bdf565b915050610859565b50600a60048461093e9190611c09565b6109489190611c92565b905082600260008873ffffffffffffffffffffffffffffffffffffffff1673ffffffffffffffffffffffffffffffffffffffff1681526020019081526020016000208190555060018260ff161480156109a2575060558110155b15610a35576040518060400160405280600281526020017f412a000000000000000000000000000000000000000000000000000000000000815250600160008873ffffffffffffffffffffffffffffffffffffffff1673ffffffffffffffffffffffffffffffffffffffff1681526020019081526020016000209080519060200190610a2f929190611564565b50610b39565b60028260ff16148015610a485750603281105b15610adb576040518060400160405280600181526020017f4600000000000000000000000000000000000000000000000000000000000000815250600160008873ffffffffffffffffffffffffffffffffffffffff1673ffffffffffffffffffffffffffffffffffffffff1681526020019081526020016000209080519060200190610ad5929190611564565b50610b38565b610ae48161052c565b600160008873ffffffffffffffffffffffffffffffffffffffff1673ffffffffffffffffffffffffffffffffffffffff1681526020019081526020016000209080519060200190610b36929190611564565b505b5b6000600360008873ffffffffffffffffffffffffffffffffffffffff1673ffffffffffffffffffffffffffffffffffffffff16815260200190815260200160002060006101000a81548160ff0219169083151502179055507f51bb80e7da3dd69c7b624d72023da84055fc253f522f59095dcd3bdf8a1deb87866000808973ffffffffffffffffffffffffffffffffffffffff1673ffffffffffffffffffffffffffffffffffffffff168152602001908152602001600020600160008a73ffffffffffffffffffffffffffffffffffffffff1673ffffffffffffffffffffffffffffffffffffffff16815260200190815260200160002084604051610c419493929190612ada565b60405180910390a16001935050505092915050565b606060006040518060800160405280600115151515815260200160011515151581526020016001151515158152602001600115151515815250905060008060008573ffffffffffffffffffffffffffffffffffffffff1673ffffffffffffffffffffffffffffffffffffffff168152602001908152602001600020805480602002602001604051908101604052809291908181526020018280548015610d4157602002820191906000526020600020906000905b82829054906101000a900460ff1660ff1681526020019060010190602082600001049283019260010382029150808411610d0a5790505b5050505050905060005b60058160ff161015610fed5782600060048110610d6b57610d6a611a41565b5b60200201518015610d9d5750818160ff1681518110610d8d57610d8c611a41565b5b602002602001015160ff16600a11155b8015610dc957506014828260ff1681518110610dbc57610dbb611a41565b5b602002602001015160ff16105b15610df857600083600060048110610de457610de3611a41565b5b602002019015159081151581525050610fda565b82600160048110610e0c57610e0b611a41565b5b60200201518015610e3e5750818160ff1681518110610e2e57610e2d611a41565b5b602002602001015160ff16601411155b8015610e6a5750601e828260ff1681518110610e5d57610e5c611a41565b5b602002602001015160ff16105b15610e9957600083600160048110610e8557610e84611a41565b5b602002019015159081151581525050610fd9565b82600260048110610ead57610eac611a41565b5b60200201518015610edf5750818160ff1681518110610ecf57610ece611a41565b5b602002602001015160ff16601e11155b8015610f0b57506028828260ff1681518110610efe57610efd611a41565b5b602002602001015160ff16105b15610f3a57600083600260048110610f2657610f25611a41565b5b602002019015159081151581525050610fd8565b82600360048110610f4e57610f4d611a41565b5b60200201518015610f805750818160ff1681518110610f7057610f6f611a41565b5b602002602001015160ff16602811155b8015610fac57506032828260ff1681518110610f9f57610f9e611a41565b5b602002602001015160ff16105b15610fd757600083600360048110610fc757610fc6611a41565b5b6020020190151590811515815250505b5b5b5b8080610fe590611bdf565b915050610d4b565b50600a600260008673ffffffffffffffffffffffffffffffffffffffff1673ffffffffffffffffffffffffffffffffffffffff1681526020019081526020016000205461103a9190611b89565b600260008673ffffffffffffffffffffffffffffffffffffffff1673ffffffffffffffffffffffffffffffffffffffff168152602001908152602001600020819055508160006004811061109157611090611a41565b5b6020020151806110b65750816001600481106110b0576110af611a41565b5b60200201515b806110d65750816002600481106110d0576110cf611a41565b5b60200201515b806110f65750816003600481106110f0576110ef611a41565b5b60200201515b6111e65760e1600260008673ffffffffffffffffffffffffffffffffffffffff1673ffffffffffffffffffffffffffffffffffffffff168152602001908152602001600020541015611187577fbd6616c0f1f9a7f666369b8343913166ddbf61881ea9eb495a48f96defa59a73846040516111719190612b79565b60405180910390a16111828461023b565b6111e5565b6000600a6004600260008873ffffffffffffffffffffffffffffffffffffffff1673ffffffffffffffffffffffffffffffffffffffff168152602001908152602001600020546111d79190611c09565b6111e19190611c92565b9050505b5b6000600a6004600260008873ffffffffffffffffffffffffffffffffffffffff1673ffffffffffffffffffffffffffffffffffffffff168152602001908152602001600020546112369190611c09565b6112409190611c92565b9050600061124d8261052c565b9050806040516020016112609190612c2f565b604051602081830303815290604052600160008873ffffffffffffffffffffffffffffffffffffffff1673ffffffffffffffffffffffffffffffffffffffff16815260200190815260200160002090805190602001906112c1929190611564565b5050505050919050565b6000806112d884846112e1565b14905092915050565b6000808390506000839050600082519050808251101561130057815190505b60005b818110156114635782818151811061131e5761131d611a41565b5b602001015160f81c60f81b7effffffffffffffffffffffffffffffffffffffffffffffffffffffffffffff191684828151811061135e5761135d611a41565b5b602001015160f81c60f81b7effffffffffffffffffffffffffffffffffffffffffffffffffffffffffffff191610156113bd577fffffffffffffffffffffffffffffffffffffffffffffffffffffffffffffffff9450505050506114b7565b8281815181106113d0576113cf611a41565b5b602001015160f81c60f81b7effffffffffffffffffffffffffffffffffffffffffffffffffffffffffffff19168482815181106114105761140f611a41565b5b602001015160f81c60f81b7effffffffffffffffffffffffffffffffffffffffffffffffffffffffffffff191611156114505760019450505050506114b7565b808061145b90612c51565b915050611303565b50815183511015611499577fffffffffffffffffffffffffffffffffffffffffffffffffffffffffffffffff93505050506114b7565b8151835111156114af57600193505050506114b7565b600093505050505b92915050565b82805482825590600052602060002090601f016020900481019282156115535791602002820160005b8382111561152457835183826101000a81548160ff021916908360ff16021790555092602001926001016020816000010492830192600103026114e6565b80156115515782816101000a81549060ff0219169055600101602081600001049283019260010302611524565b505b50905061156091906115ea565b5090565b82805461157090611b28565b90600052602060002090601f01602090048101928261159257600085556115d9565b82601f106115ab57805160ff19168380011785556115d9565b828001600101855582156115d9579182015b828111156115d85782518255916020019190600101906115bd565b5b5090506115e691906115ea565b5090565b5b808211156116035760008160009055506001016115eb565b5090565b6000604051905090565b600080fd5b600080fd5b600073ffffffffffffffffffffffffffffffffffffffff82169050919050565b60006116468261161b565b9050919050565b6116568161163b565b811461166157600080fd5b50565b6000813590506116738161164d565b92915050565b600060ff82169050919050565b61168f81611679565b811461169a57600080fd5b50565b6000813590506116ac81611686565b92915050565b600080604083850312156116c9576116c8611611565b5b60006116d785828601611664565b92505060206116e88582860161169d565b9150509250929050565b6116fb81611679565b82525050565b600060208201905061171660008301846116f2565b92915050565b60006020828403121561173257611731611611565b5b600061174084828501611664565b91505092915050565b6000819050919050565b61175c81611749565b811461176757600080fd5b50565b60008135905061177981611753565b92915050565b60006020828403121561179557611794611611565b5b60006117a38482850161176a565b91505092915050565b600081519050919050565b600082825260208201905092915050565b60005b838110156117e65780820151818401526020810190506117cb565b838111156117f5576000848401525b50505050565b6000601f19601f8301169050919050565b6000611817826117ac565b61182181856117b7565b93506118318185602086016117c8565b61183a816117fb565b840191505092915050565b6000602082019050818103600083015261185f818461180c565b905092915050565b60008115159050919050565b61187c81611867565b82525050565b60006020820190506118976000830184611873565b92915050565b600080fd5b7f4e487b7100000000000000000000000000000000000000000000000000000000600052604160045260246000fd5b6118da826117fb565b810181811067ffffffffffffffff821117156118f9576118f86118a2565b5b80604052505050565b600061190c611607565b905061191882826118d1565b919050565b600067ffffffffffffffff821115611938576119376118a2565b5b602082029050602081019050919050565b600080fd5b600061196161195c8461191d565b611902565b9050808382526020820190506020840283018581111561198457611983611949565b5b835b818110156119ad5780611999888261169d565b845260208401935050602081019050611986565b5050509392505050565b600082601f8301126119cc576119cb61189d565b5b81356119dc84826020860161194e565b91505092915050565b600080604083850312156119fc576119fb611611565b5b6000611a0a85828601611664565b925050602083013567ffffffffffffffff811115611a2b57611a2a611616565b5b611a37858286016119b7565b9150509250929050565b7f4e487b7100000000000000000000000000000000000000000000000000000000600052603260045260246000fd5b611a798161163b565b82525050565b7f43616c6c696e6720636865636b746f7400000000000000000000000000000000600082015250565b6000611ab56010836117b7565b9150611ac082611a7f565b602082019050919050565b6000604082019050611ae06000830184611a70565b8181036020830152611af181611aa8565b905092915050565b7f4e487b7100000000000000000000000000000000000000000000000000000000600052602260045260246000fd5b60006002820490506001821680611b4057607f821691505b60208210811415611b5457611b53611af9565b5b50919050565b7f4e487b7100000000000000000000000000000000000000000000000000000000600052601160045260246000fd5b6000611b9482611749565b9150611b9f83611749565b9250827fffffffffffffffffffffffffffffffffffffffffffffffffffffffffffffffff03821115611bd457611bd3611b5a565b5b828201905092915050565b6000611bea82611679565b915060ff821415611bfe57611bfd611b5a565b5b600182019050919050565b6000611c1482611749565b9150611c1f83611749565b9250817fffffffffffffffffffffffffffffffffffffffffffffffffffffffffffffffff0483118215151615611c5857611c57611b5a565b5b828202905092915050565b7f4e487b7100000000000000000000000000000000000000000000000000000000600052601260045260246000fd5b6000611c9d82611749565b9150611ca883611749565b925082611cb857611cb7611c63565b5b828204905092915050565b600081549050919050565b600082825260208201905092915050565b60008190508160005260206000209050919050565b611cfd81611679565b82525050565b60008160001c9050919050565b600060ff82169050919050565b6000611d30611d2b83611d03565b611d10565b9050919050565b60008160081c9050919050565b6000611d57611d5283611d37565b611d10565b9050919050565b60008160101c9050919050565b6000611d7e611d7983611d5e565b611d10565b9050919050565b60008160181c9050919050565b6000611da5611da083611d85565b611d10565b9050919050565b60008160201c9050919050565b6000611dcc611dc783611dac565b611d10565b9050919050565b60008160281c9050919050565b6000611df3611dee83611dd3565b611d10565b9050919050565b60008160301c9050919050565b6000611e1a611e1583611dfa565b611d10565b9050919050565b60008160381c9050919050565b6000611e41611e3c83611e21565b611d10565b9050919050565b60008160401c9050919050565b6000611e68611e6383611e48565b611d10565b9050919050565b60008160481c9050919050565b6000611e8f611e8a83611e6f565b611d10565b9050919050565b60008160501c9050919050565b6000611eb6611eb183611e96565b611d10565b9050919050565b60008160581c9050919050565b6000611edd611ed883611ebd565b611d10565b9050919050565b60008160601c9050919050565b6000611f04611eff83611ee4565b611d10565b9050919050565b60008160681c9050919050565b6000611f2b611f2683611f0b565b611d10565b9050919050565b60008160701c9050919050565b6000611f52611f4d83611f32565b611d10565b9050919050565b60008160781c9050919050565b6000611f79611f7483611f59565b611d10565b9050919050565b60008160801c9050919050565b6000611fa0611f9b83611f80565b611d10565b9050919050565b60008160881c9050919050565b6000611fc7611fc283611fa7565b611d10565b9050919050565b60008160901c9050919050565b6000611fee611fe983611fce565b611d10565b9050919050565b60008160981c9050919050565b600061201561201083611ff5565b611d10565b9050919050565b60008160a01c9050919050565b600061203c6120378361201c565b611d10565b9050919050565b60008160a81c9050919050565b600061206361205e83612043565b611d10565b9050919050565b60008160b01c9050919050565b600061208a6120858361206a565b611d10565b9050919050565b60008160b81c9050919050565b60006120b16120ac83612091565b611d10565b9050919050565b60008160c01c9050919050565b60006120d86120d3836120b8565b611d10565b9050919050565b60008160c81c9050919050565b60006120ff6120fa836120df565b611d10565b9050919050565b60008160d01c9050919050565b600061212661212183612106565b611d10565b9050919050565b60008160d81c9050919050565b600061214d6121488361212d565b611d10565b9050919050565b60008160e01c9050919050565b600061217461216f83612154565b611d10565b9050919050565b60008160e81c9050919050565b600061219b6121968361217b565b611d10565b9050919050565b60008160f01c9050919050565b60006121c26121bd836121a2565b611d10565b9050919050565b60008160f81c9050919050565b60006121e96121e4836121c9565b611d10565b9050919050565b60006121fb82611cc3565b6122058185611cce565b93508361221184611cdf565b600060011561253e575b8360016020038201101561253d57815461223d8861223883611d1d565b611cf4565b6020880197506122558861225083611d44565b611cf4565b60208801975061226d8861226883611d6b565b611cf4565b6020880197506122858861228083611d92565b611cf4565b60208801975061229d8861229883611db9565b611cf4565b6020880197506122b5886122b083611de0565b611cf4565b6020880197506122cd886122c883611e07565b611cf4565b6020880197506122e5886122e083611e2e565b611cf4565b6020880197506122fd886122f883611e55565b611cf4565b6020880197506123158861231083611e7c565b611cf4565b60208801975061232d8861232883611ea3565b611cf4565b6020880197506123458861234083611eca565b611cf4565b60208801975061235d8861235883611ef1565b611cf4565b6020880197506123758861237083611f18565b611cf4565b60208801975061238d8861238883611f3f565b611cf4565b6020880197506123a5886123a083611f66565b611cf4565b6020880197506123bd886123b883611f8d565b611cf4565b6020880197506123d5886123d083611fb4565b611cf4565b6020880197506123ed886123e883611fdb565b611cf4565b6020880197506124058861240083612002565b611cf4565b60208801975061241d8861241883612029565b611cf4565b6020880197506124358861243083612050565b611cf4565b60208801975061244d8861244883612077565b611cf4565b602088019750612465886124608361209e565b611cf4565b60208801975061247d88612478836120c5565b611cf4565b60208801975061249588612490836120ec565b611cf4565b6020880197506124ad886124a883612113565b611cf4565b6020880197506124c5886124c08361213a565b611cf4565b6020880197506124dd886124d883612161565b611cf4565b6020880197506124f5886124f083612188565b611cf4565b60208801975061250d88612508836121af565b611cf4565b60208801975061252588612520836121d6565b611cf4565b6020880197506001830192505060208101905061221b565b5b600115612a295781548482101561256e576125618861255c83611d1d565b611cf4565b6020880197506001820191505b84821015612595576125888861258383611d44565b611cf4565b6020880197506001820191505b848210156125bc576125af886125aa83611d6b565b611cf4565b6020880197506001820191505b848210156125e3576125d6886125d183611d92565b611cf4565b6020880197506001820191505b8482101561260a576125fd886125f883611db9565b611cf4565b6020880197506001820191505b84821015612631576126248861261f83611de0565b611cf4565b6020880197506001820191505b848210156126585761264b8861264683611e07565b611cf4565b6020880197506001820191505b8482101561267f576126728861266d83611e2e565b611cf4565b6020880197506001820191505b848210156126a6576126998861269483611e55565b611cf4565b6020880197506001820191505b848210156126cd576126c0886126bb83611e7c565b611cf4565b6020880197506001820191505b848210156126f4576126e7886126e283611ea3565b611cf4565b6020880197506001820191505b8482101561271b5761270e8861270983611eca565b611cf4565b6020880197506001820191505b84821015612742576127358861273083611ef1565b611cf4565b6020880197506001820191505b848210156127695761275c8861275783611f18565b611cf4565b6020880197506001820191505b84821015612790576127838861277e83611f3f565b611cf4565b6020880197506001820191505b848210156127b7576127aa886127a583611f66565b611cf4565b6020880197506001820191505b848210156127de576127d1886127cc83611f8d565b611cf4565b6020880197506001820191505b84821015612805576127f8886127f383611fb4565b611cf4565b6020880197506001820191505b8482101561282c5761281f8861281a83611fdb565b611cf4565b6020880197506001820191505b84821015612853576128468861284183612002565b611cf4565b6020880197506001820191505b8482101561287a5761286d8861286883612029565b611cf4565b6020880197506001820191505b848210156128a1576128948861288f83612050565b611cf4565b6020880197506001820191505b848210156128c8576128bb886128b683612077565b611cf4565b6020880197506001820191505b848210156128ef576128e2886128dd8361209e565b611cf4565b6020880197506001820191505b848210156129165761290988612904836120c5565b611cf4565b6020880197506001820191505b8482101561293d576129308861292b836120ec565b611cf4565b6020880197506001820191505b84821015612964576129578861295283612113565b611cf4565b6020880197506001820191505b8482101561298b5761297e886129798361213a565b611cf4565b6020880197506001820191505b848210156129b2576129a5886129a083612161565b611cf4565b6020880197506001820191505b848210156129d9576129cc886129c783612188565b611cf4565b6020880197506001820191505b84821015612a00576129f3886129ee836121af565b611cf4565b6020880197506001820191505b84821015612a2757612a1a88612a15836121d6565b611cf4565b6020880197506001820191505b505b8694505050505092915050565b60008190508160005260206000209050919050565b60008154612a5881611b28565b612a6281866117b7565b94506001821660008114612a7d5760018114612a8f57612ac2565b60ff1983168652602086019350612ac2565b612a9885612a36565b60005b83811015612aba57815481890152600182019150602081019050612a9b565b808801955050505b50505092915050565b612ad481611749565b82525050565b6000608082019050612aef6000830187611a70565b8181036020830152612b0181866121f0565b90508181036040830152612b158185612a4b565b9050612b246060830184612acb565b95945050505050565b7f43616c6c696e672067726163654d61726b730000000000000000000000000000600082015250565b6000612b636012836117b7565b9150612b6e82612b2d565b602082019050919050565b6000604082019050612b8e6000830184611a70565b8181036020830152612b9f81612b56565b905092915050565b600081905092915050565b6000612bbd826117ac565b612bc78185612ba7565b9350612bd78185602086016117c8565b80840191505092915050565b7f2300000000000000000000000000000000000000000000000000000000000000600082015250565b6000612c19600183612ba7565b9150612c2482612be3565b600182019050919050565b6000612c3b8284612bb2565b9150612c4682612c0c565b915081905092915050565b6000612c5c82611749565b91507fffffffffffffffffffffffffffffffffffffffffffffffffffffffffffffffff821415612c8f57612c8e611b5a565b5b60018201905091905056fea264697066735822122067375e0fc0403b119b4652c640a6812fbc545410e0f945510674877200db47b364736f6c63430008090033",
  "immutableReferences": {},
  "source": "pragma solidity >=0.4.2 <0.9.0;\n\n\nimport \"./stringUtils.sol\";\n\n/* \n\n\nTHIS CONTRACT CONTAINS REENTRANCY BUG. THE REENTRANT FUNCTIONS ARE graceMarks() and checktot().\n\n*/\n\ncontract Marks_Reent {\n    \n    using StringUtils for string;\n\n    mapping (address => uint8[]) marks;\n    mapping (address => string) grade;\n    mapping (address => uint256) totalmarks;\n    mapping(address => bool) UpdateStatus;\n\n    event MarksAdd(address addr, uint8[] mark, string g , uint256 avg);\n    event path (address student, string funcname);\n    \n\n    function insert(address addr, uint8[] memory m ) public returns(bool)\n    {\n            marks[addr] = m;\n\n            uint256 tot = 0;\n            uint8 flag = 0;\n            uint256 avg ;\n            for (uint8 i = 0 ;i<5;i++)\n            {\n                    tot+= m[i];\n\n                    if (flag == 0 && m[i]>46){\n\n                        flag = 1;\n                    }\n\n                    if ((flag==0 || flag == 1) && m[i]<20){\n                        flag = 2;\n\n                    }\n            }\n\n            avg = (tot * 4)/10;\n\n            totalmarks[addr] = tot;\n\n            if (flag== 1 && avg>=85){\n                grade[addr] = 'A*';\n            }\n            else if (flag==2 && avg<50)\n            {\n                grade[addr] = 'F';\n            }\n            else\n            {\n                grade[addr] = compgrade(avg);\n            }\n\n            UpdateStatus[addr] = false;\n            emit MarksAdd(addr,marks[addr],grade[addr],avg);\n            return true;\n    }\n\n    function compgrade(uint256 avg) public returns(string memory)\n    {\n        if (avg>=90) return 'A';\n        if (avg>=80) return 'B';\n        if (avg>=70) return 'C';\n        if (avg>=60) return 'D';\n        if (avg>=50) return 'E';\n        if (avg>=45) return 'Incomplete';\n    }\n\n    function getIndMark(address addr, uint8 idx) public view returns(uint8){\n\n         return marks[addr][idx];\n    }    \n\n    function getGrade(address addr) public view returns(string memory){\n\n         return grade[addr];\n    }\n\n    function getStatus(address addr) public view returns(bool){\n\n         return UpdateStatus[addr];\n    }\n\n    function graceMarks(address addr) public{\n\n        if (UpdateStatus[addr] == false){\n            \n            \n            string memory g = getGrade(addr);\n            \n            if (StringUtils.equal(g,\"A*\") || StringUtils.equal(g,\"A\") || StringUtils.equal(g,\"B\") || StringUtils.equal(g,\"F\")){\n\n                \n\n\n                }\n\n            else\n            {\n                if(StringUtils.equal(g,\"C\") || StringUtils.equal(g,\"D\") || StringUtils.equal(g,\"E\"))\n                {\n                    emit path(addr,'Calling checktot');\n                    checktot(addr);\n\n                }\n             \n\n            }\n\n        UpdateStatus[addr] = true;    \n\n        }\n    \n    }\n\n\n\n\n    function checktot(address addr) public returns(string memory message ){\n        \n            bool[4] memory flags = [true,true,true,true];                             //Flag Array for triggering the bug\n            uint8[] memory m = marks[addr];                                           \n                                                   \n            for (uint8 i = 0 ;i<5;i++) \n            {\n                if (flags[0] &&  10<=m[i] && m[i]<20) flags[0] = false;                 //Condition testing to trigger bug\n                else if (flags[1] &&  20<=m[i] && m[i]<30) flags[1] = false;            //Condition testing to trigger bug\n                else if (flags[2] &&  30<=m[i] && m[i]<40) flags[2] = false;            //Condition testing to trigger bug\n                else if (flags[3] &&  40<=m[i] && m[i]<50) flags[3] = false;            //Condition testing to trigger bug\n             \n                \n            }\n\n            totalmarks[addr] = totalmarks[addr]+10;\n             \n            if(!(flags[0]||flags[1]||flags[2]||flags[3]))\n            {\n                if (totalmarks[addr]<225)\n                {\n                    emit path(addr,'Calling graceMarks');\n                    graceMarks(addr);\n                }\n                else\n                {\n                    uint256 avg = (totalmarks[addr] * 4)/10;\n\n                }\n            }                                                                      \n            \n           \n\n   \n            uint256 avg = (totalmarks[addr] * 4)/10;\n            string  memory newg = compgrade(avg);\n           \n            grade[addr] = string(abi.encodePacked(newg,'#'));\n            \n            \n            //grade[addr] = compgrade(avg);\n\n\n        }   \n\n}",
  "sourcePath": "/home/harsh/Desktop/LMS/contracts/Marks_Reent.sol",
  "compiler": {
    "name": "solc",
    "version": "0.8.9+commit.e5eed63a.Emscripten.clang"
  },
  "schemaVersion": "3.4.8",
  "updatedAt": "2022-08-10T07:46:06.115Z",
  "networkType": "ethereum",
  "devdoc": {
    "kind": "dev",
    "methods": {},
    "version": 1
  },
  "userdoc": {
    "kind": "user",
    "methods": {},
    "version": 1
  }
}