{
  "contractName": "Marks_UCS",
  "abi": [
    {
      "anonymous": false,
      "inputs": [
        {
          "indexed": false,
          "internalType": "address",
          "name": "addr",
          "type": "address"
        },
        {
          "indexed": false,
          "internalType": "uint8[]",
          "name": "mark",
          "type": "uint8[]"
        },
        {
          "indexed": false,
          "internalType": "string",
          "name": "g",
          "type": "string"
        },
        {
          "indexed": false,
          "internalType": "uint256",
          "name": "avg",
          "type": "uint256"
        }
      ],
      "name": "MarksAdd",
      "type": "event"
    },
    {
      "anonymous": false,
      "inputs": [
        {
          "indexed": false,
          "internalType": "string",
          "name": "message",
          "type": "string"
        }
      ],
      "name": "Message",
      "type": "event"
    },
    {
      "inputs": [
        {
          "internalType": "address",
          "name": "addr",
          "type": "address"
        },
        {
          "internalType": "uint8[]",
          "name": "m",
          "type": "uint8[]"
        }
      ],
      "name": "insert",
      "outputs": [
        {
          "internalType": "bool",
          "name": "",
          "type": "bool"
        }
      ],
      "stateMutability": "nonpayable",
      "type": "function"
    },
    {
      "inputs": [
        {
          "internalType": "address",
          "name": "addr",
          "type": "address"
        },
        {
          "internalType": "uint8",
          "name": "idx",
          "type": "uint8"
        }
      ],
      "name": "getIndMark",
      "outputs": [
        {
          "internalType": "uint8",
          "name": "",
          "type": "uint8"
        }
      ],
      "stateMutability": "view",
      "type": "function",
      "constant": true
    },
    {
      "inputs": [
        {
          "internalType": "address",
          "name": "addr",
          "type": "address"
        }
      ],
      "name": "getGrade",
      "outputs": [
        {
          "internalType": "string",
          "name": "",
          "type": "string"
        }
      ],
      "stateMutability": "view",
      "type": "function",
      "constant": true
    },
    {
      "inputs": [
        {
          "internalType": "address",
          "name": "addr",
          "type": "address"
        }
      ],
      "name": "getStatus",
      "outputs": [
        {
          "internalType": "bool",
          "name": "",
          "type": "bool"
        }
      ],
      "stateMutability": "view",
      "type": "function",
      "constant": true
    },
    {
      "inputs": [
        {
          "internalType": "address",
          "name": "addr",
          "type": "address"
        }
      ],
      "name": "graceMarks",
      "outputs": [],
      "stateMutability": "nonpayable",
      "type": "function"
    }
  ],
  "bytecode": "0x608060405234801561001057600080fd5b50612a98806100206000396000f3fe608060405234801561001057600080fd5b50600436106100575760003560e01c8063095aec601461005c578063149cff491461008c57806330ccebb5146100a8578063313739a3146100d857806335151bf114610108575b600080fd5b61007660048036038101906100719190611501565b610138565b6040516100839190611550565b60405180910390f35b6100a660048036038101906100a1919061156b565b6101b5565b005b6100c260048036038101906100bd919061156b565b61049c565b6040516100cf91906115b3565b60405180910390f35b6100f260048036038101906100ed919061156b565b6104f2565b6040516100ff9190611667565b60405180910390f35b610122600480360381019061011d91906117d1565b6105c3565b60405161012f91906115b3565b60405180910390f35b60008060008473ffffffffffffffffffffffffffffffffffffffff1673ffffffffffffffffffffffffffffffffffffffff1681526020019081526020016000208260ff168154811061018d5761018c61182d565b5b90600052602060002090602091828204019190069054906101000a900460ff16905092915050565b60001515600360008373ffffffffffffffffffffffffffffffffffffffff1673ffffffffffffffffffffffffffffffffffffffff16815260200190815260200160002060009054906101000a900460ff1615151415610499576000610219826104f2565b905061025a816040518060400160405280600281526020017f412a000000000000000000000000000000000000000000000000000000000000815250610a20565b806102a0575061029f816040518060400160405280600181526020017f4100000000000000000000000000000000000000000000000000000000000000815250610a20565b5b806102e657506102e5816040518060400160405280600181526020017f4200000000000000000000000000000000000000000000000000000000000000815250610a20565b5b8061032c575061032b816040518060400160405280600181526020017f4600000000000000000000000000000000000000000000000000000000000000815250610a20565b5b1561033657610497565b6000610377826040518060400160405280600181526020017f4300000000000000000000000000000000000000000000000000000000000000815250610a20565b156103855760289050610426565b6103c4826040518060400160405280600181526020017f4400000000000000000000000000000000000000000000000000000000000000815250610a20565b156103d25760239050610425565b610411826040518060400160405280600181526020017f4500000000000000000000000000000000000000000000000000000000000000815250610a20565b1561041f57601e9050610424565b601990505b5b5b6001600360008573ffffffffffffffffffffffffffffffffffffffff1673ffffffffffffffffffffffffffffffffffffffff16815260200190815260200160002060006101000a81548160ff0219169083151502179055506104948360058361048f9190611895565b610a36565b50505b505b50565b6000600360008373ffffffffffffffffffffffffffffffffffffffff1673ffffffffffffffffffffffffffffffffffffffff16815260200190815260200160002060009054906101000a900460ff169050919050565b6060600160008373ffffffffffffffffffffffffffffffffffffffff1673ffffffffffffffffffffffffffffffffffffffff168152602001908152602001600020805461053e9061191e565b80601f016020809104026020016040519081016040528092919081815260200182805461056a9061191e565b80156105b75780601f1061058c576101008083540402835291602001916105b7565b820191906000526020600020905b81548152906001019060200180831161059a57829003601f168201915b50505050509050919050565b6000816000808573ffffffffffffffffffffffffffffffffffffffff1673ffffffffffffffffffffffffffffffffffffffff168152602001908152602001600020908051906020019061061792919061130c565b50600080600080600090505b60058160ff1610156106f857858160ff16815181106106455761064461182d565b5b602002602001015160ff168461065b9190611950565b935060008360ff161480156106905750602e868260ff16815181106106835761068261182d565b5b602002602001015160ff16115b1561069a57600192505b60008360ff1614806106af575060018360ff16145b80156106db57506014868260ff16815181106106ce576106cd61182d565b5b602002602001015160ff16105b156106e557600292505b80806106f0906119a6565b915050610623565b50600a6004846107089190611895565b61071291906119ff565b905082600260008873ffffffffffffffffffffffffffffffffffffffff1673ffffffffffffffffffffffffffffffffffffffff1681526020019081526020016000208190555060018260ff1614801561076c575060558110155b156107ff576040518060400160405280600281526020017f412a000000000000000000000000000000000000000000000000000000000000815250600160008873ffffffffffffffffffffffffffffffffffffffff1673ffffffffffffffffffffffffffffffffffffffff16815260200190815260200160002090805190602001906107f99291906113b3565b50610903565b60028260ff161480156108125750603281105b156108a5576040518060400160405280600181526020017f4600000000000000000000000000000000000000000000000000000000000000815250600160008873ffffffffffffffffffffffffffffffffffffffff1673ffffffffffffffffffffffffffffffffffffffff168152602001908152602001600020908051906020019061089f9291906113b3565b50610902565b6108ae81610f8a565b600160008873ffffffffffffffffffffffffffffffffffffffff1673ffffffffffffffffffffffffffffffffffffffff16815260200190815260200160002090805190602001906109009291906113b3565b505b5b6000600360008873ffffffffffffffffffffffffffffffffffffffff1673ffffffffffffffffffffffffffffffffffffffff16815260200190815260200160002060006101000a81548160ff0219169083151502179055507f51bb80e7da3dd69c7b624d72023da84055fc253f522f59095dcd3bdf8a1deb87866000808973ffffffffffffffffffffffffffffffffffffffff1673ffffffffffffffffffffffffffffffffffffffff168152602001908152602001600020600160008a73ffffffffffffffffffffffffffffffffffffffff1673ffffffffffffffffffffffffffffffffffffffff16815260200190815260200160002084604051610a0b9493929190612856565b60405180910390a16001935050505092915050565b600080610a2d8484611130565b14905092915050565b6000600f600260008573ffffffffffffffffffffffffffffffffffffffff1673ffffffffffffffffffffffffffffffffffffffff1681526020019081526020016000205483610a8591906128a9565b1115610a9057610f7f565b60006040518060800160405280600115151515815260200160011515151581526020016001151515158152602001600115151515815250905060008060008673ffffffffffffffffffffffffffffffffffffffff1673ffffffffffffffffffffffffffffffffffffffff168152602001908152602001600020805480602002602001604051908101604052809291908181526020018280548015610b7957602002820191906000526020600020906000905b82829054906101000a900460ff1660ff1681526020019060010190602082600001049283019260010382029150808411610b425790505b5050505050905060005b60058160ff161015610e255782600060048110610ba357610ba261182d565b5b60200201518015610bd55750818160ff1681518110610bc557610bc461182d565b5b602002602001015160ff16600a11155b8015610c0157506014828260ff1681518110610bf457610bf361182d565b5b602002602001015160ff16105b15610c3057600083600060048110610c1c57610c1b61182d565b5b602002019015159081151581525050610e12565b82600160048110610c4457610c4361182d565b5b60200201518015610c765750818160ff1681518110610c6657610c6561182d565b5b602002602001015160ff16601411155b8015610ca25750601e828260ff1681518110610c9557610c9461182d565b5b602002602001015160ff16105b15610cd157600083600160048110610cbd57610cbc61182d565b5b602002019015159081151581525050610e11565b82600260048110610ce557610ce461182d565b5b60200201518015610d175750818160ff1681518110610d0757610d0661182d565b5b602002602001015160ff16601e11155b8015610d4357506028828260ff1681518110610d3657610d3561182d565b5b602002602001015160ff16105b15610d7257600083600260048110610d5e57610d5d61182d565b5b602002019015159081151581525050610e10565b82600360048110610d8657610d8561182d565b5b60200201518015610db85750818160ff1681518110610da857610da761182d565b5b602002602001015160ff16602811155b8015610de457506032828260ff1681518110610dd757610dd661182d565b5b602002602001015160ff16105b15610e0f57600083600360048110610dff57610dfe61182d565b5b6020020190151590811515815250505b5b5b5b8080610e1d906119a6565b915050610b83565b5081600060048110610e3a57610e3961182d565b5b602002015180610e5f575081600160048110610e5957610e5861182d565b5b60200201515b80610e7f575081600260048110610e7957610e7861182d565b5b60200201515b80610e9f575081600360048110610e9957610e9861182d565b5b60200201515b610ee3577f51a7f65c6325882f237d4aeb43228179cfad48b868511d508e24b4437a819137604051610ed09061294f565b60405180910390a1600092505050610f84565b6000600a600486610ef49190611895565b610efe91906119ff565b9050610f0981610f8a565b604051602001610f1991906129f7565b604051602081830303815290604052600160008873ffffffffffffffffffffffffffffffffffffffff1673ffffffffffffffffffffffffffffffffffffffff1681526020019081526020016000209080519060200190610f7a9291906113b3565b505050505b600190505b92915050565b6060605a8210610fd1576040518060400160405280600181526020017f4100000000000000000000000000000000000000000000000000000000000000815250905061112b565b60508210611016576040518060400160405280600181526020017f4200000000000000000000000000000000000000000000000000000000000000815250905061112b565b6046821061105b576040518060400160405280600181526020017f4300000000000000000000000000000000000000000000000000000000000000815250905061112b565b603c82106110a0576040518060400160405280600181526020017f4400000000000000000000000000000000000000000000000000000000000000815250905061112b565b603282106110e5576040518060400160405280600181526020017f4500000000000000000000000000000000000000000000000000000000000000815250905061112b565b602d821061112a576040518060400160405280600a81526020017f496e636f6d706c65746500000000000000000000000000000000000000000000815250905061112b565b5b919050565b6000808390506000839050600082519050808251101561114f57815190505b60005b818110156112b25782818151811061116d5761116c61182d565b5b602001015160f81c60f81b7effffffffffffffffffffffffffffffffffffffffffffffffffffffffffffff19168482815181106111ad576111ac61182d565b5b602001015160f81c60f81b7effffffffffffffffffffffffffffffffffffffffffffffffffffffffffffff1916101561120c577fffffffffffffffffffffffffffffffffffffffffffffffffffffffffffffffff945050505050611306565b82818151811061121f5761121e61182d565b5b602001015160f81c60f81b7effffffffffffffffffffffffffffffffffffffffffffffffffffffffffffff191684828151811061125f5761125e61182d565b5b602001015160f81c60f81b7effffffffffffffffffffffffffffffffffffffffffffffffffffffffffffff1916111561129f576001945050505050611306565b80806112aa90612a19565b915050611152565b508151835110156112e8577fffffffffffffffffffffffffffffffffffffffffffffffffffffffffffffffff9350505050611306565b8151835111156112fe5760019350505050611306565b600093505050505b92915050565b82805482825590600052602060002090601f016020900481019282156113a25791602002820160005b8382111561137357835183826101000a81548160ff021916908360ff1602179055509260200192600101602081600001049283019260010302611335565b80156113a05782816101000a81549060ff0219169055600101602081600001049283019260010302611373565b505b5090506113af9190611439565b5090565b8280546113bf9061191e565b90600052602060002090601f0160209004810192826113e15760008555611428565b82601f106113fa57805160ff1916838001178555611428565b82800160010185558215611428579182015b8281111561142757825182559160200191906001019061140c565b5b5090506114359190611439565b5090565b5b8082111561145257600081600090555060010161143a565b5090565b6000604051905090565b600080fd5b600080fd5b600073ffffffffffffffffffffffffffffffffffffffff82169050919050565b60006114958261146a565b9050919050565b6114a58161148a565b81146114b057600080fd5b50565b6000813590506114c28161149c565b92915050565b600060ff82169050919050565b6114de816114c8565b81146114e957600080fd5b50565b6000813590506114fb816114d5565b92915050565b6000806040838503121561151857611517611460565b5b6000611526858286016114b3565b9250506020611537858286016114ec565b9150509250929050565b61154a816114c8565b82525050565b60006020820190506115656000830184611541565b92915050565b60006020828403121561158157611580611460565b5b600061158f848285016114b3565b91505092915050565b60008115159050919050565b6115ad81611598565b82525050565b60006020820190506115c860008301846115a4565b92915050565b600081519050919050565b600082825260208201905092915050565b60005b838110156116085780820151818401526020810190506115ed565b83811115611617576000848401525b50505050565b6000601f19601f8301169050919050565b6000611639826115ce565b61164381856115d9565b93506116538185602086016115ea565b61165c8161161d565b840191505092915050565b60006020820190508181036000830152611681818461162e565b905092915050565b600080fd5b7f4e487b7100000000000000000000000000000000000000000000000000000000600052604160045260246000fd5b6116c68261161d565b810181811067ffffffffffffffff821117156116e5576116e461168e565b5b80604052505050565b60006116f8611456565b905061170482826116bd565b919050565b600067ffffffffffffffff8211156117245761172361168e565b5b602082029050602081019050919050565b600080fd5b600061174d61174884611709565b6116ee565b905080838252602082019050602084028301858111156117705761176f611735565b5b835b81811015611799578061178588826114ec565b845260208401935050602081019050611772565b5050509392505050565b600082601f8301126117b8576117b7611689565b5b81356117c884826020860161173a565b91505092915050565b600080604083850312156117e8576117e7611460565b5b60006117f6858286016114b3565b925050602083013567ffffffffffffffff81111561181757611816611465565b5b611823858286016117a3565b9150509250929050565b7f4e487b7100000000000000000000000000000000000000000000000000000000600052603260045260246000fd5b6000819050919050565b7f4e487b7100000000000000000000000000000000000000000000000000000000600052601160045260246000fd5b60006118a08261185c565b91506118ab8361185c565b9250817fffffffffffffffffffffffffffffffffffffffffffffffffffffffffffffffff04831182151516156118e4576118e3611866565b5b828202905092915050565b7f4e487b7100000000000000000000000000000000000000000000000000000000600052602260045260246000fd5b6000600282049050600182168061193657607f821691505b6020821081141561194a576119496118ef565b5b50919050565b600061195b8261185c565b91506119668361185c565b9250827fffffffffffffffffffffffffffffffffffffffffffffffffffffffffffffffff0382111561199b5761199a611866565b5b828201905092915050565b60006119b1826114c8565b915060ff8214156119c5576119c4611866565b5b600182019050919050565b7f4e487b7100000000000000000000000000000000000000000000000000000000600052601260045260246000fd5b6000611a0a8261185c565b9150611a158361185c565b925082611a2557611a246119d0565b5b828204905092915050565b611a398161148a565b82525050565b600081549050919050565b600082825260208201905092915050565b60008190508160005260206000209050919050565b611a79816114c8565b82525050565b60008160001c9050919050565b600060ff82169050919050565b6000611aac611aa783611a7f565b611a8c565b9050919050565b60008160081c9050919050565b6000611ad3611ace83611ab3565b611a8c565b9050919050565b60008160101c9050919050565b6000611afa611af583611ada565b611a8c565b9050919050565b60008160181c9050919050565b6000611b21611b1c83611b01565b611a8c565b9050919050565b60008160201c9050919050565b6000611b48611b4383611b28565b611a8c565b9050919050565b60008160281c9050919050565b6000611b6f611b6a83611b4f565b611a8c565b9050919050565b60008160301c9050919050565b6000611b96611b9183611b76565b611a8c565b9050919050565b60008160381c9050919050565b6000611bbd611bb883611b9d565b611a8c565b9050919050565b60008160401c9050919050565b6000611be4611bdf83611bc4565b611a8c565b9050919050565b60008160481c9050919050565b6000611c0b611c0683611beb565b611a8c565b9050919050565b60008160501c9050919050565b6000611c32611c2d83611c12565b611a8c565b9050919050565b60008160581c9050919050565b6000611c59611c5483611c39565b611a8c565b9050919050565b60008160601c9050919050565b6000611c80611c7b83611c60565b611a8c565b9050919050565b60008160681c9050919050565b6000611ca7611ca283611c87565b611a8c565b9050919050565b60008160701c9050919050565b6000611cce611cc983611cae565b611a8c565b9050919050565b60008160781c9050919050565b6000611cf5611cf083611cd5565b611a8c565b9050919050565b60008160801c9050919050565b6000611d1c611d1783611cfc565b611a8c565b9050919050565b60008160881c9050919050565b6000611d43611d3e83611d23565b611a8c565b9050919050565b60008160901c9050919050565b6000611d6a611d6583611d4a565b611a8c565b9050919050565b60008160981c9050919050565b6000611d91611d8c83611d71565b611a8c565b9050919050565b60008160a01c9050919050565b6000611db8611db383611d98565b611a8c565b9050919050565b60008160a81c9050919050565b6000611ddf611dda83611dbf565b611a8c565b9050919050565b60008160b01c9050919050565b6000611e06611e0183611de6565b611a8c565b9050919050565b60008160b81c9050919050565b6000611e2d611e2883611e0d565b611a8c565b9050919050565b60008160c01c9050919050565b6000611e54611e4f83611e34565b611a8c565b9050919050565b60008160c81c9050919050565b6000611e7b611e7683611e5b565b611a8c565b9050919050565b60008160d01c9050919050565b6000611ea2611e9d83611e82565b611a8c565b9050919050565b60008160d81c9050919050565b6000611ec9611ec483611ea9565b611a8c565b9050919050565b60008160e01c9050919050565b6000611ef0611eeb83611ed0565b611a8c565b9050919050565b60008160e81c9050919050565b6000611f17611f1283611ef7565b611a8c565b9050919050565b60008160f01c9050919050565b6000611f3e611f3983611f1e565b611a8c565b9050919050565b60008160f81c9050919050565b6000611f65611f6083611f45565b611a8c565b9050919050565b6000611f7782611a3f565b611f818185611a4a565b935083611f8d84611a5b565b60006001156122ba575b836001602003820110156122b9578154611fb988611fb483611a99565b611a70565b602088019750611fd188611fcc83611ac0565b611a70565b602088019750611fe988611fe483611ae7565b611a70565b60208801975061200188611ffc83611b0e565b611a70565b6020880197506120198861201483611b35565b611a70565b6020880197506120318861202c83611b5c565b611a70565b6020880197506120498861204483611b83565b611a70565b6020880197506120618861205c83611baa565b611a70565b6020880197506120798861207483611bd1565b611a70565b6020880197506120918861208c83611bf8565b611a70565b6020880197506120a9886120a483611c1f565b611a70565b6020880197506120c1886120bc83611c46565b611a70565b6020880197506120d9886120d483611c6d565b611a70565b6020880197506120f1886120ec83611c94565b611a70565b6020880197506121098861210483611cbb565b611a70565b6020880197506121218861211c83611ce2565b611a70565b6020880197506121398861213483611d09565b611a70565b6020880197506121518861214c83611d30565b611a70565b6020880197506121698861216483611d57565b611a70565b6020880197506121818861217c83611d7e565b611a70565b6020880197506121998861219483611da5565b611a70565b6020880197506121b1886121ac83611dcc565b611a70565b6020880197506121c9886121c483611df3565b611a70565b6020880197506121e1886121dc83611e1a565b611a70565b6020880197506121f9886121f483611e41565b611a70565b6020880197506122118861220c83611e68565b611a70565b6020880197506122298861222483611e8f565b611a70565b6020880197506122418861223c83611eb6565b611a70565b6020880197506122598861225483611edd565b611a70565b6020880197506122718861226c83611f04565b611a70565b6020880197506122898861228483611f2b565b611a70565b6020880197506122a18861229c83611f52565b611a70565b60208801975060018301925050602081019050611f97565b5b6001156127a5578154848210156122ea576122dd886122d883611a99565b611a70565b6020880197506001820191505b8482101561231157612304886122ff83611ac0565b611a70565b6020880197506001820191505b848210156123385761232b8861232683611ae7565b611a70565b6020880197506001820191505b8482101561235f576123528861234d83611b0e565b611a70565b6020880197506001820191505b84821015612386576123798861237483611b35565b611a70565b6020880197506001820191505b848210156123ad576123a08861239b83611b5c565b611a70565b6020880197506001820191505b848210156123d4576123c7886123c283611b83565b611a70565b6020880197506001820191505b848210156123fb576123ee886123e983611baa565b611a70565b6020880197506001820191505b84821015612422576124158861241083611bd1565b611a70565b6020880197506001820191505b848210156124495761243c8861243783611bf8565b611a70565b6020880197506001820191505b84821015612470576124638861245e83611c1f565b611a70565b6020880197506001820191505b848210156124975761248a8861248583611c46565b611a70565b6020880197506001820191505b848210156124be576124b1886124ac83611c6d565b611a70565b6020880197506001820191505b848210156124e5576124d8886124d383611c94565b611a70565b6020880197506001820191505b8482101561250c576124ff886124fa83611cbb565b611a70565b6020880197506001820191505b84821015612533576125268861252183611ce2565b611a70565b6020880197506001820191505b8482101561255a5761254d8861254883611d09565b611a70565b6020880197506001820191505b84821015612581576125748861256f83611d30565b611a70565b6020880197506001820191505b848210156125a85761259b8861259683611d57565b611a70565b6020880197506001820191505b848210156125cf576125c2886125bd83611d7e565b611a70565b6020880197506001820191505b848210156125f6576125e9886125e483611da5565b611a70565b6020880197506001820191505b8482101561261d576126108861260b83611dcc565b611a70565b6020880197506001820191505b84821015612644576126378861263283611df3565b611a70565b6020880197506001820191505b8482101561266b5761265e8861265983611e1a565b611a70565b6020880197506001820191505b84821015612692576126858861268083611e41565b611a70565b6020880197506001820191505b848210156126b9576126ac886126a783611e68565b611a70565b6020880197506001820191505b848210156126e0576126d3886126ce83611e8f565b611a70565b6020880197506001820191505b84821015612707576126fa886126f583611eb6565b611a70565b6020880197506001820191505b8482101561272e576127218861271c83611edd565b611a70565b6020880197506001820191505b84821015612755576127488861274383611f04565b611a70565b6020880197506001820191505b8482101561277c5761276f8861276a83611f2b565b611a70565b6020880197506001820191505b848210156127a3576127968861279183611f52565b611a70565b6020880197506001820191505b505b8694505050505092915050565b60008190508160005260206000209050919050565b600081546127d48161191e565b6127de81866115d9565b945060018216600081146127f9576001811461280b5761283e565b60ff198316865260208601935061283e565b612814856127b2565b60005b8381101561283657815481890152600182019150602081019050612817565b808801955050505b50505092915050565b6128508161185c565b82525050565b600060808201905061286b6000830187611a30565b818103602083015261287d8186611f6c565b9050818103604083015261289181856127c7565b90506128a06060830184612847565b95945050505050565b60006128b48261185c565b91506128bf8361185c565b9250828210156128d2576128d1611866565b5b828203905092915050565b7f427567205472696767657265642121212c20456c696769626c6520666f72204760008201527f72616465204368616e6765000000000000000000000000000000000000000000602082015250565b6000612939602b836115d9565b9150612944826128dd565b604082019050919050565b600060208201905081810360008301526129688161292c565b9050919050565b600081905092915050565b6000612985826115ce565b61298f818561296f565b935061299f8185602086016115ea565b80840191505092915050565b7f2300000000000000000000000000000000000000000000000000000000000000600082015250565b60006129e160018361296f565b91506129ec826129ab565b600182019050919050565b6000612a03828461297a565b9150612a0e826129d4565b915081905092915050565b6000612a248261185c565b91507fffffffffffffffffffffffffffffffffffffffffffffffffffffffffffffffff821415612a5757612a56611866565b5b60018201905091905056fea26469706673582212204bd19e341ea2b44f881bb4f91f8ada70b8d67f6336f623b993b3b721d55aad5d64736f6c63430008090033",
  "immutableReferences": {},
  "source": "pragma solidity >=0.4.2 <0.9.0;\n\n\nimport \"./stringUtils.sol\";\n\n/*\n\n\nTHIS CONTRACT CONTAINS UNCHECKED RETURN VALUE FROM A FUNCTION BUG. COONTRACT BEHAVIOR IS SUCH THAT THERE IS A FUNCTION CALL BASED ON A CONDITOION, \nIRRESPECTIVE OF THE RETURN VALUE OF THE CALLED FUNCTION, CONDITION GETS UPDATED, SOMETIMES LEADING TO BUGGY/UNINTENDED BEHAVIOR.\n\n\n*/\n\ncontract Marks_UCS {\n    \n    using StringUtils for string;\n\n    mapping (address => uint8[]) marks;\n    mapping (address => string) grade;\n    mapping (address => uint256) totalmarks;\n    mapping(address => bool) UpdateStatus;\n\n    event MarksAdd(address addr, uint8[] mark, string g , uint256 avg);\n    event Message(string message);\n    \n\n    function insert(address addr, uint8[] memory m ) public returns(bool)\n    {\n            marks[addr] = m;\n\n            uint256 tot = 0;\n            uint8 flag = 0;\n            uint256 avg ;\n            for (uint8 i = 0 ;i<5;i++)\n            {\n                    tot+= m[i];\n\n                    if (flag == 0 && m[i]>46){\n\n                        flag = 1;\n                    }\n\n                    if ((flag==0 || flag == 1) && m[i]<20){\n                        flag = 2;\n\n                    }\n            }\n\n            avg = (tot * 4)/10;\n\n            totalmarks[addr] = tot;\n\n            if (flag== 1 && avg>=85){\n                grade[addr] = 'A*';\n            }\n            else if (flag==2 && avg<50)\n            {\n                grade[addr] = 'F';\n            }\n            else\n            {   \n        \n                grade[addr] = compgrade(avg);\n            }\n\n            UpdateStatus[addr] = false;\n            emit MarksAdd(addr,marks[addr],grade[addr],avg);\n            return true;\n    }\n\n    function compgrade(uint256 avg) internal returns(string memory)\n    {\n        if (avg>=90) return 'A';\n        if (avg>=80) return 'B';\n        if (avg>=70) return 'C';\n        if (avg>=60) return 'D';\n        if (avg>=50) return 'E';\n        if (avg>=45) return 'Incomplete';\n    }\n\n    function getIndMark(address addr, uint8 idx) public view returns(uint8){\n\n         return marks[addr][idx];\n    }    \n\n    function getGrade(address addr) public view returns(string memory){\n\n         return grade[addr];\n    }\n\n    function getStatus(address addr) public view returns(bool){\n\n         return UpdateStatus[addr];\n    }\n\n    function graceMarks(address addr) public{\n\n        if (UpdateStatus[addr] == false){\n            \n            \n            string memory g = getGrade(addr);\n            \n\n            if (StringUtils.equal(g,\"A*\") || StringUtils.equal(g,\"A\") || StringUtils.equal(g,\"B\") || StringUtils.equal(g,\"F\")){\n\n               \n\n\n            }\n\n            else\n            {\n                uint256 req = 0;\n                if(StringUtils.equal(g,\"C\"))\n                {\n                    req = 40;\n\n                }\n                else if (StringUtils.equal(g,\"D\"))\n                {\n                    req = 35;\n\n                }\n                else if (StringUtils.equal(g,\"E\"))\n                {\n                    req = 30;\n\n                }\n                else\n                {\n                    req = 25;\n\n                }\n\n                \n                UpdateStatus[addr] = true;   // Without Checking whether below function call's return value, condition is updated (Buggy Line)\n                checktot(addr,req*5);\n\n            }\n\n            \n\n        }\n    \n    }\n\n\n    function checktot(address addr, uint256 req) internal returns(bool status ){\n        if (req - totalmarks[addr]>15)\n        {\n           \n        }\n\n        else\n        {\n            bool[4] memory flags = [true,true,true,true];                             //Flag Array for triggering the bug\n            uint8[] memory m = marks[addr];                                           \n                                                   \n            for (uint8 i = 0 ;i<5;i++) \n            {\n                if (flags[0] &&  10<=m[i] && m[i]<20) flags[0] = false;                 //Condition testing to trigger bug\n                else if (flags[1] &&  20<=m[i] && m[i]<30) flags[1] = false;            //Condition testing to trigger bug\n                else if (flags[2] &&  30<=m[i] && m[i]<40) flags[2] = false;            //Condition testing to trigger bug\n                else if (flags[3] &&  40<=m[i] && m[i]<50) flags[3] = false;            //Condition testing to trigger bug\n             \n                \n            }\n\n           \n            \n             if (!(flags[0]||flags[1]||flags[2]||flags[3]))\n             {\n                 emit Message('Bug Triggered!!!, Eligible for Grade Change');\n                 return false;\n             }\n\n             else{\n\n                uint256 avg = (req * 4)/10;\n                grade[addr] = string(abi.encodePacked(compgrade(avg),'#'));\n                //grade[addr] = compgrade(avg);    \n             }\n\n        }\n\n        return true;\n\n\n    }    \n\n\n \n    }\n    ",
  "sourcePath": "/home/harsh/Desktop/LMS/contracts/Marks_UCS.sol",
  "compiler": {
    "name": "solc",
    "version": "0.8.9+commit.e5eed63a.Emscripten.clang"
  },
  "schemaVersion": "3.4.8",
  "updatedAt": "2022-08-16T13:05:44.461Z",
  "networkType": "ethereum",
  "devdoc": {
    "kind": "dev",
    "methods": {},
    "version": 1
  },
  "userdoc": {
    "kind": "user",
    "methods": {},
    "version": 1
  }
}