{
  "contractName": "MarksOg",
  "abi": [
    {
      "anonymous": false,
      "inputs": [
        {
          "indexed": false,
          "internalType": "address",
          "name": "addr",
          "type": "address"
        },
        {
          "indexed": false,
          "internalType": "uint8[]",
          "name": "mark",
          "type": "uint8[]"
        },
        {
          "indexed": false,
          "internalType": "string",
          "name": "g",
          "type": "string"
        },
        {
          "indexed": false,
          "internalType": "uint256",
          "name": "avg",
          "type": "uint256"
        }
      ],
      "name": "MarksAdd",
      "type": "event"
    },
    {
      "anonymous": false,
      "inputs": [
        {
          "indexed": false,
          "internalType": "string",
          "name": "m",
          "type": "string"
        }
      ],
      "name": "Progress",
      "type": "event"
    },
    {
      "anonymous": false,
      "inputs": [
        {
          "indexed": false,
          "internalType": "bytes32",
          "name": "e",
          "type": "bytes32"
        }
      ],
      "name": "encoding",
      "type": "event"
    },
    {
      "inputs": [
        {
          "internalType": "address",
          "name": "addr",
          "type": "address"
        },
        {
          "internalType": "uint8[]",
          "name": "m",
          "type": "uint8[]"
        }
      ],
      "name": "insert",
      "outputs": [
        {
          "internalType": "bool",
          "name": "",
          "type": "bool"
        }
      ],
      "stateMutability": "nonpayable",
      "type": "function"
    },
    {
      "inputs": [
        {
          "internalType": "uint256",
          "name": "avg",
          "type": "uint256"
        }
      ],
      "name": "compgrade",
      "outputs": [
        {
          "internalType": "string",
          "name": "",
          "type": "string"
        }
      ],
      "stateMutability": "nonpayable",
      "type": "function"
    },
    {
      "inputs": [
        {
          "internalType": "address",
          "name": "addr",
          "type": "address"
        },
        {
          "internalType": "uint8",
          "name": "idx",
          "type": "uint8"
        }
      ],
      "name": "getIndMark",
      "outputs": [
        {
          "internalType": "uint8",
          "name": "",
          "type": "uint8"
        }
      ],
      "stateMutability": "view",
      "type": "function",
      "constant": true
    },
    {
      "inputs": [
        {
          "internalType": "address",
          "name": "addr",
          "type": "address"
        }
      ],
      "name": "getGrade",
      "outputs": [
        {
          "internalType": "string",
          "name": "",
          "type": "string"
        }
      ],
      "stateMutability": "view",
      "type": "function",
      "constant": true
    },
    {
      "inputs": [
        {
          "internalType": "address",
          "name": "addr",
          "type": "address"
        }
      ],
      "name": "graceMarks",
      "outputs": [
        {
          "internalType": "string",
          "name": "message",
          "type": "string"
        }
      ],
      "stateMutability": "nonpayable",
      "type": "function"
    },
    {
      "inputs": [
        {
          "internalType": "address",
          "name": "addr",
          "type": "address"
        },
        {
          "internalType": "uint256",
          "name": "req",
          "type": "uint256"
        }
      ],
      "name": "checktot",
      "outputs": [],
      "stateMutability": "nonpayable",
      "type": "function"
    }
  ],
  "bytecode": "0x608060405234801561001057600080fd5b5061251f806100206000396000f3fe608060405234801561001057600080fd5b50600436106100625760003560e01c8063095aec6014610067578063149cff49146100975780631fb71f88146100c7578063313739a3146100f757806335151bf114610127578063b98eb30714610157575b600080fd5b610081600480360381019061007c9190610f81565b610173565b60405161008e9190610fd0565b60405180910390f35b6100b160048036038101906100ac9190610feb565b6101f0565b6040516100be91906110b1565b60405180910390f35b6100e160048036038101906100dc9190611109565b610428565b6040516100ee91906110b1565b60405180910390f35b610111600480360381019061010c9190610feb565b6105ce565b60405161011e91906110b1565b60405180910390f35b610141600480360381019061013c919061127e565b61069f565b60405161014e91906112f5565b60405180910390f35b610171600480360381019061016c9190611310565b610aa4565b005b60008060008473ffffffffffffffffffffffffffffffffffffffff1673ffffffffffffffffffffffffffffffffffffffff1681526020019081526020016000208260ff16815481106101c8576101c7611350565b5b90600052602060002090602091828204019190069054906101000a900460ff16905092915050565b606060006101fd836105ce565b905061023e816040518060400160405280600281526020017f412a000000000000000000000000000000000000000000000000000000000000815250610b9a565b806102845750610283816040518060400160405280600181526020017f4100000000000000000000000000000000000000000000000000000000000000815250610b9a565b5b806102ca57506102c9816040518060400160405280600181526020017f4200000000000000000000000000000000000000000000000000000000000000815250610b9a565b5b80610310575061030f816040518060400160405280600181526020017f4600000000000000000000000000000000000000000000000000000000000000815250610b9a565b5b1561031a57610422565b600061035b826040518060400160405280600181526020017f4300000000000000000000000000000000000000000000000000000000000000815250610b9a565b15610369576028905061040a565b6103a8826040518060400160405280600181526020017f4400000000000000000000000000000000000000000000000000000000000000815250610b9a565b156103b65760239050610409565b6103f5826040518060400160405280600181526020017f4500000000000000000000000000000000000000000000000000000000000000815250610b9a565b1561040357601e9050610408565b601990505b5b5b6104208460058361041b91906113ae565b610aa4565b505b50919050565b6060605a821061046f576040518060400160405280600181526020017f410000000000000000000000000000000000000000000000000000000000000081525090506105c9565b605082106104b4576040518060400160405280600181526020017f420000000000000000000000000000000000000000000000000000000000000081525090506105c9565b604682106104f9576040518060400160405280600181526020017f430000000000000000000000000000000000000000000000000000000000000081525090506105c9565b603c821061053e576040518060400160405280600181526020017f440000000000000000000000000000000000000000000000000000000000000081525090506105c9565b60328210610583576040518060400160405280600181526020017f450000000000000000000000000000000000000000000000000000000000000081525090506105c9565b602d82106105c8576040518060400160405280600a81526020017f496e636f6d706c6574650000000000000000000000000000000000000000000081525090506105c9565b5b919050565b6060600160008373ffffffffffffffffffffffffffffffffffffffff1673ffffffffffffffffffffffffffffffffffffffff168152602001908152602001600020805461061a90611437565b80601f016020809104026020016040519081016040528092919081815260200182805461064690611437565b80156106935780601f1061066857610100808354040283529160200191610693565b820191906000526020600020905b81548152906001019060200180831161067657829003601f168201915b50505050509050919050565b6000816000808573ffffffffffffffffffffffffffffffffffffffff1673ffffffffffffffffffffffffffffffffffffffff16815260200190815260200160002090805190602001906106f3929190610d8c565b50600080600080600090505b60058160ff1610156107d457858160ff168151811061072157610720611350565b5b602002602001015160ff16846107379190611469565b935060008360ff1614801561076c5750602e868260ff168151811061075f5761075e611350565b5b602002602001015160ff16115b1561077657600192505b60008360ff16148061078b575060018360ff16145b80156107b757506014868260ff16815181106107aa576107a9611350565b5b602002602001015160ff16105b156107c157600292505b80806107cc906114bf565b9150506106ff565b50600a6004846107e491906113ae565b6107ee9190611518565b905082600260008873ffffffffffffffffffffffffffffffffffffffff1673ffffffffffffffffffffffffffffffffffffffff1681526020019081526020016000208190555060018260ff16148015610848575060558110155b156108db576040518060400160405280600281526020017f412a000000000000000000000000000000000000000000000000000000000000815250600160008873ffffffffffffffffffffffffffffffffffffffff1673ffffffffffffffffffffffffffffffffffffffff16815260200190815260200160002090805190602001906108d5929190610e33565b506109df565b60028260ff161480156108ee5750603281105b15610981576040518060400160405280600181526020017f4600000000000000000000000000000000000000000000000000000000000000815250600160008873ffffffffffffffffffffffffffffffffffffffff1673ffffffffffffffffffffffffffffffffffffffff168152602001908152602001600020908051906020019061097b929190610e33565b506109de565b61098a81610428565b600160008873ffffffffffffffffffffffffffffffffffffffff1673ffffffffffffffffffffffffffffffffffffffff16815260200190815260200160002090805190602001906109dc929190610e33565b505b5b7f51bb80e7da3dd69c7b624d72023da84055fc253f522f59095dcd3bdf8a1deb87866000808973ffffffffffffffffffffffffffffffffffffffff1673ffffffffffffffffffffffffffffffffffffffff168152602001908152602001600020600160008a73ffffffffffffffffffffffffffffffffffffffff1673ffffffffffffffffffffffffffffffffffffffff16815260200190815260200160002084604051610a8f949392919061236f565b60405180910390a16001935050505092915050565b600f600260008473ffffffffffffffffffffffffffffffffffffffff1673ffffffffffffffffffffffffffffffffffffffff1681526020019081526020016000205482610af191906123c2565b1115610afc57610b96565b6000600a600483610b0d91906113ae565b610b179190611518565b9050610b2281610428565b604051602001610b32919061247e565b604051602081830303815290604052600160008573ffffffffffffffffffffffffffffffffffffffff1673ffffffffffffffffffffffffffffffffffffffff1681526020019081526020016000209080519060200190610b93929190610e33565b50505b5050565b600080610ba78484610bb0565b14905092915050565b60008083905060008390506000825190508082511015610bcf57815190505b60005b81811015610d3257828181518110610bed57610bec611350565b5b602001015160f81c60f81b7effffffffffffffffffffffffffffffffffffffffffffffffffffffffffffff1916848281518110610c2d57610c2c611350565b5b602001015160f81c60f81b7effffffffffffffffffffffffffffffffffffffffffffffffffffffffffffff19161015610c8c577fffffffffffffffffffffffffffffffffffffffffffffffffffffffffffffffff945050505050610d86565b828181518110610c9f57610c9e611350565b5b602001015160f81c60f81b7effffffffffffffffffffffffffffffffffffffffffffffffffffffffffffff1916848281518110610cdf57610cde611350565b5b602001015160f81c60f81b7effffffffffffffffffffffffffffffffffffffffffffffffffffffffffffff19161115610d1f576001945050505050610d86565b8080610d2a906124a0565b915050610bd2565b50815183511015610d68577fffffffffffffffffffffffffffffffffffffffffffffffffffffffffffffffff9350505050610d86565b815183511115610d7e5760019350505050610d86565b600093505050505b92915050565b82805482825590600052602060002090601f01602090048101928215610e225791602002820160005b83821115610df357835183826101000a81548160ff021916908360ff1602179055509260200192600101602081600001049283019260010302610db5565b8015610e205782816101000a81549060ff0219169055600101602081600001049283019260010302610df3565b505b509050610e2f9190610eb9565b5090565b828054610e3f90611437565b90600052602060002090601f016020900481019282610e615760008555610ea8565b82601f10610e7a57805160ff1916838001178555610ea8565b82800160010185558215610ea8579182015b82811115610ea7578251825591602001919060010190610e8c565b5b509050610eb59190610eb9565b5090565b5b80821115610ed2576000816000905550600101610eba565b5090565b6000604051905090565b600080fd5b600080fd5b600073ffffffffffffffffffffffffffffffffffffffff82169050919050565b6000610f1582610eea565b9050919050565b610f2581610f0a565b8114610f3057600080fd5b50565b600081359050610f4281610f1c565b92915050565b600060ff82169050919050565b610f5e81610f48565b8114610f6957600080fd5b50565b600081359050610f7b81610f55565b92915050565b60008060408385031215610f9857610f97610ee0565b5b6000610fa685828601610f33565b9250506020610fb785828601610f6c565b9150509250929050565b610fca81610f48565b82525050565b6000602082019050610fe56000830184610fc1565b92915050565b60006020828403121561100157611000610ee0565b5b600061100f84828501610f33565b91505092915050565b600081519050919050565b600082825260208201905092915050565b60005b83811015611052578082015181840152602081019050611037565b83811115611061576000848401525b50505050565b6000601f19601f8301169050919050565b600061108382611018565b61108d8185611023565b935061109d818560208601611034565b6110a681611067565b840191505092915050565b600060208201905081810360008301526110cb8184611078565b905092915050565b6000819050919050565b6110e6816110d3565b81146110f157600080fd5b50565b600081359050611103816110dd565b92915050565b60006020828403121561111f5761111e610ee0565b5b600061112d848285016110f4565b91505092915050565b600080fd5b7f4e487b7100000000000000000000000000000000000000000000000000000000600052604160045260246000fd5b61117382611067565b810181811067ffffffffffffffff821117156111925761119161113b565b5b80604052505050565b60006111a5610ed6565b90506111b1828261116a565b919050565b600067ffffffffffffffff8211156111d1576111d061113b565b5b602082029050602081019050919050565b600080fd5b60006111fa6111f5846111b6565b61119b565b9050808382526020820190506020840283018581111561121d5761121c6111e2565b5b835b8181101561124657806112328882610f6c565b84526020840193505060208101905061121f565b5050509392505050565b600082601f83011261126557611264611136565b5b81356112758482602086016111e7565b91505092915050565b6000806040838503121561129557611294610ee0565b5b60006112a385828601610f33565b925050602083013567ffffffffffffffff8111156112c4576112c3610ee5565b5b6112d085828601611250565b9150509250929050565b60008115159050919050565b6112ef816112da565b82525050565b600060208201905061130a60008301846112e6565b92915050565b6000806040838503121561132757611326610ee0565b5b600061133585828601610f33565b9250506020611346858286016110f4565b9150509250929050565b7f4e487b7100000000000000000000000000000000000000000000000000000000600052603260045260246000fd5b7f4e487b7100000000000000000000000000000000000000000000000000000000600052601160045260246000fd5b60006113b9826110d3565b91506113c4836110d3565b9250817fffffffffffffffffffffffffffffffffffffffffffffffffffffffffffffffff04831182151516156113fd576113fc61137f565b5b828202905092915050565b7f4e487b7100000000000000000000000000000000000000000000000000000000600052602260045260246000fd5b6000600282049050600182168061144f57607f821691505b6020821081141561146357611462611408565b5b50919050565b6000611474826110d3565b915061147f836110d3565b9250827fffffffffffffffffffffffffffffffffffffffffffffffffffffffffffffffff038211156114b4576114b361137f565b5b828201905092915050565b60006114ca82610f48565b915060ff8214156114de576114dd61137f565b5b600182019050919050565b7f4e487b7100000000000000000000000000000000000000000000000000000000600052601260045260246000fd5b6000611523826110d3565b915061152e836110d3565b92508261153e5761153d6114e9565b5b828204905092915050565b61155281610f0a565b82525050565b600081549050919050565b600082825260208201905092915050565b60008190508160005260206000209050919050565b61159281610f48565b82525050565b60008160001c9050919050565b600060ff82169050919050565b60006115c56115c083611598565b6115a5565b9050919050565b60008160081c9050919050565b60006115ec6115e7836115cc565b6115a5565b9050919050565b60008160101c9050919050565b600061161361160e836115f3565b6115a5565b9050919050565b60008160181c9050919050565b600061163a6116358361161a565b6115a5565b9050919050565b60008160201c9050919050565b600061166161165c83611641565b6115a5565b9050919050565b60008160281c9050919050565b600061168861168383611668565b6115a5565b9050919050565b60008160301c9050919050565b60006116af6116aa8361168f565b6115a5565b9050919050565b60008160381c9050919050565b60006116d66116d1836116b6565b6115a5565b9050919050565b60008160401c9050919050565b60006116fd6116f8836116dd565b6115a5565b9050919050565b60008160481c9050919050565b600061172461171f83611704565b6115a5565b9050919050565b60008160501c9050919050565b600061174b6117468361172b565b6115a5565b9050919050565b60008160581c9050919050565b600061177261176d83611752565b6115a5565b9050919050565b60008160601c9050919050565b600061179961179483611779565b6115a5565b9050919050565b60008160681c9050919050565b60006117c06117bb836117a0565b6115a5565b9050919050565b60008160701c9050919050565b60006117e76117e2836117c7565b6115a5565b9050919050565b60008160781c9050919050565b600061180e611809836117ee565b6115a5565b9050919050565b60008160801c9050919050565b600061183561183083611815565b6115a5565b9050919050565b60008160881c9050919050565b600061185c6118578361183c565b6115a5565b9050919050565b60008160901c9050919050565b600061188361187e83611863565b6115a5565b9050919050565b60008160981c9050919050565b60006118aa6118a58361188a565b6115a5565b9050919050565b60008160a01c9050919050565b60006118d16118cc836118b1565b6115a5565b9050919050565b60008160a81c9050919050565b60006118f86118f3836118d8565b6115a5565b9050919050565b60008160b01c9050919050565b600061191f61191a836118ff565b6115a5565b9050919050565b60008160b81c9050919050565b600061194661194183611926565b6115a5565b9050919050565b60008160c01c9050919050565b600061196d6119688361194d565b6115a5565b9050919050565b60008160c81c9050919050565b600061199461198f83611974565b6115a5565b9050919050565b60008160d01c9050919050565b60006119bb6119b68361199b565b6115a5565b9050919050565b60008160d81c9050919050565b60006119e26119dd836119c2565b6115a5565b9050919050565b60008160e01c9050919050565b6000611a09611a04836119e9565b6115a5565b9050919050565b60008160e81c9050919050565b6000611a30611a2b83611a10565b6115a5565b9050919050565b60008160f01c9050919050565b6000611a57611a5283611a37565b6115a5565b9050919050565b60008160f81c9050919050565b6000611a7e611a7983611a5e565b6115a5565b9050919050565b6000611a9082611558565b611a9a8185611563565b935083611aa684611574565b6000600115611dd3575b83600160200382011015611dd2578154611ad288611acd836115b2565b611589565b602088019750611aea88611ae5836115d9565b611589565b602088019750611b0288611afd83611600565b611589565b602088019750611b1a88611b1583611627565b611589565b602088019750611b3288611b2d8361164e565b611589565b602088019750611b4a88611b4583611675565b611589565b602088019750611b6288611b5d8361169c565b611589565b602088019750611b7a88611b75836116c3565b611589565b602088019750611b9288611b8d836116ea565b611589565b602088019750611baa88611ba583611711565b611589565b602088019750611bc288611bbd83611738565b611589565b602088019750611bda88611bd58361175f565b611589565b602088019750611bf288611bed83611786565b611589565b602088019750611c0a88611c05836117ad565b611589565b602088019750611c2288611c1d836117d4565b611589565b602088019750611c3a88611c35836117fb565b611589565b602088019750611c5288611c4d83611822565b611589565b602088019750611c6a88611c6583611849565b611589565b602088019750611c8288611c7d83611870565b611589565b602088019750611c9a88611c9583611897565b611589565b602088019750611cb288611cad836118be565b611589565b602088019750611cca88611cc5836118e5565b611589565b602088019750611ce288611cdd8361190c565b611589565b602088019750611cfa88611cf583611933565b611589565b602088019750611d1288611d0d8361195a565b611589565b602088019750611d2a88611d2583611981565b611589565b602088019750611d4288611d3d836119a8565b611589565b602088019750611d5a88611d55836119cf565b611589565b602088019750611d7288611d6d836119f6565b611589565b602088019750611d8a88611d8583611a1d565b611589565b602088019750611da288611d9d83611a44565b611589565b602088019750611dba88611db583611a6b565b611589565b60208801975060018301925050602081019050611ab0565b5b6001156122be57815484821015611e0357611df688611df1836115b2565b611589565b6020880197506001820191505b84821015611e2a57611e1d88611e18836115d9565b611589565b6020880197506001820191505b84821015611e5157611e4488611e3f83611600565b611589565b6020880197506001820191505b84821015611e7857611e6b88611e6683611627565b611589565b6020880197506001820191505b84821015611e9f57611e9288611e8d8361164e565b611589565b6020880197506001820191505b84821015611ec657611eb988611eb483611675565b611589565b6020880197506001820191505b84821015611eed57611ee088611edb8361169c565b611589565b6020880197506001820191505b84821015611f1457611f0788611f02836116c3565b611589565b6020880197506001820191505b84821015611f3b57611f2e88611f29836116ea565b611589565b6020880197506001820191505b84821015611f6257611f5588611f5083611711565b611589565b6020880197506001820191505b84821015611f8957611f7c88611f7783611738565b611589565b6020880197506001820191505b84821015611fb057611fa388611f9e8361175f565b611589565b6020880197506001820191505b84821015611fd757611fca88611fc583611786565b611589565b6020880197506001820191505b84821015611ffe57611ff188611fec836117ad565b611589565b6020880197506001820191505b848210156120255761201888612013836117d4565b611589565b6020880197506001820191505b8482101561204c5761203f8861203a836117fb565b611589565b6020880197506001820191505b84821015612073576120668861206183611822565b611589565b6020880197506001820191505b8482101561209a5761208d8861208883611849565b611589565b6020880197506001820191505b848210156120c1576120b4886120af83611870565b611589565b6020880197506001820191505b848210156120e8576120db886120d683611897565b611589565b6020880197506001820191505b8482101561210f57612102886120fd836118be565b611589565b6020880197506001820191505b848210156121365761212988612124836118e5565b611589565b6020880197506001820191505b8482101561215d576121508861214b8361190c565b611589565b6020880197506001820191505b84821015612184576121778861217283611933565b611589565b6020880197506001820191505b848210156121ab5761219e886121998361195a565b611589565b6020880197506001820191505b848210156121d2576121c5886121c083611981565b611589565b6020880197506001820191505b848210156121f9576121ec886121e7836119a8565b611589565b6020880197506001820191505b84821015612220576122138861220e836119cf565b611589565b6020880197506001820191505b848210156122475761223a88612235836119f6565b611589565b6020880197506001820191505b8482101561226e576122618861225c83611a1d565b611589565b6020880197506001820191505b84821015612295576122888861228383611a44565b611589565b6020880197506001820191505b848210156122bc576122af886122aa83611a6b565b611589565b6020880197506001820191505b505b8694505050505092915050565b60008190508160005260206000209050919050565b600081546122ed81611437565b6122f78186611023565b94506001821660008114612312576001811461232457612357565b60ff1983168652602086019350612357565b61232d856122cb565b60005b8381101561234f57815481890152600182019150602081019050612330565b808801955050505b50505092915050565b612369816110d3565b82525050565b60006080820190506123846000830187611549565b81810360208301526123968186611a85565b905081810360408301526123aa81856122e0565b90506123b96060830184612360565b95945050505050565b60006123cd826110d3565b91506123d8836110d3565b9250828210156123eb576123ea61137f565b5b828203905092915050565b600081905092915050565b600061240c82611018565b61241681856123f6565b9350612426818560208601611034565b80840191505092915050565b7f2300000000000000000000000000000000000000000000000000000000000000600082015250565b60006124686001836123f6565b915061247382612432565b600182019050919050565b600061248a8284612401565b91506124958261245b565b915081905092915050565b60006124ab826110d3565b91507fffffffffffffffffffffffffffffffffffffffffffffffffffffffffffffffff8214156124de576124dd61137f565b5b60018201905091905056fea2646970667358221220b98a96a7896a33b804ec91694f42cc95841659ff89dfeee3c7b75b1cf95986c064736f6c63430008090033",
  "immutableReferences": {},
  "source": "pragma solidity >=0.4.2 <0.9.0;\n\n\nimport \"./stringUtils.sol\";\n\n/* ORIGINAL NON BUGGY CONTRACT*/\n\ncontract MarksOg {\n    \n    using StringUtils for string;\n\n    mapping (address => uint8[]) marks;\n    mapping (address => string) grade;\n    mapping (address => uint256) totalmarks;\n\n    event MarksAdd(address addr, uint8[] mark, string g , uint256 avg);\n\n    event Progress(string m);\n\n    event encoding(bytes32 e);\n    \n\n    function insert(address addr, uint8[] memory m ) public returns(bool)\n    {\n            marks[addr] = m;\n\n            uint256 tot = 0;\n            uint8 flag = 0;\n            uint256 avg ;\n            for (uint8 i = 0 ;i<5;i++)\n            {\n                    tot+= m[i];\n\n                    if (flag == 0 && m[i]>46){\n\n                        flag = 1;\n                    }\n\n                    if ((flag==0 || flag == 1) && m[i]<20){\n                        flag = 2;\n\n                    }\n            }\n\n            avg = (tot * 4)/10;\n\n            totalmarks[addr] = tot;\n\n            if (flag== 1 && avg>=85){\n                grade[addr] = 'A*';\n            }\n            else if (flag==2 && avg<50)\n            {\n                grade[addr] = 'F';\n            }\n            else\n            {\n                grade[addr] = compgrade(avg);\n            }\n\n\n            emit MarksAdd(addr,marks[addr],grade[addr],avg);\n            return true;\n    }\n\n    function compgrade(uint256 avg) public returns(string memory)\n    {\n        if (avg>=90) return 'A';\n        if (avg>=80) return 'B';\n        if (avg>=70) return 'C';\n        if (avg>=60) return 'D';\n        if (avg>=50) return 'E';\n        if (avg>=45) return 'Incomplete';\n    }\n\n    function getIndMark(address addr, uint8 idx) public view returns(uint8){\n\n         return marks[addr][idx];\n    }    \n\n    function getGrade(address addr) public view returns(string memory){\n\n         return grade[addr];\n    }\n\n    function graceMarks(address addr) public  returns (string memory message){\n\n        string memory g = getGrade(addr);\n\n \n\n        if (StringUtils.equal(g,\"A*\") || StringUtils.equal(g,\"A\") || StringUtils.equal(g,\"B\") || StringUtils.equal(g,\"F\")){\n\n            \n        }\n\n        else\n        {\n            uint256 req = 0;\n            if(StringUtils.equal(g,\"C\"))\n            {\n                req = 40;\n   \n            }\n            else if (StringUtils.equal(g,\"D\"))\n            {\n                req = 35;\n       \n            }\n            else if (StringUtils.equal(g,\"E\"))\n            {\n                req = 30;\n            \n            }\n            else\n            {\n                req = 25;\n              \n            }\n\n            checktot(addr,req*5);\n  \n        }\n\n\n    }\n\n\n    function checktot(address addr, uint256 req) public{\n        if (req - totalmarks[addr]>15)\n        {\n            \n        }\n\n        else\n        {\n            uint256 avg = (req * 4)/10;\n            grade[addr] = string(abi.encodePacked(compgrade(avg),'#'));\n            //grade[addr] = compgrade(avg);\n        }\n\n\n    }    \n\n\n \n    \n\n}",
  "sourcePath": "/home/harsh/Desktop/LMS/contracts/MarksOg.sol",
  "compiler": {
    "name": "solc",
    "version": "0.8.9+commit.e5eed63a.Emscripten.clang"
  },
  "schemaVersion": "3.4.8",
  "updatedAt": "2022-08-16T13:05:44.618Z",
  "networkType": "ethereum",
  "devdoc": {
    "kind": "dev",
    "methods": {},
    "version": 1
  },
  "userdoc": {
    "kind": "user",
    "methods": {},
    "version": 1
  }
}