{
  "contractName": "Marks_Reent",
  "abi": [
    {
      "anonymous": false,
      "inputs": [
        {
          "indexed": false,
          "internalType": "address",
          "name": "addr",
          "type": "address"
        },
        {
          "indexed": false,
          "internalType": "uint8[]",
          "name": "mark",
          "type": "uint8[]"
        },
        {
          "indexed": false,
          "internalType": "string",
          "name": "g",
          "type": "string"
        },
        {
          "indexed": false,
          "internalType": "uint256",
          "name": "avg",
          "type": "uint256"
        }
      ],
      "name": "MarksAdd",
      "type": "event"
    },
    {
      "anonymous": false,
      "inputs": [
        {
          "indexed": false,
          "internalType": "address",
          "name": "student",
          "type": "address"
        },
        {
          "indexed": false,
          "internalType": "string",
          "name": "funcname",
          "type": "string"
        }
      ],
      "name": "path",
      "type": "event"
    },
    {
      "inputs": [
        {
          "internalType": "address",
          "name": "addr",
          "type": "address"
        },
        {
          "internalType": "uint8[]",
          "name": "m",
          "type": "uint8[]"
        }
      ],
      "name": "insert",
      "outputs": [
        {
          "internalType": "bool",
          "name": "",
          "type": "bool"
        }
      ],
      "stateMutability": "nonpayable",
      "type": "function"
    },
    {
      "inputs": [
        {
          "internalType": "uint256",
          "name": "avg",
          "type": "uint256"
        }
      ],
      "name": "compgrade",
      "outputs": [
        {
          "internalType": "string",
          "name": "",
          "type": "string"
        }
      ],
      "stateMutability": "nonpayable",
      "type": "function"
    },
    {
      "inputs": [
        {
          "internalType": "address",
          "name": "addr",
          "type": "address"
        },
        {
          "internalType": "uint8",
          "name": "idx",
          "type": "uint8"
        }
      ],
      "name": "getIndMark",
      "outputs": [
        {
          "internalType": "uint8",
          "name": "",
          "type": "uint8"
        }
      ],
      "stateMutability": "view",
      "type": "function",
      "constant": true
    },
    {
      "inputs": [
        {
          "internalType": "address",
          "name": "addr",
          "type": "address"
        }
      ],
      "name": "getGrade",
      "outputs": [
        {
          "internalType": "string",
          "name": "",
          "type": "string"
        }
      ],
      "stateMutability": "view",
      "type": "function",
      "constant": true
    },
    {
      "inputs": [
        {
          "internalType": "address",
          "name": "addr",
          "type": "address"
        }
      ],
      "name": "getStatus",
      "outputs": [
        {
          "internalType": "bool",
          "name": "",
          "type": "bool"
        }
      ],
      "stateMutability": "view",
      "type": "function",
      "constant": true
    },
    {
      "inputs": [
        {
          "internalType": "address",
          "name": "addr",
          "type": "address"
        }
      ],
      "name": "graceMarks",
      "outputs": [],
      "stateMutability": "nonpayable",
      "type": "function"
    },
    {
      "inputs": [
        {
          "internalType": "address",
          "name": "addr",
          "type": "address"
        }
      ],
      "name": "checktot",
      "outputs": [
        {
          "internalType": "string",
          "name": "message",
          "type": "string"
        }
      ],
      "stateMutability": "nonpayable",
      "type": "function"
    }
  ],
  "bytecode": "0x608060405234801561001057600080fd5b50612dd4806100206000396000f3fe608060405234801561001057600080fd5b506004361061007d5760003560e01c806330ccebb51161005b57806330ccebb5146100fe578063313739a31461012e57806335151bf11461015e5780634fb0b7c41461018e5761007d565b8063095aec6014610082578063149cff49146100b25780631fb71f88146100ce575b600080fd5b61009c6004803603810190610097919061177f565b6101be565b6040516100a991906117ce565b60405180910390f35b6100cc60048036038101906100c791906117e9565b61023b565b005b6100e860048036038101906100e3919061184c565b61052c565b6040516100f59190611912565b60405180910390f35b610118600480360381019061011391906117e9565b6106d2565b604051610125919061194f565b60405180910390f35b610148600480360381019061014391906117e9565b610728565b6040516101559190611912565b60405180910390f35b61017860048036038101906101739190611ab2565b6107f9565b604051610185919061194f565b60405180910390f35b6101a860048036038101906101a391906117e9565b610caf565b6040516101b59190611912565b60405180910390f35b60008060008473ffffffffffffffffffffffffffffffffffffffff1673ffffffffffffffffffffffffffffffffffffffff1681526020019081526020016000208260ff168154811061021357610212611b0e565b5b90600052602060002090602091828204019190069054906101000a900460ff16905092915050565b60001515600360008373ffffffffffffffffffffffffffffffffffffffff1673ffffffffffffffffffffffffffffffffffffffff16815260200190815260200160002060009054906101000a900460ff161515141561052957600061029f82610728565b90506102e0816040518060400160405280600281526020017f412a000000000000000000000000000000000000000000000000000000000000815250611398565b806103265750610325816040518060400160405280600181526020017f4100000000000000000000000000000000000000000000000000000000000000815250611398565b5b8061036c575061036b816040518060400160405280600181526020017f4200000000000000000000000000000000000000000000000000000000000000815250611398565b5b806103b257506103b1816040518060400160405280600181526020017f4600000000000000000000000000000000000000000000000000000000000000815250611398565b5b156103bc576104cf565b6103fb816040518060400160405280600181526020017f4300000000000000000000000000000000000000000000000000000000000000815250611398565b806104415750610440816040518060400160405280600181526020017f4400000000000000000000000000000000000000000000000000000000000000815250611398565b5b806104875750610486816040518060400160405280600181526020017f4500000000000000000000000000000000000000000000000000000000000000815250611398565b5b156104ce577fbd6616c0f1f9a7f666369b8343913166ddbf61881ea9eb495a48f96defa59a73826040516104bb9190611b98565b60405180910390a16104cc82610caf565b505b5b6001600360008473ffffffffffffffffffffffffffffffffffffffff1673ffffffffffffffffffffffffffffffffffffffff16815260200190815260200160002060006101000a81548160ff021916908315150217905550505b50565b6060605a8210610573576040518060400160405280600181526020017f410000000000000000000000000000000000000000000000000000000000000081525090506106cd565b605082106105b8576040518060400160405280600181526020017f420000000000000000000000000000000000000000000000000000000000000081525090506106cd565b604682106105fd576040518060400160405280600181526020017f430000000000000000000000000000000000000000000000000000000000000081525090506106cd565b603c8210610642576040518060400160405280600181526020017f440000000000000000000000000000000000000000000000000000000000000081525090506106cd565b60328210610687576040518060400160405280600181526020017f450000000000000000000000000000000000000000000000000000000000000081525090506106cd565b602d82106106cc576040518060400160405280600a81526020017f496e636f6d706c6574650000000000000000000000000000000000000000000081525090506106cd565b5b919050565b6000600360008373ffffffffffffffffffffffffffffffffffffffff1673ffffffffffffffffffffffffffffffffffffffff16815260200190815260200160002060009054906101000a900460ff169050919050565b6060600160008373ffffffffffffffffffffffffffffffffffffffff1673ffffffffffffffffffffffffffffffffffffffff168152602001908152602001600020805461077490611bf5565b80601f01602080910402602001604051908101604052809291908181526020018280546107a090611bf5565b80156107ed5780601f106107c2576101008083540402835291602001916107ed565b820191906000526020600020905b8154815290600101906020018083116107d057829003601f168201915b50505050509050919050565b6000816000808573ffffffffffffffffffffffffffffffffffffffff1673ffffffffffffffffffffffffffffffffffffffff168152602001908152602001600020908051906020019061084d92919061158a565b50600080600080600090505b60058160ff16101561092e57858160ff168151811061087b5761087a611b0e565b5b602002602001015160ff16846108919190611c56565b935060008360ff161480156108c65750602e868260ff16815181106108b9576108b8611b0e565b5b602002602001015160ff16115b156108d057600192505b60008360ff1614806108e5575060018360ff16145b801561091157506014868260ff168151811061090457610903611b0e565b5b602002602001015160ff16105b1561091b57600292505b808061092690611cac565b915050610859565b50600a60048461093e9190611cd6565b6109489190611d5f565b905082600260008873ffffffffffffffffffffffffffffffffffffffff1673ffffffffffffffffffffffffffffffffffffffff1681526020019081526020016000208190555060018260ff161480156109a2575060558110155b15610a35576040518060400160405280600281526020017f412a000000000000000000000000000000000000000000000000000000000000815250600160008873ffffffffffffffffffffffffffffffffffffffff1673ffffffffffffffffffffffffffffffffffffffff1681526020019081526020016000209080519060200190610a2f929190611631565b50610b39565b60028260ff16148015610a485750603281105b15610adb576040518060400160405280600181526020017f4600000000000000000000000000000000000000000000000000000000000000815250600160008873ffffffffffffffffffffffffffffffffffffffff1673ffffffffffffffffffffffffffffffffffffffff1681526020019081526020016000209080519060200190610ad5929190611631565b50610b38565b610ae48161052c565b600160008873ffffffffffffffffffffffffffffffffffffffff1673ffffffffffffffffffffffffffffffffffffffff1681526020019081526020016000209080519060200190610b36929190611631565b505b5b6000600360008873ffffffffffffffffffffffffffffffffffffffff1673ffffffffffffffffffffffffffffffffffffffff16815260200190815260200160002060006101000a81548160ff0219169083151502179055506001600460008873ffffffffffffffffffffffffffffffffffffffff1673ffffffffffffffffffffffffffffffffffffffff16815260200190815260200160002060006101000a81548160ff021916908360ff1602179055507f51bb80e7da3dd69c7b624d72023da84055fc253f522f59095dcd3bdf8a1deb87866000808973ffffffffffffffffffffffffffffffffffffffff1673ffffffffffffffffffffffffffffffffffffffff168152602001908152602001600020600160008a73ffffffffffffffffffffffffffffffffffffffff1673ffffffffffffffffffffffffffffffffffffffff16815260200190815260200160002084604051610c9a9493929190612ba7565b60405180910390a16001935050505092915050565b606060006040518060800160405280600115151515815260200160011515151581526020016001151515158152602001600115151515815250905060008060008573ffffffffffffffffffffffffffffffffffffffff1673ffffffffffffffffffffffffffffffffffffffff168152602001908152602001600020805480602002602001604051908101604052809291908181526020018280548015610d9a57602002820191906000526020600020906000905b82829054906101000a900460ff1660ff1681526020019060010190602082600001049283019260010382029150808411610d635790505b5050505050905060005b60058160ff1610156110465782600060048110610dc457610dc3611b0e565b5b60200201518015610df65750818160ff1681518110610de657610de5611b0e565b5b602002602001015160ff16600a11155b8015610e2257506014828260ff1681518110610e1557610e14611b0e565b5b602002602001015160ff16105b15610e5157600083600060048110610e3d57610e3c611b0e565b5b602002019015159081151581525050611033565b82600160048110610e6557610e64611b0e565b5b60200201518015610e975750818160ff1681518110610e8757610e86611b0e565b5b602002602001015160ff16601411155b8015610ec35750601e828260ff1681518110610eb657610eb5611b0e565b5b602002602001015160ff16105b15610ef257600083600160048110610ede57610edd611b0e565b5b602002019015159081151581525050611032565b82600260048110610f0657610f05611b0e565b5b60200201518015610f385750818160ff1681518110610f2857610f27611b0e565b5b602002602001015160ff16601e11155b8015610f6457506028828260ff1681518110610f5757610f56611b0e565b5b602002602001015160ff16105b15610f9357600083600260048110610f7f57610f7e611b0e565b5b602002019015159081151581525050611031565b82600360048110610fa757610fa6611b0e565b5b60200201518015610fd95750818160ff1681518110610fc957610fc8611b0e565b5b602002602001015160ff16602811155b801561100557506032828260ff1681518110610ff857610ff7611b0e565b5b602002602001015160ff16105b15611030576000836003600481106110205761101f611b0e565b5b6020020190151590811515815250505b5b5b5b808061103e90611cac565b915050610da4565b50600a600260008673ffffffffffffffffffffffffffffffffffffffff1673ffffffffffffffffffffffffffffffffffffffff168152602001908152602001600020546110939190611c56565b600260008673ffffffffffffffffffffffffffffffffffffffff1673ffffffffffffffffffffffffffffffffffffffff16815260200190815260200160002081905550816000600481106110ea576110e9611b0e565b5b60200201518061110f57508160016004811061110957611108611b0e565b5b60200201515b8061112f57508160026004811061112957611128611b0e565b5b60200201515b8061114f57508160036004811061114957611148611b0e565b5b60200201515b6112b35760e1600260008673ffffffffffffffffffffffffffffffffffffffff1673ffffffffffffffffffffffffffffffffffffffff168152602001908152602001600020541015611254577fbd6616c0f1f9a7f666369b8343913166ddbf61881ea9eb495a48f96defa59a73846040516111ca9190612c46565b60405180910390a16001600460008673ffffffffffffffffffffffffffffffffffffffff1673ffffffffffffffffffffffffffffffffffffffff16815260200190815260200160002060008282829054906101000a900460ff1661122e9190612c74565b92506101000a81548160ff021916908360ff16021790555061124f8461023b565b6112b2565b6000600a6004600260008873ffffffffffffffffffffffffffffffffffffffff1673ffffffffffffffffffffffffffffffffffffffff168152602001908152602001600020546112a49190611cd6565b6112ae9190611d5f565b9050505b5b6000600a6004600260008873ffffffffffffffffffffffffffffffffffffffff1673ffffffffffffffffffffffffffffffffffffffff168152602001908152602001600020546113039190611cd6565b61130d9190611d5f565b9050600061131a8261052c565b90508060405160200161132d9190612d33565b604051602081830303815290604052600160008873ffffffffffffffffffffffffffffffffffffffff1673ffffffffffffffffffffffffffffffffffffffff168152602001908152602001600020908051906020019061138e929190611631565b5050505050919050565b6000806113a584846113ae565b14905092915050565b600080839050600083905060008251905080825110156113cd57815190505b60005b81811015611530578281815181106113eb576113ea611b0e565b5b602001015160f81c60f81b7effffffffffffffffffffffffffffffffffffffffffffffffffffffffffffff191684828151811061142b5761142a611b0e565b5b602001015160f81c60f81b7effffffffffffffffffffffffffffffffffffffffffffffffffffffffffffff1916101561148a577fffffffffffffffffffffffffffffffffffffffffffffffffffffffffffffffff945050505050611584565b82818151811061149d5761149c611b0e565b5b602001015160f81c60f81b7effffffffffffffffffffffffffffffffffffffffffffffffffffffffffffff19168482815181106114dd576114dc611b0e565b5b602001015160f81c60f81b7effffffffffffffffffffffffffffffffffffffffffffffffffffffffffffff1916111561151d576001945050505050611584565b808061152890612d55565b9150506113d0565b50815183511015611566577fffffffffffffffffffffffffffffffffffffffffffffffffffffffffffffffff9350505050611584565b81518351111561157c5760019350505050611584565b600093505050505b92915050565b82805482825590600052602060002090601f016020900481019282156116205791602002820160005b838211156115f157835183826101000a81548160ff021916908360ff16021790555092602001926001016020816000010492830192600103026115b3565b801561161e5782816101000a81549060ff02191690556001016020816000010492830192600103026115f1565b505b50905061162d91906116b7565b5090565b82805461163d90611bf5565b90600052602060002090601f01602090048101928261165f57600085556116a6565b82601f1061167857805160ff19168380011785556116a6565b828001600101855582156116a6579182015b828111156116a557825182559160200191906001019061168a565b5b5090506116b391906116b7565b5090565b5b808211156116d05760008160009055506001016116b8565b5090565b6000604051905090565b600080fd5b600080fd5b600073ffffffffffffffffffffffffffffffffffffffff82169050919050565b6000611713826116e8565b9050919050565b61172381611708565b811461172e57600080fd5b50565b6000813590506117408161171a565b92915050565b600060ff82169050919050565b61175c81611746565b811461176757600080fd5b50565b60008135905061177981611753565b92915050565b60008060408385031215611796576117956116de565b5b60006117a485828601611731565b92505060206117b58582860161176a565b9150509250929050565b6117c881611746565b82525050565b60006020820190506117e360008301846117bf565b92915050565b6000602082840312156117ff576117fe6116de565b5b600061180d84828501611731565b91505092915050565b6000819050919050565b61182981611816565b811461183457600080fd5b50565b60008135905061184681611820565b92915050565b600060208284031215611862576118616116de565b5b600061187084828501611837565b91505092915050565b600081519050919050565b600082825260208201905092915050565b60005b838110156118b3578082015181840152602081019050611898565b838111156118c2576000848401525b50505050565b6000601f19601f8301169050919050565b60006118e482611879565b6118ee8185611884565b93506118fe818560208601611895565b611907816118c8565b840191505092915050565b6000602082019050818103600083015261192c81846118d9565b905092915050565b60008115159050919050565b61194981611934565b82525050565b60006020820190506119646000830184611940565b92915050565b600080fd5b7f4e487b7100000000000000000000000000000000000000000000000000000000600052604160045260246000fd5b6119a7826118c8565b810181811067ffffffffffffffff821117156119c6576119c561196f565b5b80604052505050565b60006119d96116d4565b90506119e5828261199e565b919050565b600067ffffffffffffffff821115611a0557611a0461196f565b5b602082029050602081019050919050565b600080fd5b6000611a2e611a29846119ea565b6119cf565b90508083825260208201905060208402830185811115611a5157611a50611a16565b5b835b81811015611a7a5780611a66888261176a565b845260208401935050602081019050611a53565b5050509392505050565b600082601f830112611a9957611a9861196a565b5b8135611aa9848260208601611a1b565b91505092915050565b60008060408385031215611ac957611ac86116de565b5b6000611ad785828601611731565b925050602083013567ffffffffffffffff811115611af857611af76116e3565b5b611b0485828601611a84565b9150509250929050565b7f4e487b7100000000000000000000000000000000000000000000000000000000600052603260045260246000fd5b611b4681611708565b82525050565b7f43616c6c696e6720636865636b746f7400000000000000000000000000000000600082015250565b6000611b82601083611884565b9150611b8d82611b4c565b602082019050919050565b6000604082019050611bad6000830184611b3d565b8181036020830152611bbe81611b75565b905092915050565b7f4e487b7100000000000000000000000000000000000000000000000000000000600052602260045260246000fd5b60006002820490506001821680611c0d57607f821691505b60208210811415611c2157611c20611bc6565b5b50919050565b7f4e487b7100000000000000000000000000000000000000000000000000000000600052601160045260246000fd5b6000611c6182611816565b9150611c6c83611816565b9250827fffffffffffffffffffffffffffffffffffffffffffffffffffffffffffffffff03821115611ca157611ca0611c27565b5b828201905092915050565b6000611cb782611746565b915060ff821415611ccb57611cca611c27565b5b600182019050919050565b6000611ce182611816565b9150611cec83611816565b9250817fffffffffffffffffffffffffffffffffffffffffffffffffffffffffffffffff0483118215151615611d2557611d24611c27565b5b828202905092915050565b7f4e487b7100000000000000000000000000000000000000000000000000000000600052601260045260246000fd5b6000611d6a82611816565b9150611d7583611816565b925082611d8557611d84611d30565b5b828204905092915050565b600081549050919050565b600082825260208201905092915050565b60008190508160005260206000209050919050565b611dca81611746565b82525050565b60008160001c9050919050565b600060ff82169050919050565b6000611dfd611df883611dd0565b611ddd565b9050919050565b60008160081c9050919050565b6000611e24611e1f83611e04565b611ddd565b9050919050565b60008160101c9050919050565b6000611e4b611e4683611e2b565b611ddd565b9050919050565b60008160181c9050919050565b6000611e72611e6d83611e52565b611ddd565b9050919050565b60008160201c9050919050565b6000611e99611e9483611e79565b611ddd565b9050919050565b60008160281c9050919050565b6000611ec0611ebb83611ea0565b611ddd565b9050919050565b60008160301c9050919050565b6000611ee7611ee283611ec7565b611ddd565b9050919050565b60008160381c9050919050565b6000611f0e611f0983611eee565b611ddd565b9050919050565b60008160401c9050919050565b6000611f35611f3083611f15565b611ddd565b9050919050565b60008160481c9050919050565b6000611f5c611f5783611f3c565b611ddd565b9050919050565b60008160501c9050919050565b6000611f83611f7e83611f63565b611ddd565b9050919050565b60008160581c9050919050565b6000611faa611fa583611f8a565b611ddd565b9050919050565b60008160601c9050919050565b6000611fd1611fcc83611fb1565b611ddd565b9050919050565b60008160681c9050919050565b6000611ff8611ff383611fd8565b611ddd565b9050919050565b60008160701c9050919050565b600061201f61201a83611fff565b611ddd565b9050919050565b60008160781c9050919050565b600061204661204183612026565b611ddd565b9050919050565b60008160801c9050919050565b600061206d6120688361204d565b611ddd565b9050919050565b60008160881c9050919050565b600061209461208f83612074565b611ddd565b9050919050565b60008160901c9050919050565b60006120bb6120b68361209b565b611ddd565b9050919050565b60008160981c9050919050565b60006120e26120dd836120c2565b611ddd565b9050919050565b60008160a01c9050919050565b6000612109612104836120e9565b611ddd565b9050919050565b60008160a81c9050919050565b600061213061212b83612110565b611ddd565b9050919050565b60008160b01c9050919050565b600061215761215283612137565b611ddd565b9050919050565b60008160b81c9050919050565b600061217e6121798361215e565b611ddd565b9050919050565b60008160c01c9050919050565b60006121a56121a083612185565b611ddd565b9050919050565b60008160c81c9050919050565b60006121cc6121c7836121ac565b611ddd565b9050919050565b60008160d01c9050919050565b60006121f36121ee836121d3565b611ddd565b9050919050565b60008160d81c9050919050565b600061221a612215836121fa565b611ddd565b9050919050565b60008160e01c9050919050565b600061224161223c83612221565b611ddd565b9050919050565b60008160e81c9050919050565b600061226861226383612248565b611ddd565b9050919050565b60008160f01c9050919050565b600061228f61228a8361226f565b611ddd565b9050919050565b60008160f81c9050919050565b60006122b66122b183612296565b611ddd565b9050919050565b60006122c882611d90565b6122d28185611d9b565b9350836122de84611dac565b600060011561260b575b8360016020038201101561260a57815461230a8861230583611dea565b611dc1565b6020880197506123228861231d83611e11565b611dc1565b60208801975061233a8861233583611e38565b611dc1565b6020880197506123528861234d83611e5f565b611dc1565b60208801975061236a8861236583611e86565b611dc1565b6020880197506123828861237d83611ead565b611dc1565b60208801975061239a8861239583611ed4565b611dc1565b6020880197506123b2886123ad83611efb565b611dc1565b6020880197506123ca886123c583611f22565b611dc1565b6020880197506123e2886123dd83611f49565b611dc1565b6020880197506123fa886123f583611f70565b611dc1565b6020880197506124128861240d83611f97565b611dc1565b60208801975061242a8861242583611fbe565b611dc1565b6020880197506124428861243d83611fe5565b611dc1565b60208801975061245a886124558361200c565b611dc1565b6020880197506124728861246d83612033565b611dc1565b60208801975061248a886124858361205a565b611dc1565b6020880197506124a28861249d83612081565b611dc1565b6020880197506124ba886124b5836120a8565b611dc1565b6020880197506124d2886124cd836120cf565b611dc1565b6020880197506124ea886124e5836120f6565b611dc1565b602088019750612502886124fd8361211d565b611dc1565b60208801975061251a8861251583612144565b611dc1565b6020880197506125328861252d8361216b565b611dc1565b60208801975061254a8861254583612192565b611dc1565b6020880197506125628861255d836121b9565b611dc1565b60208801975061257a88612575836121e0565b611dc1565b6020880197506125928861258d83612207565b611dc1565b6020880197506125aa886125a58361222e565b611dc1565b6020880197506125c2886125bd83612255565b611dc1565b6020880197506125da886125d58361227c565b611dc1565b6020880197506125f2886125ed836122a3565b611dc1565b602088019750600183019250506020810190506122e8565b5b600115612af65781548482101561263b5761262e8861262983611dea565b611dc1565b6020880197506001820191505b84821015612662576126558861265083611e11565b611dc1565b6020880197506001820191505b848210156126895761267c8861267783611e38565b611dc1565b6020880197506001820191505b848210156126b0576126a38861269e83611e5f565b611dc1565b6020880197506001820191505b848210156126d7576126ca886126c583611e86565b611dc1565b6020880197506001820191505b848210156126fe576126f1886126ec83611ead565b611dc1565b6020880197506001820191505b84821015612725576127188861271383611ed4565b611dc1565b6020880197506001820191505b8482101561274c5761273f8861273a83611efb565b611dc1565b6020880197506001820191505b84821015612773576127668861276183611f22565b611dc1565b6020880197506001820191505b8482101561279a5761278d8861278883611f49565b611dc1565b6020880197506001820191505b848210156127c1576127b4886127af83611f70565b611dc1565b6020880197506001820191505b848210156127e8576127db886127d683611f97565b611dc1565b6020880197506001820191505b8482101561280f57612802886127fd83611fbe565b611dc1565b6020880197506001820191505b84821015612836576128298861282483611fe5565b611dc1565b6020880197506001820191505b8482101561285d576128508861284b8361200c565b611dc1565b6020880197506001820191505b84821015612884576128778861287283612033565b611dc1565b6020880197506001820191505b848210156128ab5761289e886128998361205a565b611dc1565b6020880197506001820191505b848210156128d2576128c5886128c083612081565b611dc1565b6020880197506001820191505b848210156128f9576128ec886128e7836120a8565b611dc1565b6020880197506001820191505b84821015612920576129138861290e836120cf565b611dc1565b6020880197506001820191505b848210156129475761293a88612935836120f6565b611dc1565b6020880197506001820191505b8482101561296e576129618861295c8361211d565b611dc1565b6020880197506001820191505b84821015612995576129888861298383612144565b611dc1565b6020880197506001820191505b848210156129bc576129af886129aa8361216b565b611dc1565b6020880197506001820191505b848210156129e3576129d6886129d183612192565b611dc1565b6020880197506001820191505b84821015612a0a576129fd886129f8836121b9565b611dc1565b6020880197506001820191505b84821015612a3157612a2488612a1f836121e0565b611dc1565b6020880197506001820191505b84821015612a5857612a4b88612a4683612207565b611dc1565b6020880197506001820191505b84821015612a7f57612a7288612a6d8361222e565b611dc1565b6020880197506001820191505b84821015612aa657612a9988612a9483612255565b611dc1565b6020880197506001820191505b84821015612acd57612ac088612abb8361227c565b611dc1565b6020880197506001820191505b84821015612af457612ae788612ae2836122a3565b611dc1565b6020880197506001820191505b505b8694505050505092915050565b60008190508160005260206000209050919050565b60008154612b2581611bf5565b612b2f8186611884565b94506001821660008114612b4a5760018114612b5c57612b8f565b60ff1983168652602086019350612b8f565b612b6585612b03565b60005b83811015612b8757815481890152600182019150602081019050612b68565b808801955050505b50505092915050565b612ba181611816565b82525050565b6000608082019050612bbc6000830187611b3d565b8181036020830152612bce81866122bd565b90508181036040830152612be28185612b18565b9050612bf16060830184612b98565b95945050505050565b7f43616c6c696e672067726163654d61726b730000000000000000000000000000600082015250565b6000612c30601283611884565b9150612c3b82612bfa565b602082019050919050565b6000604082019050612c5b6000830184611b3d565b8181036020830152612c6c81612c23565b905092915050565b6000612c7f82611746565b9150612c8a83611746565b92508260ff03821115612ca057612c9f611c27565b5b828201905092915050565b600081905092915050565b6000612cc182611879565b612ccb8185612cab565b9350612cdb818560208601611895565b80840191505092915050565b7f2300000000000000000000000000000000000000000000000000000000000000600082015250565b6000612d1d600183612cab565b9150612d2882612ce7565b600182019050919050565b6000612d3f8284612cb6565b9150612d4a82612d10565b915081905092915050565b6000612d6082611816565b91507fffffffffffffffffffffffffffffffffffffffffffffffffffffffffffffffff821415612d9357612d92611c27565b5b60018201905091905056fea264697066735822122089d590dbc2e9f4697c1a41af7fa0f9d024caf367a1453f064b74a7ab4fff1cb264736f6c63430008090033",
  "immutableReferences": {},
  "source": "pragma solidity >=0.4.2 <0.9.0;\n\n\nimport \"./stringUtils.sol\";\n\n/* \n\n\nTHIS CONTRACT CONTAINS REENTRANCY BUG. THE REENTRANT FUNCTIONS ARE graceMarks() and checktot().\n\n*/\n\ncontract Marks_Reent {\n    \n    using StringUtils for string;\n\n    mapping (address => uint8[]) marks;\n    mapping (address => string) grade;\n    mapping (address => uint256) totalmarks;\n    mapping(address => bool) UpdateStatus;\n    mapping(address => uint8) count; //only for echidna\n    event MarksAdd(address addr, uint8[] mark, string g , uint256 avg);\n    event path (address student, string funcname);\n    \n\n    function insert(address addr, uint8[] memory m ) public returns(bool)\n    {\n            marks[addr] = m;\n\n            uint256 tot = 0;\n            uint8 flag = 0;\n            uint256 avg ;\n            for (uint8 i = 0 ;i<5;i++)\n            {\n                    tot+= m[i];\n\n                    if (flag == 0 && m[i]>46){\n\n                        flag = 1;\n                    }\n\n                    if ((flag==0 || flag == 1) && m[i]<20){\n                        flag = 2;\n\n                    }\n            }\n\n            avg = (tot * 4)/10;\n\n            totalmarks[addr] = tot;\n\n            if (flag== 1 && avg>=85){\n                grade[addr] = 'A*';\n            }\n            else if (flag==2 && avg<50)\n            {\n                grade[addr] = 'F';\n            }\n            else\n            {\n                grade[addr] = compgrade(avg);\n            }\n\n            UpdateStatus[addr] = false;\n            count[addr] = 1 ; //only for echidna\n            emit MarksAdd(addr,marks[addr],grade[addr],avg);\n            return true;\n    }\n\n    function compgrade(uint256 avg) public returns(string memory)\n    {\n        if (avg>=90) return 'A';\n        if (avg>=80) return 'B';\n        if (avg>=70) return 'C';\n        if (avg>=60) return 'D';\n        if (avg>=50) return 'E';\n        if (avg>=45) return 'Incomplete';\n    }\n\n    function getIndMark(address addr, uint8 idx) public view returns(uint8){\n\n         return marks[addr][idx];\n    }    \n\n    function getGrade(address addr) public view returns(string memory){\n\n         return grade[addr];\n    }\n\n    function getStatus(address addr) public view returns(bool){\n\n         return UpdateStatus[addr];\n    }\n\n    function graceMarks(address addr) public{\n\n        if (UpdateStatus[addr] == false){\n            \n            \n            string memory g = getGrade(addr);\n            \n            if (StringUtils.equal(g,\"A*\") || StringUtils.equal(g,\"A\") || StringUtils.equal(g,\"B\") || StringUtils.equal(g,\"F\")){\n\n                \n\n\n                }\n\n            else\n            {\n                if(StringUtils.equal(g,\"C\") || StringUtils.equal(g,\"D\") || StringUtils.equal(g,\"E\"))\n                {\n                    emit path(addr,'Calling checktot');\n                    checktot(addr);\n\n                }\n             \n\n            }\n\n        \n        UpdateStatus[addr] = true;    \n\n        }\n        \n    }\n\n\n\n\n    function checktot(address addr) public returns(string memory message ){\n        \n            bool[4] memory flags = [true,true,true,true];                             //Flag Array for triggering the bug\n            uint8[] memory m = marks[addr];                                           \n                                                   \n            for (uint8 i = 0 ;i<5;i++) \n            {\n                if (flags[0] &&  10<=m[i] && m[i]<20) flags[0] = false;                 //Condition testing to trigger bug\n                else if (flags[1] &&  20<=m[i] && m[i]<30) flags[1] = false;            //Condition testing to trigger bug\n                else if (flags[2] &&  30<=m[i] && m[i]<40) flags[2] = false;            //Condition testing to trigger bug\n                else if (flags[3] &&  40<=m[i] && m[i]<50) flags[3] = false;            //Condition testing to trigger bug\n             \n                \n            }\n\n            totalmarks[addr] = totalmarks[addr]+10;\n             \n            if(!(flags[0]||flags[1]||flags[2]||flags[3]))\n            {\n                if (totalmarks[addr]<225)\n                {\n                    emit path(addr,'Calling graceMarks');\n                    count[addr]+=1; // only for echidna\n                    graceMarks(addr);\n                }\n                else\n                {\n                    uint256 avg = (totalmarks[addr] * 4)/10;\n\n                }\n            }                                                                      \n            \n           \n\n   \n            uint256 avg = (totalmarks[addr] * 4)/10;\n            string  memory newg = compgrade(avg);\n           \n            grade[addr] = string(abi.encodePacked(newg,'#'));\n            //assert(count[addr]<2); // Only for testing in echidna\n            \n            //grade[addr] = compgrade(avg);\n\n\n        }   \n\n}",
  "sourcePath": "/home/harsh/Desktop/LMS/contracts/Marks_Reent.sol",
  "compiler": {
    "name": "solc",
    "version": "0.8.9+commit.e5eed63a.Emscripten.clang"
  },
  "schemaVersion": "3.4.8",
  "updatedAt": "2022-08-16T13:05:44.574Z",
  "networkType": "ethereum",
  "devdoc": {
    "kind": "dev",
    "methods": {},
    "version": 1
  },
  "userdoc": {
    "kind": "user",
    "methods": {},
    "version": 1
  }
}