{
  "contractName": "Marks_UCS",
  "abi": [
    {
      "anonymous": false,
      "inputs": [
        {
          "indexed": false,
          "internalType": "address",
          "name": "addr",
          "type": "address"
        },
        {
          "indexed": false,
          "internalType": "uint8[]",
          "name": "mark",
          "type": "uint8[]"
        },
        {
          "indexed": false,
          "internalType": "string",
          "name": "g",
          "type": "string"
        },
        {
          "indexed": false,
          "internalType": "uint256",
          "name": "avg",
          "type": "uint256"
        }
      ],
      "name": "MarksAdd",
      "type": "event"
    },
    {
      "anonymous": false,
      "inputs": [
        {
          "indexed": false,
          "internalType": "string",
          "name": "message",
          "type": "string"
        }
      ],
      "name": "Message",
      "type": "event"
    },
    {
      "inputs": [
        {
          "internalType": "address",
          "name": "addr",
          "type": "address"
        },
        {
          "internalType": "uint8[]",
          "name": "m",
          "type": "uint8[]"
        }
      ],
      "name": "insert",
      "outputs": [
        {
          "internalType": "bool",
          "name": "",
          "type": "bool"
        }
      ],
      "stateMutability": "nonpayable",
      "type": "function"
    },
    {
      "inputs": [
        {
          "internalType": "uint256",
          "name": "avg",
          "type": "uint256"
        }
      ],
      "name": "compgrade",
      "outputs": [
        {
          "internalType": "string",
          "name": "",
          "type": "string"
        }
      ],
      "stateMutability": "nonpayable",
      "type": "function"
    },
    {
      "inputs": [
        {
          "internalType": "address",
          "name": "addr",
          "type": "address"
        },
        {
          "internalType": "uint8",
          "name": "idx",
          "type": "uint8"
        }
      ],
      "name": "getIndMark",
      "outputs": [
        {
          "internalType": "uint8",
          "name": "",
          "type": "uint8"
        }
      ],
      "stateMutability": "view",
      "type": "function",
      "constant": true
    },
    {
      "inputs": [
        {
          "internalType": "address",
          "name": "addr",
          "type": "address"
        }
      ],
      "name": "getGrade",
      "outputs": [
        {
          "internalType": "string",
          "name": "",
          "type": "string"
        }
      ],
      "stateMutability": "view",
      "type": "function",
      "constant": true
    },
    {
      "inputs": [
        {
          "internalType": "address",
          "name": "addr",
          "type": "address"
        }
      ],
      "name": "getStatus",
      "outputs": [
        {
          "internalType": "bool",
          "name": "",
          "type": "bool"
        }
      ],
      "stateMutability": "view",
      "type": "function",
      "constant": true
    },
    {
      "inputs": [
        {
          "internalType": "address",
          "name": "addr",
          "type": "address"
        }
      ],
      "name": "graceMarks",
      "outputs": [],
      "stateMutability": "nonpayable",
      "type": "function"
    },
    {
      "inputs": [
        {
          "internalType": "address",
          "name": "addr",
          "type": "address"
        },
        {
          "internalType": "uint256",
          "name": "req",
          "type": "uint256"
        }
      ],
      "name": "checktot",
      "outputs": [
        {
          "internalType": "bool",
          "name": "status",
          "type": "bool"
        }
      ],
      "stateMutability": "nonpayable",
      "type": "function"
    }
  ],
  "bytecode": "0x608060405234801561001057600080fd5b50612f9e806100206000396000f3fe608060405234801561001057600080fd5b506004361061007d5760003560e01c806330ccebb51161005b57806330ccebb5146100fe578063313739a31461012e57806335151bf11461015e578063b98eb3071461018e5761007d565b8063095aec6014610082578063149cff49146100b25780631fb71f88146100ce575b600080fd5b61009c6004803603810190610097919061158d565b6101be565b6040516100a991906115dc565b60405180910390f35b6100cc60048036038101906100c791906115f7565b61023b565b005b6100e860048036038101906100e3919061165a565b61071a565b6040516100f59190611720565b60405180910390f35b610118600480360381019061011391906115f7565b6108c0565b604051610125919061175d565b60405180910390f35b610148600480360381019061014391906115f7565b610916565b6040516101559190611720565b60405180910390f35b610178600480360381019061017391906118c0565b6109e7565b604051610185919061175d565b60405180910390f35b6101a860048036038101906101a3919061191c565b610e44565b6040516101b5919061175d565b60405180910390f35b60008060008473ffffffffffffffffffffffffffffffffffffffff1673ffffffffffffffffffffffffffffffffffffffff1681526020019081526020016000208260ff16815481106102135761021261195c565b5b90600052602060002090602091828204019190069054906101000a900460ff16905092915050565b60001515600360008373ffffffffffffffffffffffffffffffffffffffff1673ffffffffffffffffffffffffffffffffffffffff16815260200190815260200160002060009054906101000a900460ff161515141561071757600061029f82610916565b905073__StringUtils___________________________6346bdca9a826040518263ffffffff1660e01b81526004016102d89190611a21565b60206040518083038186803b1580156102f057600080fd5b505af4158015610304573d6000803e3d6000fd5b505050506040513d601f19601f820116820180604052508101906103289190611a82565b806103b6575073__StringUtils___________________________6346bdca9a826040518263ffffffff1660e01b81526004016103659190611afb565b60206040518083038186803b15801561037d57600080fd5b505af4158015610391573d6000803e3d6000fd5b505050506040513d601f19601f820116820180604052508101906103b59190611a82565b5b80610444575073__StringUtils___________________________6346bdca9a826040518263ffffffff1660e01b81526004016103f39190611b7c565b60206040518083038186803b15801561040b57600080fd5b505af415801561041f573d6000803e3d6000fd5b505050506040513d601f19601f820116820180604052508101906104439190611a82565b5b806104d2575073__StringUtils___________________________6346bdca9a826040518263ffffffff1660e01b81526004016104819190611bfd565b60206040518083038186803b15801561049957600080fd5b505af41580156104ad573d6000803e3d6000fd5b505050506040513d601f19601f820116820180604052508101906104d19190611a82565b5b156104dc57610715565b600073__StringUtils___________________________6346bdca9a836040518263ffffffff1660e01b81526004016105159190611c7e565b60206040518083038186803b15801561052d57600080fd5b505af4158015610541573d6000803e3d6000fd5b505050506040513d601f19601f820116820180604052508101906105659190611a82565b1561057357602890506106a4565b73__StringUtils___________________________6346bdca9a836040518263ffffffff1660e01b81526004016105aa9190611cff565b60206040518083038186803b1580156105c257600080fd5b505af41580156105d6573d6000803e3d6000fd5b505050506040513d601f19601f820116820180604052508101906105fa9190611a82565b1561060857602390506106a3565b73__StringUtils___________________________6346bdca9a836040518263ffffffff1660e01b815260040161063f9190611d80565b60206040518083038186803b15801561065757600080fd5b505af415801561066b573d6000803e3d6000fd5b505050506040513d601f19601f8201168201806040525081019061068f9190611a82565b1561069d57601e90506106a2565b601990505b5b5b6001600360008573ffffffffffffffffffffffffffffffffffffffff1673ffffffffffffffffffffffffffffffffffffffff16815260200190815260200160002060006101000a81548160ff0219169083151502179055506107128360058361070d9190611de4565b610e44565b50505b505b50565b6060605a8210610761576040518060400160405280600181526020017f410000000000000000000000000000000000000000000000000000000000000081525090506108bb565b605082106107a6576040518060400160405280600181526020017f420000000000000000000000000000000000000000000000000000000000000081525090506108bb565b604682106107eb576040518060400160405280600181526020017f430000000000000000000000000000000000000000000000000000000000000081525090506108bb565b603c8210610830576040518060400160405280600181526020017f440000000000000000000000000000000000000000000000000000000000000081525090506108bb565b60328210610875576040518060400160405280600181526020017f450000000000000000000000000000000000000000000000000000000000000081525090506108bb565b602d82106108ba576040518060400160405280600a81526020017f496e636f6d706c6574650000000000000000000000000000000000000000000081525090506108bb565b5b919050565b6000600360008373ffffffffffffffffffffffffffffffffffffffff1673ffffffffffffffffffffffffffffffffffffffff16815260200190815260200160002060009054906101000a900460ff169050919050565b6060600160008373ffffffffffffffffffffffffffffffffffffffff1673ffffffffffffffffffffffffffffffffffffffff168152602001908152602001600020805461096290611e6d565b80601f016020809104026020016040519081016040528092919081815260200182805461098e90611e6d565b80156109db5780601f106109b0576101008083540402835291602001916109db565b820191906000526020600020905b8154815290600101906020018083116109be57829003601f168201915b50505050509050919050565b6000816000808573ffffffffffffffffffffffffffffffffffffffff1673ffffffffffffffffffffffffffffffffffffffff1681526020019081526020016000209080519060200190610a3b929190611398565b50600080600080600090505b60058160ff161015610b1c57858160ff1681518110610a6957610a6861195c565b5b602002602001015160ff1684610a7f9190611e9f565b935060008360ff16148015610ab45750602e868260ff1681518110610aa757610aa661195c565b5b602002602001015160ff16115b15610abe57600192505b60008360ff161480610ad3575060018360ff16145b8015610aff57506014868260ff1681518110610af257610af161195c565b5b602002602001015160ff16105b15610b0957600292505b8080610b1490611ef5565b915050610a47565b50600a600484610b2c9190611de4565b610b369190611f4e565b905082600260008873ffffffffffffffffffffffffffffffffffffffff1673ffffffffffffffffffffffffffffffffffffffff1681526020019081526020016000208190555060018260ff16148015610b90575060558110155b15610c23576040518060400160405280600281526020017f412a000000000000000000000000000000000000000000000000000000000000815250600160008873ffffffffffffffffffffffffffffffffffffffff1673ffffffffffffffffffffffffffffffffffffffff1681526020019081526020016000209080519060200190610c1d92919061143f565b50610d27565b60028260ff16148015610c365750603281105b15610cc9576040518060400160405280600181526020017f4600000000000000000000000000000000000000000000000000000000000000815250600160008873ffffffffffffffffffffffffffffffffffffffff1673ffffffffffffffffffffffffffffffffffffffff1681526020019081526020016000209080519060200190610cc392919061143f565b50610d26565b610cd28161071a565b600160008873ffffffffffffffffffffffffffffffffffffffff1673ffffffffffffffffffffffffffffffffffffffff1681526020019081526020016000209080519060200190610d2492919061143f565b505b5b6000600360008873ffffffffffffffffffffffffffffffffffffffff1673ffffffffffffffffffffffffffffffffffffffff16815260200190815260200160002060006101000a81548160ff0219169083151502179055507f51bb80e7da3dd69c7b624d72023da84055fc253f522f59095dcd3bdf8a1deb87866000808973ffffffffffffffffffffffffffffffffffffffff1673ffffffffffffffffffffffffffffffffffffffff168152602001908152602001600020600160008a73ffffffffffffffffffffffffffffffffffffffff1673ffffffffffffffffffffffffffffffffffffffff16815260200190815260200160002084604051610e2f9493929190612da5565b60405180910390a16001935050505092915050565b6000600f600260008573ffffffffffffffffffffffffffffffffffffffff1673ffffffffffffffffffffffffffffffffffffffff1681526020019081526020016000205483610e939190612df8565b1115610e9e5761138d565b60006040518060800160405280600115151515815260200160011515151581526020016001151515158152602001600115151515815250905060008060008673ffffffffffffffffffffffffffffffffffffffff1673ffffffffffffffffffffffffffffffffffffffff168152602001908152602001600020805480602002602001604051908101604052809291908181526020018280548015610f8757602002820191906000526020600020906000905b82829054906101000a900460ff1660ff1681526020019060010190602082600001049283019260010382029150808411610f505790505b5050505050905060005b60058160ff1610156112335782600060048110610fb157610fb061195c565b5b60200201518015610fe35750818160ff1681518110610fd357610fd261195c565b5b602002602001015160ff16600a11155b801561100f57506014828260ff16815181106110025761100161195c565b5b602002602001015160ff16105b1561103e5760008360006004811061102a5761102961195c565b5b602002019015159081151581525050611220565b826001600481106110525761105161195c565b5b602002015180156110845750818160ff16815181106110745761107361195c565b5b602002602001015160ff16601411155b80156110b05750601e828260ff16815181106110a3576110a261195c565b5b602002602001015160ff16105b156110df576000836001600481106110cb576110ca61195c565b5b60200201901515908115158152505061121f565b826002600481106110f3576110f261195c565b5b602002015180156111255750818160ff16815181106111155761111461195c565b5b602002602001015160ff16601e11155b801561115157506028828260ff16815181106111445761114361195c565b5b602002602001015160ff16105b156111805760008360026004811061116c5761116b61195c565b5b60200201901515908115158152505061121e565b826003600481106111945761119361195c565b5b602002015180156111c65750818160ff16815181106111b6576111b561195c565b5b602002602001015160ff16602811155b80156111f257506032828260ff16815181106111e5576111e461195c565b5b602002602001015160ff16105b1561121d5760008360036004811061120d5761120c61195c565b5b6020020190151590811515815250505b5b5b5b808061122b90611ef5565b915050610f91565b50816000600481106112485761124761195c565b5b60200201518061126d5750816001600481106112675761126661195c565b5b60200201515b8061128d5750816002600481106112875761128661195c565b5b60200201515b806112ad5750816003600481106112a7576112a661195c565b5b60200201515b6112f1577f51a7f65c6325882f237d4aeb43228179cfad48b868511d508e24b4437a8191376040516112de90612e9e565b60405180910390a1600092505050611392565b6000600a6004866113029190611de4565b61130c9190611f4e565b90506113178161071a565b6040516020016113279190612f46565b604051602081830303815290604052600160008873ffffffffffffffffffffffffffffffffffffffff1673ffffffffffffffffffffffffffffffffffffffff168152602001908152602001600020908051906020019061138892919061143f565b505050505b600190505b92915050565b82805482825590600052602060002090601f0160209004810192821561142e5791602002820160005b838211156113ff57835183826101000a81548160ff021916908360ff16021790555092602001926001016020816000010492830192600103026113c1565b801561142c5782816101000a81549060ff02191690556001016020816000010492830192600103026113ff565b505b50905061143b91906114c5565b5090565b82805461144b90611e6d565b90600052602060002090601f01602090048101928261146d57600085556114b4565b82601f1061148657805160ff19168380011785556114b4565b828001600101855582156114b4579182015b828111156114b3578251825591602001919060010190611498565b5b5090506114c191906114c5565b5090565b5b808211156114de5760008160009055506001016114c6565b5090565b6000604051905090565b600080fd5b600080fd5b600073ffffffffffffffffffffffffffffffffffffffff82169050919050565b6000611521826114f6565b9050919050565b61153181611516565b811461153c57600080fd5b50565b60008135905061154e81611528565b92915050565b600060ff82169050919050565b61156a81611554565b811461157557600080fd5b50565b60008135905061158781611561565b92915050565b600080604083850312156115a4576115a36114ec565b5b60006115b28582860161153f565b92505060206115c385828601611578565b9150509250929050565b6115d681611554565b82525050565b60006020820190506115f160008301846115cd565b92915050565b60006020828403121561160d5761160c6114ec565b5b600061161b8482850161153f565b91505092915050565b6000819050919050565b61163781611624565b811461164257600080fd5b50565b6000813590506116548161162e565b92915050565b6000602082840312156116705761166f6114ec565b5b600061167e84828501611645565b91505092915050565b600081519050919050565b600082825260208201905092915050565b60005b838110156116c15780820151818401526020810190506116a6565b838111156116d0576000848401525b50505050565b6000601f19601f8301169050919050565b60006116f282611687565b6116fc8185611692565b935061170c8185602086016116a3565b611715816116d6565b840191505092915050565b6000602082019050818103600083015261173a81846116e7565b905092915050565b60008115159050919050565b61175781611742565b82525050565b6000602082019050611772600083018461174e565b92915050565b600080fd5b7f4e487b7100000000000000000000000000000000000000000000000000000000600052604160045260246000fd5b6117b5826116d6565b810181811067ffffffffffffffff821117156117d4576117d361177d565b5b80604052505050565b60006117e76114e2565b90506117f382826117ac565b919050565b600067ffffffffffffffff8211156118135761181261177d565b5b602082029050602081019050919050565b600080fd5b600061183c611837846117f8565b6117dd565b9050808382526020820190506020840283018581111561185f5761185e611824565b5b835b8181101561188857806118748882611578565b845260208401935050602081019050611861565b5050509392505050565b600082601f8301126118a7576118a6611778565b5b81356118b7848260208601611829565b91505092915050565b600080604083850312156118d7576118d66114ec565b5b60006118e58582860161153f565b925050602083013567ffffffffffffffff811115611906576119056114f1565b5b61191285828601611892565b9150509250929050565b60008060408385031215611933576119326114ec565b5b60006119418582860161153f565b925050602061195285828601611645565b9150509250929050565b7f4e487b7100000000000000000000000000000000000000000000000000000000600052603260045260246000fd5b600082825260208201905092915050565b60006119a782611687565b6119b1818561198b565b93506119c18185602086016116a3565b6119ca816116d6565b840191505092915050565b7f412a000000000000000000000000000000000000000000000000000000000000600082015250565b6000611a0b60028361198b565b9150611a16826119d5565b602082019050919050565b60006040820190508181036000830152611a3b818461199c565b90508181036020830152611a4e816119fe565b905092915050565b611a5f81611742565b8114611a6a57600080fd5b50565b600081519050611a7c81611a56565b92915050565b600060208284031215611a9857611a976114ec565b5b6000611aa684828501611a6d565b91505092915050565b7f4100000000000000000000000000000000000000000000000000000000000000600082015250565b6000611ae560018361198b565b9150611af082611aaf565b602082019050919050565b60006040820190508181036000830152611b15818461199c565b90508181036020830152611b2881611ad8565b905092915050565b7f4200000000000000000000000000000000000000000000000000000000000000600082015250565b6000611b6660018361198b565b9150611b7182611b30565b602082019050919050565b60006040820190508181036000830152611b96818461199c565b90508181036020830152611ba981611b59565b905092915050565b7f4600000000000000000000000000000000000000000000000000000000000000600082015250565b6000611be760018361198b565b9150611bf282611bb1565b602082019050919050565b60006040820190508181036000830152611c17818461199c565b90508181036020830152611c2a81611bda565b905092915050565b7f4300000000000000000000000000000000000000000000000000000000000000600082015250565b6000611c6860018361198b565b9150611c7382611c32565b602082019050919050565b60006040820190508181036000830152611c98818461199c565b90508181036020830152611cab81611c5b565b905092915050565b7f4400000000000000000000000000000000000000000000000000000000000000600082015250565b6000611ce960018361198b565b9150611cf482611cb3565b602082019050919050565b60006040820190508181036000830152611d19818461199c565b90508181036020830152611d2c81611cdc565b905092915050565b7f4500000000000000000000000000000000000000000000000000000000000000600082015250565b6000611d6a60018361198b565b9150611d7582611d34565b602082019050919050565b60006040820190508181036000830152611d9a818461199c565b90508181036020830152611dad81611d5d565b905092915050565b7f4e487b7100000000000000000000000000000000000000000000000000000000600052601160045260246000fd5b6000611def82611624565b9150611dfa83611624565b9250817fffffffffffffffffffffffffffffffffffffffffffffffffffffffffffffffff0483118215151615611e3357611e32611db5565b5b828202905092915050565b7f4e487b7100000000000000000000000000000000000000000000000000000000600052602260045260246000fd5b60006002820490506001821680611e8557607f821691505b60208210811415611e9957611e98611e3e565b5b50919050565b6000611eaa82611624565b9150611eb583611624565b9250827fffffffffffffffffffffffffffffffffffffffffffffffffffffffffffffffff03821115611eea57611ee9611db5565b5b828201905092915050565b6000611f0082611554565b915060ff821415611f1457611f13611db5565b5b600182019050919050565b7f4e487b7100000000000000000000000000000000000000000000000000000000600052601260045260246000fd5b6000611f5982611624565b9150611f6483611624565b925082611f7457611f73611f1f565b5b828204905092915050565b611f8881611516565b82525050565b600081549050919050565b600082825260208201905092915050565b60008190508160005260206000209050919050565b611fc881611554565b82525050565b60008160001c9050919050565b600060ff82169050919050565b6000611ffb611ff683611fce565b611fdb565b9050919050565b60008160081c9050919050565b600061202261201d83612002565b611fdb565b9050919050565b60008160101c9050919050565b600061204961204483612029565b611fdb565b9050919050565b60008160181c9050919050565b600061207061206b83612050565b611fdb565b9050919050565b60008160201c9050919050565b600061209761209283612077565b611fdb565b9050919050565b60008160281c9050919050565b60006120be6120b98361209e565b611fdb565b9050919050565b60008160301c9050919050565b60006120e56120e0836120c5565b611fdb565b9050919050565b60008160381c9050919050565b600061210c612107836120ec565b611fdb565b9050919050565b60008160401c9050919050565b600061213361212e83612113565b611fdb565b9050919050565b60008160481c9050919050565b600061215a6121558361213a565b611fdb565b9050919050565b60008160501c9050919050565b600061218161217c83612161565b611fdb565b9050919050565b60008160581c9050919050565b60006121a86121a383612188565b611fdb565b9050919050565b60008160601c9050919050565b60006121cf6121ca836121af565b611fdb565b9050919050565b60008160681c9050919050565b60006121f66121f1836121d6565b611fdb565b9050919050565b60008160701c9050919050565b600061221d612218836121fd565b611fdb565b9050919050565b60008160781c9050919050565b600061224461223f83612224565b611fdb565b9050919050565b60008160801c9050919050565b600061226b6122668361224b565b611fdb565b9050919050565b60008160881c9050919050565b600061229261228d83612272565b611fdb565b9050919050565b60008160901c9050919050565b60006122b96122b483612299565b611fdb565b9050919050565b60008160981c9050919050565b60006122e06122db836122c0565b611fdb565b9050919050565b60008160a01c9050919050565b6000612307612302836122e7565b611fdb565b9050919050565b60008160a81c9050919050565b600061232e6123298361230e565b611fdb565b9050919050565b60008160b01c9050919050565b600061235561235083612335565b611fdb565b9050919050565b60008160b81c9050919050565b600061237c6123778361235c565b611fdb565b9050919050565b60008160c01c9050919050565b60006123a361239e83612383565b611fdb565b9050919050565b60008160c81c9050919050565b60006123ca6123c5836123aa565b611fdb565b9050919050565b60008160d01c9050919050565b60006123f16123ec836123d1565b611fdb565b9050919050565b60008160d81c9050919050565b6000612418612413836123f8565b611fdb565b9050919050565b60008160e01c9050919050565b600061243f61243a8361241f565b611fdb565b9050919050565b60008160e81c9050919050565b600061246661246183612446565b611fdb565b9050919050565b60008160f01c9050919050565b600061248d6124888361246d565b611fdb565b9050919050565b60008160f81c9050919050565b60006124b46124af83612494565b611fdb565b9050919050565b60006124c682611f8e565b6124d08185611f99565b9350836124dc84611faa565b6000600115612809575b836001602003820110156128085781546125088861250383611fe8565b611fbf565b6020880197506125208861251b8361200f565b611fbf565b6020880197506125388861253383612036565b611fbf565b6020880197506125508861254b8361205d565b611fbf565b6020880197506125688861256383612084565b611fbf565b6020880197506125808861257b836120ab565b611fbf565b60208801975061259888612593836120d2565b611fbf565b6020880197506125b0886125ab836120f9565b611fbf565b6020880197506125c8886125c383612120565b611fbf565b6020880197506125e0886125db83612147565b611fbf565b6020880197506125f8886125f38361216e565b611fbf565b6020880197506126108861260b83612195565b611fbf565b60208801975061262888612623836121bc565b611fbf565b6020880197506126408861263b836121e3565b611fbf565b602088019750612658886126538361220a565b611fbf565b6020880197506126708861266b83612231565b611fbf565b6020880197506126888861268383612258565b611fbf565b6020880197506126a08861269b8361227f565b611fbf565b6020880197506126b8886126b3836122a6565b611fbf565b6020880197506126d0886126cb836122cd565b611fbf565b6020880197506126e8886126e3836122f4565b611fbf565b602088019750612700886126fb8361231b565b611fbf565b6020880197506127188861271383612342565b611fbf565b6020880197506127308861272b83612369565b611fbf565b6020880197506127488861274383612390565b611fbf565b6020880197506127608861275b836123b7565b611fbf565b60208801975061277888612773836123de565b611fbf565b6020880197506127908861278b83612405565b611fbf565b6020880197506127a8886127a38361242c565b611fbf565b6020880197506127c0886127bb83612453565b611fbf565b6020880197506127d8886127d38361247a565b611fbf565b6020880197506127f0886127eb836124a1565b611fbf565b602088019750600183019250506020810190506124e6565b5b600115612cf4578154848210156128395761282c8861282783611fe8565b611fbf565b6020880197506001820191505b84821015612860576128538861284e8361200f565b611fbf565b6020880197506001820191505b848210156128875761287a8861287583612036565b611fbf565b6020880197506001820191505b848210156128ae576128a18861289c8361205d565b611fbf565b6020880197506001820191505b848210156128d5576128c8886128c383612084565b611fbf565b6020880197506001820191505b848210156128fc576128ef886128ea836120ab565b611fbf565b6020880197506001820191505b848210156129235761291688612911836120d2565b611fbf565b6020880197506001820191505b8482101561294a5761293d88612938836120f9565b611fbf565b6020880197506001820191505b84821015612971576129648861295f83612120565b611fbf565b6020880197506001820191505b848210156129985761298b8861298683612147565b611fbf565b6020880197506001820191505b848210156129bf576129b2886129ad8361216e565b611fbf565b6020880197506001820191505b848210156129e6576129d9886129d483612195565b611fbf565b6020880197506001820191505b84821015612a0d57612a00886129fb836121bc565b611fbf565b6020880197506001820191505b84821015612a3457612a2788612a22836121e3565b611fbf565b6020880197506001820191505b84821015612a5b57612a4e88612a498361220a565b611fbf565b6020880197506001820191505b84821015612a8257612a7588612a7083612231565b611fbf565b6020880197506001820191505b84821015612aa957612a9c88612a9783612258565b611fbf565b6020880197506001820191505b84821015612ad057612ac388612abe8361227f565b611fbf565b6020880197506001820191505b84821015612af757612aea88612ae5836122a6565b611fbf565b6020880197506001820191505b84821015612b1e57612b1188612b0c836122cd565b611fbf565b6020880197506001820191505b84821015612b4557612b3888612b33836122f4565b611fbf565b6020880197506001820191505b84821015612b6c57612b5f88612b5a8361231b565b611fbf565b6020880197506001820191505b84821015612b9357612b8688612b8183612342565b611fbf565b6020880197506001820191505b84821015612bba57612bad88612ba883612369565b611fbf565b6020880197506001820191505b84821015612be157612bd488612bcf83612390565b611fbf565b6020880197506001820191505b84821015612c0857612bfb88612bf6836123b7565b611fbf565b6020880197506001820191505b84821015612c2f57612c2288612c1d836123de565b611fbf565b6020880197506001820191505b84821015612c5657612c4988612c4483612405565b611fbf565b6020880197506001820191505b84821015612c7d57612c7088612c6b8361242c565b611fbf565b6020880197506001820191505b84821015612ca457612c9788612c9283612453565b611fbf565b6020880197506001820191505b84821015612ccb57612cbe88612cb98361247a565b611fbf565b6020880197506001820191505b84821015612cf257612ce588612ce0836124a1565b611fbf565b6020880197506001820191505b505b8694505050505092915050565b60008190508160005260206000209050919050565b60008154612d2381611e6d565b612d2d8186611692565b94506001821660008114612d485760018114612d5a57612d8d565b60ff1983168652602086019350612d8d565b612d6385612d01565b60005b83811015612d8557815481890152600182019150602081019050612d66565b808801955050505b50505092915050565b612d9f81611624565b82525050565b6000608082019050612dba6000830187611f7f565b8181036020830152612dcc81866124bb565b90508181036040830152612de08185612d16565b9050612def6060830184612d96565b95945050505050565b6000612e0382611624565b9150612e0e83611624565b925082821015612e2157612e20611db5565b5b828203905092915050565b7f427567205472696767657265642121212c20456c696769626c6520666f72204760008201527f72616465204368616e6765000000000000000000000000000000000000000000602082015250565b6000612e88602b83611692565b9150612e9382612e2c565b604082019050919050565b60006020820190508181036000830152612eb781612e7b565b9050919050565b600081905092915050565b6000612ed482611687565b612ede8185612ebe565b9350612eee8185602086016116a3565b80840191505092915050565b7f2300000000000000000000000000000000000000000000000000000000000000600082015250565b6000612f30600183612ebe565b9150612f3b82612efa565b600182019050919050565b6000612f528284612ec9565b9150612f5d82612f23565b91508190509291505056fea26469706673582212205d66e291360cb8a072068940103c14d741704007873cc24c5385ad206612c5f664736f6c63430008090033",
  "immutableReferences": {},
  "source": "pragma solidity >=0.4.2 <0.9.0;\n\n\nimport \"./stringUtils.sol\";\n\n/*\n\n\nTHIS CONTRACT CONTAINS UNCHECKED RETURN VALUE FROM A FUNCTION BUG. COONTRACT BEHAVIOR IS SUCH THAT THERE IS A FUNCTION CALL BASED ON A CONDITOION, \nIRRESPECTIVE OF THE RETURN VALUE OF THE CALLED FUNCTION, CONDITION GETS UPDATED, SOMETIMES LEADING TO BUGGY/UNINTENDED BEHAVIOR.\n\n\n*/\n\ncontract Marks_UCS {\n    \n    using StringUtils for string;\n\n    mapping (address => uint8[]) marks;\n    mapping (address => string) grade;\n    mapping (address => uint256) totalmarks;\n    mapping(address => bool) UpdateStatus;\n\n    event MarksAdd(address addr, uint8[] mark, string g , uint256 avg);\n    event Message(string message);\n    \n\n    function insert(address addr, uint8[] memory m ) public returns(bool)\n    {\n            marks[addr] = m;\n\n            uint256 tot = 0;\n            uint8 flag = 0;\n            uint256 avg ;\n            for (uint8 i = 0 ;i<5;i++)\n            {\n                    tot+= m[i];\n\n                    if (flag == 0 && m[i]>46){\n\n                        flag = 1;\n                    }\n\n                    if ((flag==0 || flag == 1) && m[i]<20){\n                        flag = 2;\n\n                    }\n            }\n\n            avg = (tot * 4)/10;\n\n            totalmarks[addr] = tot;\n\n            if (flag== 1 && avg>=85){\n                grade[addr] = 'A*';\n            }\n            else if (flag==2 && avg<50)\n            {\n                grade[addr] = 'F';\n            }\n            else\n            {   \n        \n                grade[addr] = compgrade(avg);\n            }\n\n            UpdateStatus[addr] = false;\n            emit MarksAdd(addr,marks[addr],grade[addr],avg);\n            return true;\n    }\n\n    function compgrade(uint256 avg) public returns(string memory)\n    {\n        if (avg>=90) return 'A';\n        if (avg>=80) return 'B';\n        if (avg>=70) return 'C';\n        if (avg>=60) return 'D';\n        if (avg>=50) return 'E';\n        if (avg>=45) return 'Incomplete';\n    }\n\n    function getIndMark(address addr, uint8 idx) public view returns(uint8){\n\n         return marks[addr][idx];\n    }    \n\n    function getGrade(address addr) public view returns(string memory){\n\n         return grade[addr];\n    }\n\n    function getStatus(address addr) public view returns(bool){\n\n         return UpdateStatus[addr];\n    }\n\n    function graceMarks(address addr) public{\n\n        if (UpdateStatus[addr] == false){\n            \n            \n            string memory g = getGrade(addr);\n            \n\n            if (StringUtils.equal(g,\"A*\") || StringUtils.equal(g,\"A\") || StringUtils.equal(g,\"B\") || StringUtils.equal(g,\"F\")){\n\n               \n\n\n            }\n\n            else\n            {\n                uint256 req = 0;\n                if(StringUtils.equal(g,\"C\"))\n                {\n                    req = 40;\n\n                }\n                else if (StringUtils.equal(g,\"D\"))\n                {\n                    req = 35;\n\n                }\n                else if (StringUtils.equal(g,\"E\"))\n                {\n                    req = 30;\n\n                }\n                else\n                {\n                    req = 25;\n\n                }\n\n                \n                UpdateStatus[addr] = true;   // Without Checking whether below function call's return value, condition is updated (Buggy Line)\n                checktot(addr,req*5);\n\n            }\n\n            \n\n        }\n    \n    }\n\n\n    function checktot(address addr, uint256 req) public returns(bool status ){\n        if (req - totalmarks[addr]>15)\n        {\n           \n        }\n\n        else\n        {\n            bool[4] memory flags = [true,true,true,true];                             //Flag Array for triggering the bug\n            uint8[] memory m = marks[addr];                                           \n                                                   \n            for (uint8 i = 0 ;i<5;i++) \n            {\n                if (flags[0] &&  10<=m[i] && m[i]<20) flags[0] = false;                 //Condition testing to trigger bug\n                else if (flags[1] &&  20<=m[i] && m[i]<30) flags[1] = false;            //Condition testing to trigger bug\n                else if (flags[2] &&  30<=m[i] && m[i]<40) flags[2] = false;            //Condition testing to trigger bug\n                else if (flags[3] &&  40<=m[i] && m[i]<50) flags[3] = false;            //Condition testing to trigger bug\n             \n                \n            }\n\n           \n            \n             if (!(flags[0]||flags[1]||flags[2]||flags[3]))\n             {\n                 emit Message('Bug Triggered!!!, Eligible for Grade Change');\n                 return false;\n             }\n\n             else{\n\n                uint256 avg = (req * 4)/10;\n                grade[addr] = string(abi.encodePacked(compgrade(avg),'#'));\n                //grade[addr] = compgrade(avg);    \n             }\n\n        }\n\n        return true;\n\n\n    }    \n\n\n \n    }\n    ",
  "sourcePath": "/home/harsh/Desktop/LMS/contracts/Marks_UCS.sol",
  "compiler": {
    "name": "solc",
    "version": "0.8.9+commit.e5eed63a.Emscripten.clang"
  },
  "schemaVersion": "3.4.8",
  "updatedAt": "2022-08-08T08:55:05.198Z",
  "networkType": "ethereum",
  "devdoc": {
    "kind": "dev",
    "methods": {},
    "version": 1
  },
  "userdoc": {
    "kind": "user",
    "methods": {},
    "version": 1
  }
}