{
  "contractName": "Marks_Magic",
  "abi": [
    {
      "anonymous": false,
      "inputs": [
        {
          "indexed": false,
          "internalType": "string",
          "name": "m",
          "type": "string"
        }
      ],
      "name": "BugTrigger",
      "type": "event"
    },
    {
      "anonymous": false,
      "inputs": [
        {
          "indexed": false,
          "internalType": "address",
          "name": "addr",
          "type": "address"
        },
        {
          "indexed": false,
          "internalType": "uint8[5]",
          "name": "mark",
          "type": "uint8[5]"
        },
        {
          "indexed": false,
          "internalType": "string",
          "name": "g",
          "type": "string"
        },
        {
          "indexed": false,
          "internalType": "uint256",
          "name": "avg",
          "type": "uint256"
        }
      ],
      "name": "MarksAdd",
      "type": "event"
    },
    {
      "inputs": [
        {
          "internalType": "address",
          "name": "addr",
          "type": "address"
        },
        {
          "internalType": "uint8[5]",
          "name": "m",
          "type": "uint8[5]"
        }
      ],
      "name": "insert",
      "outputs": [
        {
          "internalType": "bool",
          "name": "",
          "type": "bool"
        }
      ],
      "stateMutability": "nonpayable",
      "type": "function"
    },
    {
      "inputs": [
        {
          "internalType": "uint256",
          "name": "avg",
          "type": "uint256"
        }
      ],
      "name": "compgrade",
      "outputs": [
        {
          "internalType": "string",
          "name": "",
          "type": "string"
        }
      ],
      "stateMutability": "nonpayable",
      "type": "function"
    },
    {
      "inputs": [
        {
          "internalType": "address",
          "name": "addr",
          "type": "address"
        },
        {
          "internalType": "uint8",
          "name": "idx",
          "type": "uint8"
        }
      ],
      "name": "getIndMark",
      "outputs": [
        {
          "internalType": "uint8",
          "name": "",
          "type": "uint8"
        }
      ],
      "stateMutability": "view",
      "type": "function",
      "constant": true
    },
    {
      "inputs": [
        {
          "internalType": "address",
          "name": "addr",
          "type": "address"
        }
      ],
      "name": "getGrade",
      "outputs": [
        {
          "internalType": "string",
          "name": "",
          "type": "string"
        }
      ],
      "stateMutability": "view",
      "type": "function",
      "constant": true
    },
    {
      "inputs": [
        {
          "internalType": "address",
          "name": "addr",
          "type": "address"
        }
      ],
      "name": "graceMarks",
      "outputs": [
        {
          "internalType": "string",
          "name": "message",
          "type": "string"
        }
      ],
      "stateMutability": "nonpayable",
      "type": "function"
    },
    {
      "inputs": [
        {
          "internalType": "address",
          "name": "addr",
          "type": "address"
        },
        {
          "internalType": "uint256",
          "name": "req",
          "type": "uint256"
        }
      ],
      "name": "checktot",
      "outputs": [
        {
          "internalType": "string",
          "name": "message",
          "type": "string"
        }
      ],
      "stateMutability": "nonpayable",
      "type": "function"
    }
  ],
  "bytecode": "0x608060405234801561001057600080fd5b50612b1a806100206000396000f3fe608060405234801561001057600080fd5b50600436106100625760003560e01c8063095aec6014610067578063149cff49146100975780631fb71f88146100c7578063313739a3146100f75780635ba6836d14610127578063b98eb30714610157575b600080fd5b610081600480360381019061007c919061151d565b610187565b60405161008e919061156c565b60405180910390f35b6100b160048036038101906100ac9190611587565b6101fa565b6040516100be919061164d565b60405180910390f35b6100e160048036038101906100dc91906116a5565b61047e565b6040516100ee919061164d565b60405180910390f35b610111600480360381019061010c9190611587565b610624565b60405161011e919061164d565b60405180910390f35b610141600480360381019061013c9190611808565b6106f5565b60405161014e9190611863565b60405180910390f35b610171600480360381019061016c919061187e565b610aec565b60405161017e919061164d565b60405180910390f35b60008060008473ffffffffffffffffffffffffffffffffffffffff1673ffffffffffffffffffffffffffffffffffffffff1681526020019081526020016000208260ff16600581106101dc576101db6118be565b5b602091828204019190069054906101000a900460ff16905092915050565b6060600061020783610624565b905060405180602001604052806000815250915061025a816040518060400160405280600281526020017f412a000000000000000000000000000000000000000000000000000000000000815250611148565b806102a0575061029f816040518060400160405280600181526020017f4100000000000000000000000000000000000000000000000000000000000000815250611148565b5b806102e657506102e5816040518060400160405280600181526020017f4200000000000000000000000000000000000000000000000000000000000000815250611148565b5b8061032c575061032b816040518060400160405280600181526020017f4600000000000000000000000000000000000000000000000000000000000000815250611148565b5b1561036e576040518060400160405280601c81526020017f4e6f7420456c696769626c6520666f72204772616365204d61726b73000000008152509150610478565b60006103af826040518060400160405280600181526020017f4300000000000000000000000000000000000000000000000000000000000000815250611148565b156103bd576028905061045e565b6103fc826040518060400160405280600181526020017f4400000000000000000000000000000000000000000000000000000000000000815250611148565b1561040a576023905061045d565b610449826040518060400160405280600181526020017f4500000000000000000000000000000000000000000000000000000000000000815250611148565b1561045757601e905061045c565b601990505b5b5b6104748460058361046f919061191c565b610aec565b9250505b50919050565b6060605a82106104c5576040518060400160405280600181526020017f4100000000000000000000000000000000000000000000000000000000000000815250905061061f565b6050821061050a576040518060400160405280600181526020017f4200000000000000000000000000000000000000000000000000000000000000815250905061061f565b6046821061054f576040518060400160405280600181526020017f4300000000000000000000000000000000000000000000000000000000000000815250905061061f565b603c8210610594576040518060400160405280600181526020017f4400000000000000000000000000000000000000000000000000000000000000815250905061061f565b603282106105d9576040518060400160405280600181526020017f4500000000000000000000000000000000000000000000000000000000000000815250905061061f565b602d821061061e576040518060400160405280600a81526020017f496e636f6d706c65746500000000000000000000000000000000000000000000815250905061061f565b5b919050565b6060600160008373ffffffffffffffffffffffffffffffffffffffff1673ffffffffffffffffffffffffffffffffffffffff1681526020019081526020016000208054610670906119a5565b80601f016020809104026020016040519081016040528092919081815260200182805461069c906119a5565b80156106e95780601f106106be576101008083540402835291602001916106e9565b820191906000526020600020905b8154815290600101906020018083116106cc57829003601f168201915b50505050509050919050565b6000816000808573ffffffffffffffffffffffffffffffffffffffff1673ffffffffffffffffffffffffffffffffffffffff16815260200190815260200160002090600561074492919061133a565b50600080600080600090505b60058160ff16101561081c57858160ff1660058110610772576107716118be565b5b602002015160ff168461078591906119d7565b935060008360ff161480156107b75750602e868260ff16600581106107ad576107ac6118be565b5b602002015160ff16115b156107c157600192505b60008360ff1614806107d6575060018360ff16145b80156107ff57506014868260ff16600581106107f5576107f46118be565b5b602002015160ff16105b1561080957600292505b808061081490611a2d565b915050610750565b50600a60048461082c919061191c565b6108369190611a86565b905082600260008873ffffffffffffffffffffffffffffffffffffffff1673ffffffffffffffffffffffffffffffffffffffff1681526020019081526020016000208190555060018260ff16148015610890575060558110155b15610923576040518060400160405280600281526020017f412a000000000000000000000000000000000000000000000000000000000000815250600160008873ffffffffffffffffffffffffffffffffffffffff1673ffffffffffffffffffffffffffffffffffffffff168152602001908152602001600020908051906020019061091d9291906113d4565b50610a27565b60028260ff161480156109365750603281105b156109c9576040518060400160405280600181526020017f4600000000000000000000000000000000000000000000000000000000000000815250600160008873ffffffffffffffffffffffffffffffffffffffff1673ffffffffffffffffffffffffffffffffffffffff16815260200190815260200160002090805190602001906109c39291906113d4565b50610a26565b6109d28161047e565b600160008873ffffffffffffffffffffffffffffffffffffffff1673ffffffffffffffffffffffffffffffffffffffff1681526020019081526020016000209080519060200190610a249291906113d4565b505b5b7fd8f4d3fb5ecd0bb9af8b037f07b80ec7653fa2cd4d72a050469b24738aacad4a866000808973ffffffffffffffffffffffffffffffffffffffff1673ffffffffffffffffffffffffffffffffffffffff168152602001908152602001600020600160008a73ffffffffffffffffffffffffffffffffffffffff1673ffffffffffffffffffffffffffffffffffffffff16815260200190815260200160002084604051610ad794939291906128a4565b60405180910390a16001935050505092915050565b6060604051806020016040528060008152509050600f600260008573ffffffffffffffffffffffffffffffffffffffff1673ffffffffffffffffffffffffffffffffffffffff1681526020019081526020016000205483610b4d91906128f1565b1115610b90576040518060400160405280601681526020017f4e6f7420456e6f756768204772616365204d61726b73000000000000000000008152509050611142565b60006040518060800160405280600115151515815260200160011515151581526020016001151515158152602001600115151515815250905060008060008673ffffffffffffffffffffffffffffffffffffffff1673ffffffffffffffffffffffffffffffffffffffff168152602001908152602001600020600580602002604051908101604052809291908260058015610c66576020028201916000905b82829054906101000a900460ff1660ff1681526020019060010190602082600001049283019260010382029150808411610c2f5790505b5050505050905060005b60058160ff161015610efa5782600060048110610c9057610c8f6118be565b5b60200201518015610cbf5750818160ff1660058110610cb257610cb16118be565b5b602002015160ff16600a11155b8015610ce857506014828260ff1660058110610cde57610cdd6118be565b5b602002015160ff16105b15610d1757600083600060048110610d0357610d026118be565b5b602002019015159081151581525050610ee7565b82600160048110610d2b57610d2a6118be565b5b60200201518015610d5a5750818160ff1660058110610d4d57610d4c6118be565b5b602002015160ff16601411155b8015610d835750601e828260ff1660058110610d7957610d786118be565b5b602002015160ff16105b15610db257600083600160048110610d9e57610d9d6118be565b5b602002019015159081151581525050610ee6565b82600260048110610dc657610dc56118be565b5b60200201518015610df55750818160ff1660058110610de857610de76118be565b5b602002015160ff16601e11155b8015610e1e57506028828260ff1660058110610e1457610e136118be565b5b602002015160ff16105b15610e4d57600083600260048110610e3957610e386118be565b5b602002019015159081151581525050610ee5565b82600360048110610e6157610e606118be565b5b60200201518015610e905750818160ff1660058110610e8357610e826118be565b5b602002015160ff16602811155b8015610eb957506032828260ff1660058110610eaf57610eae6118be565b5b602002015160ff16105b15610ee457600083600360048110610ed457610ed36118be565b5b6020020190151590811515815250505b5b5b5b8080610ef290611a2d565b915050610c70565b5081600060048110610f0f57610f0e6118be565b5b602002015180610f34575081600160048110610f2e57610f2d6118be565b5b60200201515b80610f54575081600260048110610f4e57610f4d6118be565b5b60200201515b80610f74575081600360048110610f6e57610f6d6118be565b5b60200201515b158015610f8d57506001600343610f8b9190612925565b145b15610fdb577f46da1f58bde28f80b7a8974ec1421dc21b9a1138a370668675d31311f6026903604051610fbf906129a2565b60405180910390a16000610fd657610fd56129c2565b5b611075565b6000600a600486610fec919061191c565b610ff69190611a86565b90506110018161047e565b6040516020016110119190612a79565b604051602081830303815290604052600160008873ffffffffffffffffffffffffffffffffffffffff1673ffffffffffffffffffffffffffffffffffffffff16815260200190815260200160002090805190602001906110729291906113d4565b50505b600160008673ffffffffffffffffffffffffffffffffffffffff1673ffffffffffffffffffffffffffffffffffffffff16815260200190815260200160002080546110bf906119a5565b80601f01602080910402602001604051908101604052809291908181526020018280546110eb906119a5565b80156111385780601f1061110d57610100808354040283529160200191611138565b820191906000526020600020905b81548152906001019060200180831161111b57829003601f168201915b5050505050925050505b92915050565b600080611155848461115e565b14905092915050565b6000808390506000839050600082519050808251101561117d57815190505b60005b818110156112e05782818151811061119b5761119a6118be565b5b602001015160f81c60f81b7effffffffffffffffffffffffffffffffffffffffffffffffffffffffffffff19168482815181106111db576111da6118be565b5b602001015160f81c60f81b7effffffffffffffffffffffffffffffffffffffffffffffffffffffffffffff1916101561123a577fffffffffffffffffffffffffffffffffffffffffffffffffffffffffffffffff945050505050611334565b82818151811061124d5761124c6118be565b5b602001015160f81c60f81b7effffffffffffffffffffffffffffffffffffffffffffffffffffffffffffff191684828151811061128d5761128c6118be565b5b602001015160f81c60f81b7effffffffffffffffffffffffffffffffffffffffffffffffffffffffffffff191611156112cd576001945050505050611334565b80806112d890612a9b565b915050611180565b50815183511015611316577fffffffffffffffffffffffffffffffffffffffffffffffffffffffffffffffff9350505050611334565b81518351111561132c5760019350505050611334565b600093505050505b92915050565b826005601f016020900481019282156113c35791602002820160005b8382111561139457835183826101000a81548160ff021916908360ff1602179055509260200192600101602081600001049283019260010302611356565b80156113c15782816101000a81549060ff0219169055600101602081600001049283019260010302611394565b505b5090506113d0919061145a565b5090565b8280546113e0906119a5565b90600052602060002090601f0160209004810192826114025760008555611449565b82601f1061141b57805160ff1916838001178555611449565b82800160010185558215611449579182015b8281111561144857825182559160200191906001019061142d565b5b509050611456919061145a565b5090565b5b8082111561147357600081600090555060010161145b565b5090565b6000604051905090565b600080fd5b600073ffffffffffffffffffffffffffffffffffffffff82169050919050565b60006114b182611486565b9050919050565b6114c1816114a6565b81146114cc57600080fd5b50565b6000813590506114de816114b8565b92915050565b600060ff82169050919050565b6114fa816114e4565b811461150557600080fd5b50565b600081359050611517816114f1565b92915050565b6000806040838503121561153457611533611481565b5b6000611542858286016114cf565b925050602061155385828601611508565b9150509250929050565b611566816114e4565b82525050565b6000602082019050611581600083018461155d565b92915050565b60006020828403121561159d5761159c611481565b5b60006115ab848285016114cf565b91505092915050565b600081519050919050565b600082825260208201905092915050565b60005b838110156115ee5780820151818401526020810190506115d3565b838111156115fd576000848401525b50505050565b6000601f19601f8301169050919050565b600061161f826115b4565b61162981856115bf565b93506116398185602086016115d0565b61164281611603565b840191505092915050565b600060208201905081810360008301526116678184611614565b905092915050565b6000819050919050565b6116828161166f565b811461168d57600080fd5b50565b60008135905061169f81611679565b92915050565b6000602082840312156116bb576116ba611481565b5b60006116c984828501611690565b91505092915050565b600080fd5b7f4e487b7100000000000000000000000000000000000000000000000000000000600052604160045260246000fd5b61170f82611603565b810181811067ffffffffffffffff8211171561172e5761172d6116d7565b5b80604052505050565b6000611741611477565b905061174d8282611706565b919050565b600067ffffffffffffffff82111561176d5761176c6116d7565b5b602082029050919050565b600080fd5b600061179061178b84611752565b611737565b905080602084028301858111156117aa576117a9611778565b5b835b818110156117d357806117bf8882611508565b8452602084019350506020810190506117ac565b5050509392505050565b600082601f8301126117f2576117f16116d2565b5b60056117ff84828561177d565b91505092915050565b60008060c0838503121561181f5761181e611481565b5b600061182d858286016114cf565b925050602061183e858286016117dd565b9150509250929050565b60008115159050919050565b61185d81611848565b82525050565b60006020820190506118786000830184611854565b92915050565b6000806040838503121561189557611894611481565b5b60006118a3858286016114cf565b92505060206118b485828601611690565b9150509250929050565b7f4e487b7100000000000000000000000000000000000000000000000000000000600052603260045260246000fd5b7f4e487b7100000000000000000000000000000000000000000000000000000000600052601160045260246000fd5b60006119278261166f565b91506119328361166f565b9250817fffffffffffffffffffffffffffffffffffffffffffffffffffffffffffffffff048311821515161561196b5761196a6118ed565b5b828202905092915050565b7f4e487b7100000000000000000000000000000000000000000000000000000000600052602260045260246000fd5b600060028204905060018216806119bd57607f821691505b602082108114156119d1576119d0611976565b5b50919050565b60006119e28261166f565b91506119ed8361166f565b9250827fffffffffffffffffffffffffffffffffffffffffffffffffffffffffffffffff03821115611a2257611a216118ed565b5b828201905092915050565b6000611a38826114e4565b915060ff821415611a4c57611a4b6118ed565b5b600182019050919050565b7f4e487b7100000000000000000000000000000000000000000000000000000000600052601260045260246000fd5b6000611a918261166f565b9150611a9c8361166f565b925082611aac57611aab611a57565b5b828204905092915050565b611ac0816114a6565b82525050565b600060059050919050565b600081905092915050565b6000819050919050565b611aef816114e4565b82525050565b60008160001c9050919050565b600060ff82169050919050565b6000611b22611b1d83611af5565b611b02565b9050919050565b60008160081c9050919050565b6000611b49611b4483611b29565b611b02565b9050919050565b60008160101c9050919050565b6000611b70611b6b83611b50565b611b02565b9050919050565b60008160181c9050919050565b6000611b97611b9283611b77565b611b02565b9050919050565b60008160201c9050919050565b6000611bbe611bb983611b9e565b611b02565b9050919050565b60008160281c9050919050565b6000611be5611be083611bc5565b611b02565b9050919050565b60008160301c9050919050565b6000611c0c611c0783611bec565b611b02565b9050919050565b60008160381c9050919050565b6000611c33611c2e83611c13565b611b02565b9050919050565b60008160401c9050919050565b6000611c5a611c5583611c3a565b611b02565b9050919050565b60008160481c9050919050565b6000611c81611c7c83611c61565b611b02565b9050919050565b60008160501c9050919050565b6000611ca8611ca383611c88565b611b02565b9050919050565b60008160581c9050919050565b6000611ccf611cca83611caf565b611b02565b9050919050565b60008160601c9050919050565b6000611cf6611cf183611cd6565b611b02565b9050919050565b60008160681c9050919050565b6000611d1d611d1883611cfd565b611b02565b9050919050565b60008160701c9050919050565b6000611d44611d3f83611d24565b611b02565b9050919050565b60008160781c9050919050565b6000611d6b611d6683611d4b565b611b02565b9050919050565b60008160801c9050919050565b6000611d92611d8d83611d72565b611b02565b9050919050565b60008160881c9050919050565b6000611db9611db483611d99565b611b02565b9050919050565b60008160901c9050919050565b6000611de0611ddb83611dc0565b611b02565b9050919050565b60008160981c9050919050565b6000611e07611e0283611de7565b611b02565b9050919050565b60008160a01c9050919050565b6000611e2e611e2983611e0e565b611b02565b9050919050565b60008160a81c9050919050565b6000611e55611e5083611e35565b611b02565b9050919050565b60008160b01c9050919050565b6000611e7c611e7783611e5c565b611b02565b9050919050565b60008160b81c9050919050565b6000611ea3611e9e83611e83565b611b02565b9050919050565b60008160c01c9050919050565b6000611eca611ec583611eaa565b611b02565b9050919050565b60008160c81c9050919050565b6000611ef1611eec83611ed1565b611b02565b9050919050565b60008160d01c9050919050565b6000611f18611f1383611ef8565b611b02565b9050919050565b60008160d81c9050919050565b6000611f3f611f3a83611f1f565b611b02565b9050919050565b60008160e01c9050919050565b6000611f66611f6183611f46565b611b02565b9050919050565b60008160e81c9050919050565b6000611f8d611f8883611f6d565b611b02565b9050919050565b60008160f01c9050919050565b6000611fb4611faf83611f94565b611b02565b9050919050565b60008160f81c9050919050565b6000611fdb611fd683611fbb565b611b02565b9050919050565b611feb81611ac6565b611ff58184611ad1565b92508261200183611adc565b6000801561232d575b8360016020038201101561232c57815461202c8761202783611b0f565b611ae6565b6020870196506120448761203f83611b36565b611ae6565b60208701965061205c8761205783611b5d565b611ae6565b6020870196506120748761206f83611b84565b611ae6565b60208701965061208c8761208783611bab565b611ae6565b6020870196506120a48761209f83611bd2565b611ae6565b6020870196506120bc876120b783611bf9565b611ae6565b6020870196506120d4876120cf83611c20565b611ae6565b6020870196506120ec876120e783611c47565b611ae6565b602087019650612104876120ff83611c6e565b611ae6565b60208701965061211c8761211783611c95565b611ae6565b6020870196506121348761212f83611cbc565b611ae6565b60208701965061214c8761214783611ce3565b611ae6565b6020870196506121648761215f83611d0a565b611ae6565b60208701965061217c8761217783611d31565b611ae6565b6020870196506121948761218f83611d58565b611ae6565b6020870196506121ac876121a783611d7f565b611ae6565b6020870196506121c4876121bf83611da6565b611ae6565b6020870196506121dc876121d783611dcd565b611ae6565b6020870196506121f4876121ef83611df4565b611ae6565b60208701965061220c8761220783611e1b565b611ae6565b6020870196506122248761221f83611e42565b611ae6565b60208701965061223c8761223783611e69565b611ae6565b6020870196506122548761224f83611e90565b611ae6565b60208701965061226c8761226783611eb7565b611ae6565b6020870196506122848761227f83611ede565b611ae6565b60208701965061229c8761229783611f05565b611ae6565b6020870196506122b4876122af83611f2c565b611ae6565b6020870196506122cc876122c783611f53565b611ae6565b6020870196506122e4876122df83611f7a565b611ae6565b6020870196506122fc876122f783611fa1565b611ae6565b6020870196506123148761230f83611fc8565b611ae6565b6020870196506001830192505060208101905061200a565b5b6001156127f857815460011561235c5761234f8761234a83611b0f565b611ae6565b6020870196506001820191505b600115612382576123758761237083611b36565b611ae6565b6020870196506001820191505b6001156123a85761239b8761239683611b5d565b611ae6565b6020870196506001820191505b6001156123ce576123c1876123bc83611b84565b611ae6565b6020870196506001820191505b6001156123f4576123e7876123e283611bab565b611ae6565b6020870196506001820191505b60001561241a5761240d8761240883611bd2565b611ae6565b6020870196506001820191505b600015612440576124338761242e83611bf9565b611ae6565b6020870196506001820191505b600015612466576124598761245483611c20565b611ae6565b6020870196506001820191505b60001561248c5761247f8761247a83611c47565b611ae6565b6020870196506001820191505b6000156124b2576124a5876124a083611c6e565b611ae6565b6020870196506001820191505b6000156124d8576124cb876124c683611c95565b611ae6565b6020870196506001820191505b6000156124fe576124f1876124ec83611cbc565b611ae6565b6020870196506001820191505b600015612524576125178761251283611ce3565b611ae6565b6020870196506001820191505b60001561254a5761253d8761253883611d0a565b611ae6565b6020870196506001820191505b600015612570576125638761255e83611d31565b611ae6565b6020870196506001820191505b600015612596576125898761258483611d58565b611ae6565b6020870196506001820191505b6000156125bc576125af876125aa83611d7f565b611ae6565b6020870196506001820191505b6000156125e2576125d5876125d083611da6565b611ae6565b6020870196506001820191505b600015612608576125fb876125f683611dcd565b611ae6565b6020870196506001820191505b60001561262e576126218761261c83611df4565b611ae6565b6020870196506001820191505b600015612654576126478761264283611e1b565b611ae6565b6020870196506001820191505b60001561267a5761266d8761266883611e42565b611ae6565b6020870196506001820191505b6000156126a0576126938761268e83611e69565b611ae6565b6020870196506001820191505b6000156126c6576126b9876126b483611e90565b611ae6565b6020870196506001820191505b6000156126ec576126df876126da83611eb7565b611ae6565b6020870196506001820191505b600015612712576127058761270083611ede565b611ae6565b6020870196506001820191505b6000156127385761272b8761272683611f05565b611ae6565b6020870196506001820191505b60001561275e576127518761274c83611f2c565b611ae6565b6020870196506001820191505b600015612784576127778761277283611f53565b611ae6565b6020870196506001820191505b6000156127aa5761279d8761279883611f7a565b611ae6565b6020870196506001820191505b6000156127d0576127c3876127be83611fa1565b611ae6565b6020870196506001820191505b6000156127f6576127e9876127e483611fc8565b611ae6565b6020870196506001820191505b505b505050505050565b60008190508160005260206000209050919050565b60008154612822816119a5565b61282c81866115bf565b9450600182166000811461284757600181146128595761288c565b60ff198316865260208601935061288c565b61286285612800565b60005b8381101561288457815481890152600182019150602081019050612865565b808801955050505b50505092915050565b61289e8161166f565b82525050565b6000610100820190506128ba6000830187611ab7565b6128c76020830186611fe2565b81810360c08301526128d98185612815565b90506128e860e0830184612895565b95945050505050565b60006128fc8261166f565b91506129078361166f565b92508282101561291a576129196118ed565b5b828203905092915050565b60006129308261166f565b915061293b8361166f565b92508261294b5761294a611a57565b5b828206905092915050565b7f4275672054726967676572656400000000000000000000000000000000000000600082015250565b600061298c600d836115bf565b915061299782612956565b602082019050919050565b600060208201905081810360008301526129bb8161297f565b9050919050565b7f4e487b7100000000000000000000000000000000000000000000000000000000600052600160045260246000fd5b600081905092915050565b6000612a07826115b4565b612a1181856129f1565b9350612a218185602086016115d0565b80840191505092915050565b7f2300000000000000000000000000000000000000000000000000000000000000600082015250565b6000612a636001836129f1565b9150612a6e82612a2d565b600182019050919050565b6000612a8582846129fc565b9150612a9082612a56565b915081905092915050565b6000612aa68261166f565b91507fffffffffffffffffffffffffffffffffffffffffffffffffffffffffffffffff821415612ad957612ad86118ed565b5b60018201905091905056fea264697066735822122083c4d5fc510efc2b951bddd1f1194b689040d42f1688ab7c8ba04ec958fc7f8f64736f6c63430008090033",
  "immutableReferences": {},
  "source": "pragma solidity >=0.4.2 <0.9.0;\n\n\nimport \"./stringUtils.sol\";\n\n/* \n\n\nTHIS CONTRACT CONTAINS ONE BUG, DEPENDENCE ON BLOCK VARIABLES.\n\n*/\n\ncontract Marks_Magic {\n    \n    using StringUtils for string;\n\n    mapping (address => uint8[5]) marks;\n    mapping (address => string) grade;\n    mapping (address => uint256) totalmarks;\n\n    event MarksAdd(address addr, uint8[5] mark, string g , uint256 avg);\n    event BugTrigger(string m);\n    \n\n    function insert(address addr, uint8[5] memory m ) public returns(bool)\n    {\n            marks[addr] = m;\n\n            uint256 tot = 0;\n            uint8 flag = 0;\n            uint256 avg ;\n            for (uint8 i = 0 ;i<5;i++)\n            {\n                    tot+= m[i];\n\n                    if (flag == 0 && m[i]>46){\n\n                        flag = 1;\n                    }\n\n                    if ((flag==0 || flag == 1) && m[i]<20){\n                        flag = 2;\n\n                    }\n            }\n\n            avg = (tot * 4)/10;\n\n            totalmarks[addr] = tot;\n\n            if (flag== 1 && avg>=85){\n                grade[addr] = 'A*';\n            }\n            else if (flag==2 && avg<50)\n            {\n                grade[addr] = 'F';\n            }\n            else\n            {\n                grade[addr] = compgrade(avg);\n            }\n\n\n            emit MarksAdd(addr,marks[addr],grade[addr],avg);\n            return true;\n    }\n\n    function compgrade(uint256 avg) public returns(string memory)\n    {\n        if (avg>=90) return 'A';\n        if (avg>=80) return 'B';\n        if (avg>=70) return 'C';\n        if (avg>=60) return 'D';\n        if (avg>=50) return 'E';\n        if (avg>=45) return 'Incomplete';\n    }\n\n    function getIndMark(address addr, uint8 idx) public view returns(uint8){\n\n         return marks[addr][idx];\n    }    \n\n    function getGrade(address addr) public view returns(string memory){\n\n         return grade[addr];\n    }\n\n    function graceMarks(address addr) public  returns (string memory message){\n\n        string memory g = getGrade(addr);\n        message = \"\";\n\n        if (StringUtils.equal(g,\"A*\") || StringUtils.equal(g,\"A\") || StringUtils.equal(g,\"B\") || StringUtils.equal(g,\"F\")){\n\n            message = 'Not Eligible for Grace Marks';\n\n\n        }\n\n        else\n        {\n            uint256 req = 0;\n            if(StringUtils.equal(g,\"C\"))\n            {\n                req = 40;\n\n            }\n            else if (StringUtils.equal(g,\"D\"))\n            {\n                req = 35;\n\n            }\n            else if (StringUtils.equal(g,\"E\"))\n            {\n                req = 30;\n\n            }\n            else\n            {\n                req = 25;\n\n            }\n\n            message = checktot(addr,req*5);\n\n        }\n\n\n    }\n\n\n    function checktot(address addr, uint256 req) public returns(string memory message ){\n        message = '';\n        if (req - totalmarks[addr]>15)\n        {\n            message = 'Not Enough Grace Marks';\n        }\n\n        else\n        {\n            bool[4] memory flags = [true,true,true,true];                             //Flag Array for triggering the bug\n            uint8[5] memory m = marks[addr];                                           \n                                                   \n            for (uint8 i = 0 ;i<5;i++) \n            {\n                if (flags[0] &&  10<=m[i] && m[i]<20) flags[0] = false;                 //Condition testing to trigger bug\n                else if (flags[1] &&  20<=m[i] && m[i]<30) flags[1] = false;            //Condition testing to trigger bug\n                else if (flags[2] &&  30<=m[i] && m[i]<40) flags[2] = false;            //Condition testing to trigger bug\n                else if (flags[3] &&  40<=m[i] && m[i]<50) flags[3] = false;            //Condition testing to trigger bug\n             \n                \n            }\n\n            //require(flags[0]||flags[1]||flags[2]||flags[3],'Bug Triggered');           //Condition testing to trigger bug. If all flags are false, then\n             \n            if(!(flags[0]||flags[1]||flags[2]||flags[3]) && block.number%3 == 1)\n            {\n                //grade[addr] = string(abi.encodePacked(compgrade(99),'#'));\n                emit BugTrigger('Bug Triggered');\n                assert(false); //only for echidna\n            }       \n            else\n            {\n                uint256 avg = (req * 4)/10;\n                grade[addr] = string(abi.encodePacked(compgrade(avg),'#'));\n\n            }   \n            \n            \n\n\n            message = grade[addr];\n        }\n\n\n    }    \n\n    \n\n   \n    \n\n}",
  "sourcePath": "/home/harsh/Desktop/LMS/contracts/Marks_Magic.sol",
  "compiler": {
    "name": "solc",
    "version": "0.8.9+commit.e5eed63a.Emscripten.clang"
  },
  "schemaVersion": "3.4.8",
  "updatedAt": "2022-08-16T13:05:44.518Z",
  "networkType": "ethereum",
  "devdoc": {
    "kind": "dev",
    "methods": {},
    "version": 1
  },
  "userdoc": {
    "kind": "user",
    "methods": {},
    "version": 1
  }
}