{
  "contractName": "MarksOg",
  "abi": [
    {
      "anonymous": false,
      "inputs": [
        {
          "indexed": false,
          "internalType": "address",
          "name": "addr",
          "type": "address"
        },
        {
          "indexed": false,
          "internalType": "uint8[]",
          "name": "mark",
          "type": "uint8[]"
        },
        {
          "indexed": false,
          "internalType": "string",
          "name": "g",
          "type": "string"
        },
        {
          "indexed": false,
          "internalType": "uint256",
          "name": "avg",
          "type": "uint256"
        }
      ],
      "name": "MarksAdd",
      "type": "event"
    },
    {
      "anonymous": false,
      "inputs": [
        {
          "indexed": false,
          "internalType": "string",
          "name": "m",
          "type": "string"
        }
      ],
      "name": "Progress",
      "type": "event"
    },
    {
      "anonymous": false,
      "inputs": [
        {
          "indexed": false,
          "internalType": "bytes32",
          "name": "e",
          "type": "bytes32"
        }
      ],
      "name": "encoding",
      "type": "event"
    },
    {
      "inputs": [
        {
          "internalType": "address",
          "name": "addr",
          "type": "address"
        },
        {
          "internalType": "uint8[]",
          "name": "m",
          "type": "uint8[]"
        }
      ],
      "name": "insert",
      "outputs": [
        {
          "internalType": "bool",
          "name": "",
          "type": "bool"
        }
      ],
      "stateMutability": "nonpayable",
      "type": "function"
    },
    {
      "inputs": [
        {
          "internalType": "uint256",
          "name": "avg",
          "type": "uint256"
        }
      ],
      "name": "compgrade",
      "outputs": [
        {
          "internalType": "string",
          "name": "",
          "type": "string"
        }
      ],
      "stateMutability": "nonpayable",
      "type": "function"
    },
    {
      "inputs": [
        {
          "internalType": "address",
          "name": "addr",
          "type": "address"
        },
        {
          "internalType": "uint8",
          "name": "idx",
          "type": "uint8"
        }
      ],
      "name": "getIndMark",
      "outputs": [
        {
          "internalType": "uint8",
          "name": "",
          "type": "uint8"
        }
      ],
      "stateMutability": "view",
      "type": "function",
      "constant": true
    },
    {
      "inputs": [
        {
          "internalType": "address",
          "name": "addr",
          "type": "address"
        }
      ],
      "name": "getGrade",
      "outputs": [
        {
          "internalType": "string",
          "name": "",
          "type": "string"
        }
      ],
      "stateMutability": "view",
      "type": "function",
      "constant": true
    },
    {
      "inputs": [
        {
          "internalType": "address",
          "name": "addr",
          "type": "address"
        }
      ],
      "name": "graceMarks",
      "outputs": [
        {
          "internalType": "string",
          "name": "message",
          "type": "string"
        }
      ],
      "stateMutability": "nonpayable",
      "type": "function"
    },
    {
      "inputs": [
        {
          "internalType": "address",
          "name": "addr",
          "type": "address"
        },
        {
          "internalType": "uint256",
          "name": "req",
          "type": "uint256"
        }
      ],
      "name": "checktot",
      "outputs": [],
      "stateMutability": "nonpayable",
      "type": "function"
    }
  ],
  "bytecode": "0x608060405234801561001057600080fd5b50612906806100206000396000f3fe608060405234801561001057600080fd5b50600436106100625760003560e01c8063095aec6014610067578063149cff49146100975780631fb71f88146100c7578063313739a3146100f757806335151bf114610127578063b98eb30714610157575b600080fd5b610081600480360381019061007c9190610f87565b610173565b60405161008e9190610fd6565b60405180910390f35b6100b160048036038101906100ac9190610ff1565b6101f0565b6040516100be91906110b7565b60405180910390f35b6100e160048036038101906100dc919061110f565b610620565b6040516100ee91906110b7565b60405180910390f35b610111600480360381019061010c9190610ff1565b6107c6565b60405161011e91906110b7565b60405180910390f35b610141600480360381019061013c9190611284565b610897565b60405161014e91906112fb565b60405180910390f35b610171600480360381019061016c9190611316565b610c9c565b005b60008060008473ffffffffffffffffffffffffffffffffffffffff1673ffffffffffffffffffffffffffffffffffffffff1681526020019081526020016000208260ff16815481106101c8576101c7611356565b5b90600052602060002090602091828204019190069054906101000a900460ff16905092915050565b606060006101fd836107c6565b905073__StringUtils___________________________6346bdca9a826040518263ffffffff1660e01b8152600401610236919061141b565b60206040518083038186803b15801561024e57600080fd5b505af4158015610262573d6000803e3d6000fd5b505050506040513d601f19601f82011682018060405250810190610286919061147c565b80610314575073__StringUtils___________________________6346bdca9a826040518263ffffffff1660e01b81526004016102c391906114f5565b60206040518083038186803b1580156102db57600080fd5b505af41580156102ef573d6000803e3d6000fd5b505050506040513d601f19601f82011682018060405250810190610313919061147c565b5b806103a2575073__StringUtils___________________________6346bdca9a826040518263ffffffff1660e01b81526004016103519190611576565b60206040518083038186803b15801561036957600080fd5b505af415801561037d573d6000803e3d6000fd5b505050506040513d601f19601f820116820180604052508101906103a1919061147c565b5b80610430575073__StringUtils___________________________6346bdca9a826040518263ffffffff1660e01b81526004016103df91906115f7565b60206040518083038186803b1580156103f757600080fd5b505af415801561040b573d6000803e3d6000fd5b505050506040513d601f19601f8201168201806040525081019061042f919061147c565b5b1561043a5761061a565b600073__StringUtils___________________________6346bdca9a836040518263ffffffff1660e01b81526004016104739190611678565b60206040518083038186803b15801561048b57600080fd5b505af415801561049f573d6000803e3d6000fd5b505050506040513d601f19601f820116820180604052508101906104c3919061147c565b156104d15760289050610602565b73__StringUtils___________________________6346bdca9a836040518263ffffffff1660e01b815260040161050891906116f9565b60206040518083038186803b15801561052057600080fd5b505af4158015610534573d6000803e3d6000fd5b505050506040513d601f19601f82011682018060405250810190610558919061147c565b156105665760239050610601565b73__StringUtils___________________________6346bdca9a836040518263ffffffff1660e01b815260040161059d919061177a565b60206040518083038186803b1580156105b557600080fd5b505af41580156105c9573d6000803e3d6000fd5b505050506040513d601f19601f820116820180604052508101906105ed919061147c565b156105fb57601e9050610600565b601990505b5b5b6106188460058361061391906117de565b610c9c565b505b50919050565b6060605a8210610667576040518060400160405280600181526020017f410000000000000000000000000000000000000000000000000000000000000081525090506107c1565b605082106106ac576040518060400160405280600181526020017f420000000000000000000000000000000000000000000000000000000000000081525090506107c1565b604682106106f1576040518060400160405280600181526020017f430000000000000000000000000000000000000000000000000000000000000081525090506107c1565b603c8210610736576040518060400160405280600181526020017f440000000000000000000000000000000000000000000000000000000000000081525090506107c1565b6032821061077b576040518060400160405280600181526020017f450000000000000000000000000000000000000000000000000000000000000081525090506107c1565b602d82106107c0576040518060400160405280600a81526020017f496e636f6d706c6574650000000000000000000000000000000000000000000081525090506107c1565b5b919050565b6060600160008373ffffffffffffffffffffffffffffffffffffffff1673ffffffffffffffffffffffffffffffffffffffff168152602001908152602001600020805461081290611867565b80601f016020809104026020016040519081016040528092919081815260200182805461083e90611867565b801561088b5780601f106108605761010080835404028352916020019161088b565b820191906000526020600020905b81548152906001019060200180831161086e57829003601f168201915b50505050509050919050565b6000816000808573ffffffffffffffffffffffffffffffffffffffff1673ffffffffffffffffffffffffffffffffffffffff16815260200190815260200160002090805190602001906108eb929190610d92565b50600080600080600090505b60058160ff1610156109cc57858160ff168151811061091957610918611356565b5b602002602001015160ff168461092f9190611899565b935060008360ff161480156109645750602e868260ff168151811061095757610956611356565b5b602002602001015160ff16115b1561096e57600192505b60008360ff161480610983575060018360ff16145b80156109af57506014868260ff16815181106109a2576109a1611356565b5b602002602001015160ff16105b156109b957600292505b80806109c4906118ef565b9150506108f7565b50600a6004846109dc91906117de565b6109e69190611948565b905082600260008873ffffffffffffffffffffffffffffffffffffffff1673ffffffffffffffffffffffffffffffffffffffff1681526020019081526020016000208190555060018260ff16148015610a40575060558110155b15610ad3576040518060400160405280600281526020017f412a000000000000000000000000000000000000000000000000000000000000815250600160008873ffffffffffffffffffffffffffffffffffffffff1673ffffffffffffffffffffffffffffffffffffffff1681526020019081526020016000209080519060200190610acd929190610e39565b50610bd7565b60028260ff16148015610ae65750603281105b15610b79576040518060400160405280600181526020017f4600000000000000000000000000000000000000000000000000000000000000815250600160008873ffffffffffffffffffffffffffffffffffffffff1673ffffffffffffffffffffffffffffffffffffffff1681526020019081526020016000209080519060200190610b73929190610e39565b50610bd6565b610b8281610620565b600160008873ffffffffffffffffffffffffffffffffffffffff1673ffffffffffffffffffffffffffffffffffffffff1681526020019081526020016000209080519060200190610bd4929190610e39565b505b5b7f51bb80e7da3dd69c7b624d72023da84055fc253f522f59095dcd3bdf8a1deb87866000808973ffffffffffffffffffffffffffffffffffffffff1673ffffffffffffffffffffffffffffffffffffffff168152602001908152602001600020600160008a73ffffffffffffffffffffffffffffffffffffffff1673ffffffffffffffffffffffffffffffffffffffff16815260200190815260200160002084604051610c87949392919061279f565b60405180910390a16001935050505092915050565b600f600260008473ffffffffffffffffffffffffffffffffffffffff1673ffffffffffffffffffffffffffffffffffffffff1681526020019081526020016000205482610ce991906127f2565b1115610cf457610d8e565b6000600a600483610d0591906117de565b610d0f9190611948565b9050610d1a81610620565b604051602001610d2a91906128ae565b604051602081830303815290604052600160008573ffffffffffffffffffffffffffffffffffffffff1673ffffffffffffffffffffffffffffffffffffffff1681526020019081526020016000209080519060200190610d8b929190610e39565b50505b5050565b82805482825590600052602060002090601f01602090048101928215610e285791602002820160005b83821115610df957835183826101000a81548160ff021916908360ff1602179055509260200192600101602081600001049283019260010302610dbb565b8015610e265782816101000a81549060ff0219169055600101602081600001049283019260010302610df9565b505b509050610e359190610ebf565b5090565b828054610e4590611867565b90600052602060002090601f016020900481019282610e675760008555610eae565b82601f10610e8057805160ff1916838001178555610eae565b82800160010185558215610eae579182015b82811115610ead578251825591602001919060010190610e92565b5b509050610ebb9190610ebf565b5090565b5b80821115610ed8576000816000905550600101610ec0565b5090565b6000604051905090565b600080fd5b600080fd5b600073ffffffffffffffffffffffffffffffffffffffff82169050919050565b6000610f1b82610ef0565b9050919050565b610f2b81610f10565b8114610f3657600080fd5b50565b600081359050610f4881610f22565b92915050565b600060ff82169050919050565b610f6481610f4e565b8114610f6f57600080fd5b50565b600081359050610f8181610f5b565b92915050565b60008060408385031215610f9e57610f9d610ee6565b5b6000610fac85828601610f39565b9250506020610fbd85828601610f72565b9150509250929050565b610fd081610f4e565b82525050565b6000602082019050610feb6000830184610fc7565b92915050565b60006020828403121561100757611006610ee6565b5b600061101584828501610f39565b91505092915050565b600081519050919050565b600082825260208201905092915050565b60005b8381101561105857808201518184015260208101905061103d565b83811115611067576000848401525b50505050565b6000601f19601f8301169050919050565b60006110898261101e565b6110938185611029565b93506110a381856020860161103a565b6110ac8161106d565b840191505092915050565b600060208201905081810360008301526110d1818461107e565b905092915050565b6000819050919050565b6110ec816110d9565b81146110f757600080fd5b50565b600081359050611109816110e3565b92915050565b60006020828403121561112557611124610ee6565b5b6000611133848285016110fa565b91505092915050565b600080fd5b7f4e487b7100000000000000000000000000000000000000000000000000000000600052604160045260246000fd5b6111798261106d565b810181811067ffffffffffffffff8211171561119857611197611141565b5b80604052505050565b60006111ab610edc565b90506111b78282611170565b919050565b600067ffffffffffffffff8211156111d7576111d6611141565b5b602082029050602081019050919050565b600080fd5b60006112006111fb846111bc565b6111a1565b90508083825260208201905060208402830185811115611223576112226111e8565b5b835b8181101561124c57806112388882610f72565b845260208401935050602081019050611225565b5050509392505050565b600082601f83011261126b5761126a61113c565b5b813561127b8482602086016111ed565b91505092915050565b6000806040838503121561129b5761129a610ee6565b5b60006112a985828601610f39565b925050602083013567ffffffffffffffff8111156112ca576112c9610eeb565b5b6112d685828601611256565b9150509250929050565b60008115159050919050565b6112f5816112e0565b82525050565b600060208201905061131060008301846112ec565b92915050565b6000806040838503121561132d5761132c610ee6565b5b600061133b85828601610f39565b925050602061134c858286016110fa565b9150509250929050565b7f4e487b7100000000000000000000000000000000000000000000000000000000600052603260045260246000fd5b600082825260208201905092915050565b60006113a18261101e565b6113ab8185611385565b93506113bb81856020860161103a565b6113c48161106d565b840191505092915050565b7f412a000000000000000000000000000000000000000000000000000000000000600082015250565b6000611405600283611385565b9150611410826113cf565b602082019050919050565b600060408201905081810360008301526114358184611396565b90508181036020830152611448816113f8565b905092915050565b611459816112e0565b811461146457600080fd5b50565b60008151905061147681611450565b92915050565b60006020828403121561149257611491610ee6565b5b60006114a084828501611467565b91505092915050565b7f4100000000000000000000000000000000000000000000000000000000000000600082015250565b60006114df600183611385565b91506114ea826114a9565b602082019050919050565b6000604082019050818103600083015261150f8184611396565b90508181036020830152611522816114d2565b905092915050565b7f4200000000000000000000000000000000000000000000000000000000000000600082015250565b6000611560600183611385565b915061156b8261152a565b602082019050919050565b600060408201905081810360008301526115908184611396565b905081810360208301526115a381611553565b905092915050565b7f4600000000000000000000000000000000000000000000000000000000000000600082015250565b60006115e1600183611385565b91506115ec826115ab565b602082019050919050565b600060408201905081810360008301526116118184611396565b90508181036020830152611624816115d4565b905092915050565b7f4300000000000000000000000000000000000000000000000000000000000000600082015250565b6000611662600183611385565b915061166d8261162c565b602082019050919050565b600060408201905081810360008301526116928184611396565b905081810360208301526116a581611655565b905092915050565b7f4400000000000000000000000000000000000000000000000000000000000000600082015250565b60006116e3600183611385565b91506116ee826116ad565b602082019050919050565b600060408201905081810360008301526117138184611396565b90508181036020830152611726816116d6565b905092915050565b7f4500000000000000000000000000000000000000000000000000000000000000600082015250565b6000611764600183611385565b915061176f8261172e565b602082019050919050565b600060408201905081810360008301526117948184611396565b905081810360208301526117a781611757565b905092915050565b7f4e487b7100000000000000000000000000000000000000000000000000000000600052601160045260246000fd5b60006117e9826110d9565b91506117f4836110d9565b9250817fffffffffffffffffffffffffffffffffffffffffffffffffffffffffffffffff048311821515161561182d5761182c6117af565b5b828202905092915050565b7f4e487b7100000000000000000000000000000000000000000000000000000000600052602260045260246000fd5b6000600282049050600182168061187f57607f821691505b6020821081141561189357611892611838565b5b50919050565b60006118a4826110d9565b91506118af836110d9565b9250827fffffffffffffffffffffffffffffffffffffffffffffffffffffffffffffffff038211156118e4576118e36117af565b5b828201905092915050565b60006118fa82610f4e565b915060ff82141561190e5761190d6117af565b5b600182019050919050565b7f4e487b7100000000000000000000000000000000000000000000000000000000600052601260045260246000fd5b6000611953826110d9565b915061195e836110d9565b92508261196e5761196d611919565b5b828204905092915050565b61198281610f10565b82525050565b600081549050919050565b600082825260208201905092915050565b60008190508160005260206000209050919050565b6119c281610f4e565b82525050565b60008160001c9050919050565b600060ff82169050919050565b60006119f56119f0836119c8565b6119d5565b9050919050565b60008160081c9050919050565b6000611a1c611a17836119fc565b6119d5565b9050919050565b60008160101c9050919050565b6000611a43611a3e83611a23565b6119d5565b9050919050565b60008160181c9050919050565b6000611a6a611a6583611a4a565b6119d5565b9050919050565b60008160201c9050919050565b6000611a91611a8c83611a71565b6119d5565b9050919050565b60008160281c9050919050565b6000611ab8611ab383611a98565b6119d5565b9050919050565b60008160301c9050919050565b6000611adf611ada83611abf565b6119d5565b9050919050565b60008160381c9050919050565b6000611b06611b0183611ae6565b6119d5565b9050919050565b60008160401c9050919050565b6000611b2d611b2883611b0d565b6119d5565b9050919050565b60008160481c9050919050565b6000611b54611b4f83611b34565b6119d5565b9050919050565b60008160501c9050919050565b6000611b7b611b7683611b5b565b6119d5565b9050919050565b60008160581c9050919050565b6000611ba2611b9d83611b82565b6119d5565b9050919050565b60008160601c9050919050565b6000611bc9611bc483611ba9565b6119d5565b9050919050565b60008160681c9050919050565b6000611bf0611beb83611bd0565b6119d5565b9050919050565b60008160701c9050919050565b6000611c17611c1283611bf7565b6119d5565b9050919050565b60008160781c9050919050565b6000611c3e611c3983611c1e565b6119d5565b9050919050565b60008160801c9050919050565b6000611c65611c6083611c45565b6119d5565b9050919050565b60008160881c9050919050565b6000611c8c611c8783611c6c565b6119d5565b9050919050565b60008160901c9050919050565b6000611cb3611cae83611c93565b6119d5565b9050919050565b60008160981c9050919050565b6000611cda611cd583611cba565b6119d5565b9050919050565b60008160a01c9050919050565b6000611d01611cfc83611ce1565b6119d5565b9050919050565b60008160a81c9050919050565b6000611d28611d2383611d08565b6119d5565b9050919050565b60008160b01c9050919050565b6000611d4f611d4a83611d2f565b6119d5565b9050919050565b60008160b81c9050919050565b6000611d76611d7183611d56565b6119d5565b9050919050565b60008160c01c9050919050565b6000611d9d611d9883611d7d565b6119d5565b9050919050565b60008160c81c9050919050565b6000611dc4611dbf83611da4565b6119d5565b9050919050565b60008160d01c9050919050565b6000611deb611de683611dcb565b6119d5565b9050919050565b60008160d81c9050919050565b6000611e12611e0d83611df2565b6119d5565b9050919050565b60008160e01c9050919050565b6000611e39611e3483611e19565b6119d5565b9050919050565b60008160e81c9050919050565b6000611e60611e5b83611e40565b6119d5565b9050919050565b60008160f01c9050919050565b6000611e87611e8283611e67565b6119d5565b9050919050565b60008160f81c9050919050565b6000611eae611ea983611e8e565b6119d5565b9050919050565b6000611ec082611988565b611eca8185611993565b935083611ed6846119a4565b6000600115612203575b83600160200382011015612202578154611f0288611efd836119e2565b6119b9565b602088019750611f1a88611f1583611a09565b6119b9565b602088019750611f3288611f2d83611a30565b6119b9565b602088019750611f4a88611f4583611a57565b6119b9565b602088019750611f6288611f5d83611a7e565b6119b9565b602088019750611f7a88611f7583611aa5565b6119b9565b602088019750611f9288611f8d83611acc565b6119b9565b602088019750611faa88611fa583611af3565b6119b9565b602088019750611fc288611fbd83611b1a565b6119b9565b602088019750611fda88611fd583611b41565b6119b9565b602088019750611ff288611fed83611b68565b6119b9565b60208801975061200a8861200583611b8f565b6119b9565b6020880197506120228861201d83611bb6565b6119b9565b60208801975061203a8861203583611bdd565b6119b9565b6020880197506120528861204d83611c04565b6119b9565b60208801975061206a8861206583611c2b565b6119b9565b6020880197506120828861207d83611c52565b6119b9565b60208801975061209a8861209583611c79565b6119b9565b6020880197506120b2886120ad83611ca0565b6119b9565b6020880197506120ca886120c583611cc7565b6119b9565b6020880197506120e2886120dd83611cee565b6119b9565b6020880197506120fa886120f583611d15565b6119b9565b6020880197506121128861210d83611d3c565b6119b9565b60208801975061212a8861212583611d63565b6119b9565b6020880197506121428861213d83611d8a565b6119b9565b60208801975061215a8861215583611db1565b6119b9565b6020880197506121728861216d83611dd8565b6119b9565b60208801975061218a8861218583611dff565b6119b9565b6020880197506121a28861219d83611e26565b6119b9565b6020880197506121ba886121b583611e4d565b6119b9565b6020880197506121d2886121cd83611e74565b6119b9565b6020880197506121ea886121e583611e9b565b6119b9565b60208801975060018301925050602081019050611ee0565b5b6001156126ee578154848210156122335761222688612221836119e2565b6119b9565b6020880197506001820191505b8482101561225a5761224d8861224883611a09565b6119b9565b6020880197506001820191505b84821015612281576122748861226f83611a30565b6119b9565b6020880197506001820191505b848210156122a85761229b8861229683611a57565b6119b9565b6020880197506001820191505b848210156122cf576122c2886122bd83611a7e565b6119b9565b6020880197506001820191505b848210156122f6576122e9886122e483611aa5565b6119b9565b6020880197506001820191505b8482101561231d576123108861230b83611acc565b6119b9565b6020880197506001820191505b84821015612344576123378861233283611af3565b6119b9565b6020880197506001820191505b8482101561236b5761235e8861235983611b1a565b6119b9565b6020880197506001820191505b84821015612392576123858861238083611b41565b6119b9565b6020880197506001820191505b848210156123b9576123ac886123a783611b68565b6119b9565b6020880197506001820191505b848210156123e0576123d3886123ce83611b8f565b6119b9565b6020880197506001820191505b84821015612407576123fa886123f583611bb6565b6119b9565b6020880197506001820191505b8482101561242e576124218861241c83611bdd565b6119b9565b6020880197506001820191505b84821015612455576124488861244383611c04565b6119b9565b6020880197506001820191505b8482101561247c5761246f8861246a83611c2b565b6119b9565b6020880197506001820191505b848210156124a3576124968861249183611c52565b6119b9565b6020880197506001820191505b848210156124ca576124bd886124b883611c79565b6119b9565b6020880197506001820191505b848210156124f1576124e4886124df83611ca0565b6119b9565b6020880197506001820191505b848210156125185761250b8861250683611cc7565b6119b9565b6020880197506001820191505b8482101561253f576125328861252d83611cee565b6119b9565b6020880197506001820191505b84821015612566576125598861255483611d15565b6119b9565b6020880197506001820191505b8482101561258d576125808861257b83611d3c565b6119b9565b6020880197506001820191505b848210156125b4576125a7886125a283611d63565b6119b9565b6020880197506001820191505b848210156125db576125ce886125c983611d8a565b6119b9565b6020880197506001820191505b84821015612602576125f5886125f083611db1565b6119b9565b6020880197506001820191505b848210156126295761261c8861261783611dd8565b6119b9565b6020880197506001820191505b84821015612650576126438861263e83611dff565b6119b9565b6020880197506001820191505b848210156126775761266a8861266583611e26565b6119b9565b6020880197506001820191505b8482101561269e576126918861268c83611e4d565b6119b9565b6020880197506001820191505b848210156126c5576126b8886126b383611e74565b6119b9565b6020880197506001820191505b848210156126ec576126df886126da83611e9b565b6119b9565b6020880197506001820191505b505b8694505050505092915050565b60008190508160005260206000209050919050565b6000815461271d81611867565b6127278186611029565b94506001821660008114612742576001811461275457612787565b60ff1983168652602086019350612787565b61275d856126fb565b60005b8381101561277f57815481890152600182019150602081019050612760565b808801955050505b50505092915050565b612799816110d9565b82525050565b60006080820190506127b46000830187611979565b81810360208301526127c68186611eb5565b905081810360408301526127da8185612710565b90506127e96060830184612790565b95945050505050565b60006127fd826110d9565b9150612808836110d9565b92508282101561281b5761281a6117af565b5b828203905092915050565b600081905092915050565b600061283c8261101e565b6128468185612826565b935061285681856020860161103a565b80840191505092915050565b7f2300000000000000000000000000000000000000000000000000000000000000600082015250565b6000612898600183612826565b91506128a382612862565b600182019050919050565b60006128ba8284612831565b91506128c58261288b565b91508190509291505056fea2646970667358221220accf6f71a7ae621aa5939f189837200bed06ce2d0e9df9ec9702fb22038b114e64736f6c63430008090033",
  "immutableReferences": {},
  "source": "pragma solidity >=0.4.2 <0.9.0;\n\n\nimport \"./stringUtils.sol\";\n\n/* ORIGINAL NON BUGGY CONTRACT*/\n\ncontract MarksOg {\n    \n    using StringUtils for string;\n\n    mapping (address => uint8[]) marks;\n    mapping (address => string) grade;\n    mapping (address => uint256) totalmarks;\n\n    event MarksAdd(address addr, uint8[] mark, string g , uint256 avg);\n\n    event Progress(string m);\n\n    event encoding(bytes32 e);\n    \n\n    function insert(address addr, uint8[] memory m ) public returns(bool)\n    {\n            marks[addr] = m;\n\n            uint256 tot = 0;\n            uint8 flag = 0;\n            uint256 avg ;\n            for (uint8 i = 0 ;i<5;i++)\n            {\n                    tot+= m[i];\n\n                    if (flag == 0 && m[i]>46){\n\n                        flag = 1;\n                    }\n\n                    if ((flag==0 || flag == 1) && m[i]<20){\n                        flag = 2;\n\n                    }\n            }\n\n            avg = (tot * 4)/10;\n\n            totalmarks[addr] = tot;\n\n            if (flag== 1 && avg>=85){\n                grade[addr] = 'A*';\n            }\n            else if (flag==2 && avg<50)\n            {\n                grade[addr] = 'F';\n            }\n            else\n            {\n                grade[addr] = compgrade(avg);\n            }\n\n\n            emit MarksAdd(addr,marks[addr],grade[addr],avg);\n            return true;\n    }\n\n    function compgrade(uint256 avg) public returns(string memory)\n    {\n        if (avg>=90) return 'A';\n        if (avg>=80) return 'B';\n        if (avg>=70) return 'C';\n        if (avg>=60) return 'D';\n        if (avg>=50) return 'E';\n        if (avg>=45) return 'Incomplete';\n    }\n\n    function getIndMark(address addr, uint8 idx) public view returns(uint8){\n\n         return marks[addr][idx];\n    }    \n\n    function getGrade(address addr) public view returns(string memory){\n\n         return grade[addr];\n    }\n\n    function graceMarks(address addr) public  returns (string memory message){\n\n        string memory g = getGrade(addr);\n\n \n\n        if (StringUtils.equal(g,\"A*\") || StringUtils.equal(g,\"A\") || StringUtils.equal(g,\"B\") || StringUtils.equal(g,\"F\")){\n\n            \n        }\n\n        else\n        {\n            uint256 req = 0;\n            if(StringUtils.equal(g,\"C\"))\n            {\n                req = 40;\n   \n            }\n            else if (StringUtils.equal(g,\"D\"))\n            {\n                req = 35;\n       \n            }\n            else if (StringUtils.equal(g,\"E\"))\n            {\n                req = 30;\n            \n            }\n            else\n            {\n                req = 25;\n              \n            }\n\n            checktot(addr,req*5);\n  \n        }\n\n\n    }\n\n\n    function checktot(address addr, uint256 req) public{\n        if (req - totalmarks[addr]>15)\n        {\n            \n        }\n\n        else\n        {\n            uint256 avg = (req * 4)/10;\n            grade[addr] = string(abi.encodePacked(compgrade(avg),'#'));\n            //grade[addr] = compgrade(avg);\n        }\n\n\n    }    \n\n\n \n    \n\n}",
  "sourcePath": "/home/harsh/Desktop/LMS/contracts/MarksOg.sol",
  "compiler": {
    "name": "solc",
    "version": "0.8.9+commit.e5eed63a.Emscripten.clang"
  },
  "schemaVersion": "3.4.8",
  "updatedAt": "2022-08-08T08:55:05.237Z",
  "networkType": "ethereum",
  "devdoc": {
    "kind": "dev",
    "methods": {},
    "version": 1
  },
  "userdoc": {
    "kind": "user",
    "methods": {},
    "version": 1
  }
}