{
  "contractName": "Marks",
  "abi": [
    {
      "anonymous": false,
      "inputs": [
        {
          "indexed": false,
          "internalType": "address",
          "name": "addr",
          "type": "address"
        },
        {
          "indexed": false,
          "internalType": "uint8[]",
          "name": "mark",
          "type": "uint8[]"
        },
        {
          "indexed": false,
          "internalType": "string",
          "name": "g",
          "type": "string"
        },
        {
          "indexed": false,
          "internalType": "uint256",
          "name": "avg",
          "type": "uint256"
        }
      ],
      "name": "MarksAdd",
      "type": "event"
    },
    {
      "inputs": [
        {
          "internalType": "address",
          "name": "addr",
          "type": "address"
        },
        {
          "internalType": "uint8[]",
          "name": "m",
          "type": "uint8[]"
        }
      ],
      "name": "insert",
      "outputs": [
        {
          "internalType": "bool",
          "name": "",
          "type": "bool"
        }
      ],
      "stateMutability": "nonpayable",
      "type": "function"
    },
    {
      "inputs": [
        {
          "internalType": "address",
          "name": "addr",
          "type": "address"
        },
        {
          "internalType": "uint8",
          "name": "idx",
          "type": "uint8"
        }
      ],
      "name": "getIndMark",
      "outputs": [
        {
          "internalType": "uint8",
          "name": "",
          "type": "uint8"
        }
      ],
      "stateMutability": "view",
      "type": "function",
      "constant": true
    },
    {
      "inputs": [
        {
          "internalType": "address",
          "name": "addr",
          "type": "address"
        }
      ],
      "name": "getGrade",
      "outputs": [
        {
          "internalType": "string",
          "name": "",
          "type": "string"
        }
      ],
      "stateMutability": "view",
      "type": "function",
      "constant": true
    },
    {
      "inputs": [
        {
          "internalType": "address",
          "name": "addr",
          "type": "address"
        }
      ],
      "name": "graceMarks",
      "outputs": [
        {
          "internalType": "string",
          "name": "message",
          "type": "string"
        }
      ],
      "stateMutability": "nonpayable",
      "type": "function"
    }
  ],
  "bytecode": "0x608060405234801561001057600080fd5b50612dbc806100206000396000f3fe608060405234801561001057600080fd5b506004361061004c5760003560e01c8063095aec6014610051578063149cff4914610081578063313739a3146100b157806335151bf1146100e1575b600080fd5b61006b600480360381019061006691906114a7565b610111565b60405161007891906114f6565b60405180910390f35b61009b60048036038101906100969190611511565b61018e565b6040516100a891906115d7565b60405180910390f35b6100cb60048036038101906100c69190611511565b61060a565b6040516100d891906115d7565b60405180910390f35b6100fb60048036038101906100f69190611741565b6106db565b60405161010891906117b8565b60405180910390f35b60008060008473ffffffffffffffffffffffffffffffffffffffff1673ffffffffffffffffffffffffffffffffffffffff1681526020019081526020016000208260ff1681548110610166576101656117d3565b5b90600052602060002090602091828204019190069054906101000a900460ff16905092915050565b6060600061019b8361060a565b905060405180602001604052806000815250915073__StringUtils___________________________6346bdca9a826040518263ffffffff1660e01b81526004016101e69190611898565b60206040518083038186803b1580156101fe57600080fd5b505af4158015610212573d6000803e3d6000fd5b505050506040513d601f19601f8201168201806040525081019061023691906118f9565b806102c4575073__StringUtils___________________________6346bdca9a826040518263ffffffff1660e01b81526004016102739190611972565b60206040518083038186803b15801561028b57600080fd5b505af415801561029f573d6000803e3d6000fd5b505050506040513d601f19601f820116820180604052508101906102c391906118f9565b5b80610352575073__StringUtils___________________________6346bdca9a826040518263ffffffff1660e01b815260040161030191906119f3565b60206040518083038186803b15801561031957600080fd5b505af415801561032d573d6000803e3d6000fd5b505050506040513d601f19601f8201168201806040525081019061035191906118f9565b5b806103e0575073__StringUtils___________________________6346bdca9a826040518263ffffffff1660e01b815260040161038f9190611a74565b60206040518083038186803b1580156103a757600080fd5b505af41580156103bb573d6000803e3d6000fd5b505050506040513d601f19601f820116820180604052508101906103df91906118f9565b5b15610422576040518060400160405280601c81526020017f4e6f7420456c696769626c6520666f72204772616365204d61726b73000000008152509150610604565b600073__StringUtils___________________________6346bdca9a836040518263ffffffff1660e01b815260040161045b9190611af5565b60206040518083038186803b15801561047357600080fd5b505af4158015610487573d6000803e3d6000fd5b505050506040513d601f19601f820116820180604052508101906104ab91906118f9565b156104b957602890506105ea565b73__StringUtils___________________________6346bdca9a836040518263ffffffff1660e01b81526004016104f09190611b76565b60206040518083038186803b15801561050857600080fd5b505af415801561051c573d6000803e3d6000fd5b505050506040513d601f19601f8201168201806040525081019061054091906118f9565b1561054e57602390506105e9565b73__StringUtils___________________________6346bdca9a836040518263ffffffff1660e01b81526004016105859190611bf7565b60206040518083038186803b15801561059d57600080fd5b505af41580156105b1573d6000803e3d6000fd5b505050506040513d601f19601f820116820180604052508101906105d591906118f9565b156105e357601e90506105e8565b601990505b5b5b610600846005836105fb9190611c65565b610ae0565b9250505b50919050565b6060600160008373ffffffffffffffffffffffffffffffffffffffff1673ffffffffffffffffffffffffffffffffffffffff168152602001908152602001600020805461065690611cee565b80601f016020809104026020016040519081016040528092919081815260200182805461068290611cee565b80156106cf5780601f106106a4576101008083540402835291602001916106cf565b820191906000526020600020905b8154815290600101906020018083116106b257829003601f168201915b50505050509050919050565b6000816000808573ffffffffffffffffffffffffffffffffffffffff1673ffffffffffffffffffffffffffffffffffffffff168152602001908152602001600020908051906020019061072f9291906112b2565b50600080600080600090505b60058160ff16101561081057858160ff168151811061075d5761075c6117d3565b5b602002602001015160ff16846107739190611d20565b935060008360ff161480156107a85750602e868260ff168151811061079b5761079a6117d3565b5b602002602001015160ff16115b156107b257600192505b60008360ff1614806107c7575060018360ff16145b80156107f357506014868260ff16815181106107e6576107e56117d3565b5b602002602001015160ff16105b156107fd57600292505b808061080890611d76565b91505061073b565b50600a6004846108209190611c65565b61082a9190611dcf565b905082600260008873ffffffffffffffffffffffffffffffffffffffff1673ffffffffffffffffffffffffffffffffffffffff1681526020019081526020016000208190555060018260ff16148015610884575060558110155b15610917576040518060400160405280600281526020017f412a000000000000000000000000000000000000000000000000000000000000815250600160008873ffffffffffffffffffffffffffffffffffffffff1673ffffffffffffffffffffffffffffffffffffffff1681526020019081526020016000209080519060200190610911929190611359565b50610a1b565b60028260ff1614801561092a5750603281105b156109bd576040518060400160405280600181526020017f4600000000000000000000000000000000000000000000000000000000000000815250600160008873ffffffffffffffffffffffffffffffffffffffff1673ffffffffffffffffffffffffffffffffffffffff16815260200190815260200160002090805190602001906109b7929190611359565b50610a1a565b6109c68161110c565b600160008873ffffffffffffffffffffffffffffffffffffffff1673ffffffffffffffffffffffffffffffffffffffff1681526020019081526020016000209080519060200190610a18929190611359565b505b5b7f51bb80e7da3dd69c7b624d72023da84055fc253f522f59095dcd3bdf8a1deb87866000808973ffffffffffffffffffffffffffffffffffffffff1673ffffffffffffffffffffffffffffffffffffffff168152602001908152602001600020600160008a73ffffffffffffffffffffffffffffffffffffffff1673ffffffffffffffffffffffffffffffffffffffff16815260200190815260200160002084604051610acb9493929190612c26565b60405180910390a16001935050505092915050565b6060604051806020016040528060008152509050600f600260008573ffffffffffffffffffffffffffffffffffffffff1673ffffffffffffffffffffffffffffffffffffffff1681526020019081526020016000205483610b419190612c79565b1115610b84576040518060400160405280601681526020017f4e6f7420456e6f756768204772616365204d61726b73000000000000000000008152509050611106565b60006040518060800160405280600115151515815260200160011515151581526020016001151515158152602001600115151515815250905060008060008673ffffffffffffffffffffffffffffffffffffffff1673ffffffffffffffffffffffffffffffffffffffff168152602001908152602001600020805480602002602001604051908101604052809291908181526020018280548015610c6d57602002820191906000526020600020906000905b82829054906101000a900460ff1660ff1681526020019060010190602082600001049283019260010382029150808411610c365790505b5050505050905060005b60058160ff161015610f195782600060048110610c9757610c966117d3565b5b60200201518015610cc95750818160ff1681518110610cb957610cb86117d3565b5b602002602001015160ff16600a11155b8015610cf557506014828260ff1681518110610ce857610ce76117d3565b5b602002602001015160ff16105b15610d2457600083600060048110610d1057610d0f6117d3565b5b602002019015159081151581525050610f06565b82600160048110610d3857610d376117d3565b5b60200201518015610d6a5750818160ff1681518110610d5a57610d596117d3565b5b602002602001015160ff16601411155b8015610d965750601e828260ff1681518110610d8957610d886117d3565b5b602002602001015160ff16105b15610dc557600083600160048110610db157610db06117d3565b5b602002019015159081151581525050610f05565b82600260048110610dd957610dd86117d3565b5b60200201518015610e0b5750818160ff1681518110610dfb57610dfa6117d3565b5b602002602001015160ff16601e11155b8015610e3757506028828260ff1681518110610e2a57610e296117d3565b5b602002602001015160ff16105b15610e6657600083600260048110610e5257610e516117d3565b5b602002019015159081151581525050610f04565b82600360048110610e7a57610e796117d3565b5b60200201518015610eac5750818160ff1681518110610e9c57610e9b6117d3565b5b602002602001015160ff16602811155b8015610ed857506032828260ff1681518110610ecb57610eca6117d3565b5b602002602001015160ff16105b15610f0357600083600360048110610ef357610ef26117d3565b5b6020020190151590811515815250505b5b5b5b8080610f1190611d76565b915050610c77565b5081600060048110610f2e57610f2d6117d3565b5b602002015180610f53575081600160048110610f4d57610f4c6117d3565b5b60200201515b80610f73575081600260048110610f6d57610f6c6117d3565b5b60200201515b80610f93575081600360048110610f8d57610f8c6117d3565b5b60200201515b610fa057610f9f612cad565b5b6000600a600486610fb19190611c65565b610fbb9190611dcf565b9050610fc68161110c565b604051602001610fd69190612d64565b604051602081830303815290604052600160008873ffffffffffffffffffffffffffffffffffffffff1673ffffffffffffffffffffffffffffffffffffffff1681526020019081526020016000209080519060200190611037929190611359565b50600160008773ffffffffffffffffffffffffffffffffffffffff1673ffffffffffffffffffffffffffffffffffffffff168152602001908152602001600020805461108290611cee565b80601f01602080910402602001604051908101604052809291908181526020018280546110ae90611cee565b80156110fb5780601f106110d0576101008083540402835291602001916110fb565b820191906000526020600020905b8154815290600101906020018083116110de57829003601f168201915b505050505093505050505b92915050565b6060605a8210611153576040518060400160405280600181526020017f410000000000000000000000000000000000000000000000000000000000000081525090506112ad565b60508210611198576040518060400160405280600181526020017f420000000000000000000000000000000000000000000000000000000000000081525090506112ad565b604682106111dd576040518060400160405280600181526020017f430000000000000000000000000000000000000000000000000000000000000081525090506112ad565b603c8210611222576040518060400160405280600181526020017f440000000000000000000000000000000000000000000000000000000000000081525090506112ad565b60328210611267576040518060400160405280600181526020017f450000000000000000000000000000000000000000000000000000000000000081525090506112ad565b602d82106112ac576040518060400160405280600a81526020017f496e636f6d706c6574650000000000000000000000000000000000000000000081525090506112ad565b5b919050565b82805482825590600052602060002090601f016020900481019282156113485791602002820160005b8382111561131957835183826101000a81548160ff021916908360ff16021790555092602001926001016020816000010492830192600103026112db565b80156113465782816101000a81549060ff0219169055600101602081600001049283019260010302611319565b505b50905061135591906113df565b5090565b82805461136590611cee565b90600052602060002090601f01602090048101928261138757600085556113ce565b82601f106113a057805160ff19168380011785556113ce565b828001600101855582156113ce579182015b828111156113cd5782518255916020019190600101906113b2565b5b5090506113db91906113df565b5090565b5b808211156113f85760008160009055506001016113e0565b5090565b6000604051905090565b600080fd5b600080fd5b600073ffffffffffffffffffffffffffffffffffffffff82169050919050565b600061143b82611410565b9050919050565b61144b81611430565b811461145657600080fd5b50565b60008135905061146881611442565b92915050565b600060ff82169050919050565b6114848161146e565b811461148f57600080fd5b50565b6000813590506114a18161147b565b92915050565b600080604083850312156114be576114bd611406565b5b60006114cc85828601611459565b92505060206114dd85828601611492565b9150509250929050565b6114f08161146e565b82525050565b600060208201905061150b60008301846114e7565b92915050565b60006020828403121561152757611526611406565b5b600061153584828501611459565b91505092915050565b600081519050919050565b600082825260208201905092915050565b60005b8381101561157857808201518184015260208101905061155d565b83811115611587576000848401525b50505050565b6000601f19601f8301169050919050565b60006115a98261153e565b6115b38185611549565b93506115c381856020860161155a565b6115cc8161158d565b840191505092915050565b600060208201905081810360008301526115f1818461159e565b905092915050565b600080fd5b7f4e487b7100000000000000000000000000000000000000000000000000000000600052604160045260246000fd5b6116368261158d565b810181811067ffffffffffffffff82111715611655576116546115fe565b5b80604052505050565b60006116686113fc565b9050611674828261162d565b919050565b600067ffffffffffffffff821115611694576116936115fe565b5b602082029050602081019050919050565b600080fd5b60006116bd6116b884611679565b61165e565b905080838252602082019050602084028301858111156116e0576116df6116a5565b5b835b8181101561170957806116f58882611492565b8452602084019350506020810190506116e2565b5050509392505050565b600082601f830112611728576117276115f9565b5b81356117388482602086016116aa565b91505092915050565b6000806040838503121561175857611757611406565b5b600061176685828601611459565b925050602083013567ffffffffffffffff8111156117875761178661140b565b5b61179385828601611713565b9150509250929050565b60008115159050919050565b6117b28161179d565b82525050565b60006020820190506117cd60008301846117a9565b92915050565b7f4e487b7100000000000000000000000000000000000000000000000000000000600052603260045260246000fd5b600082825260208201905092915050565b600061181e8261153e565b6118288185611802565b935061183881856020860161155a565b6118418161158d565b840191505092915050565b7f412a000000000000000000000000000000000000000000000000000000000000600082015250565b6000611882600283611802565b915061188d8261184c565b602082019050919050565b600060408201905081810360008301526118b28184611813565b905081810360208301526118c581611875565b905092915050565b6118d68161179d565b81146118e157600080fd5b50565b6000815190506118f3816118cd565b92915050565b60006020828403121561190f5761190e611406565b5b600061191d848285016118e4565b91505092915050565b7f4100000000000000000000000000000000000000000000000000000000000000600082015250565b600061195c600183611802565b915061196782611926565b602082019050919050565b6000604082019050818103600083015261198c8184611813565b9050818103602083015261199f8161194f565b905092915050565b7f4200000000000000000000000000000000000000000000000000000000000000600082015250565b60006119dd600183611802565b91506119e8826119a7565b602082019050919050565b60006040820190508181036000830152611a0d8184611813565b90508181036020830152611a20816119d0565b905092915050565b7f4600000000000000000000000000000000000000000000000000000000000000600082015250565b6000611a5e600183611802565b9150611a6982611a28565b602082019050919050565b60006040820190508181036000830152611a8e8184611813565b90508181036020830152611aa181611a51565b905092915050565b7f4300000000000000000000000000000000000000000000000000000000000000600082015250565b6000611adf600183611802565b9150611aea82611aa9565b602082019050919050565b60006040820190508181036000830152611b0f8184611813565b90508181036020830152611b2281611ad2565b905092915050565b7f4400000000000000000000000000000000000000000000000000000000000000600082015250565b6000611b60600183611802565b9150611b6b82611b2a565b602082019050919050565b60006040820190508181036000830152611b908184611813565b90508181036020830152611ba381611b53565b905092915050565b7f4500000000000000000000000000000000000000000000000000000000000000600082015250565b6000611be1600183611802565b9150611bec82611bab565b602082019050919050565b60006040820190508181036000830152611c118184611813565b90508181036020830152611c2481611bd4565b905092915050565b6000819050919050565b7f4e487b7100000000000000000000000000000000000000000000000000000000600052601160045260246000fd5b6000611c7082611c2c565b9150611c7b83611c2c565b9250817fffffffffffffffffffffffffffffffffffffffffffffffffffffffffffffffff0483118215151615611cb457611cb3611c36565b5b828202905092915050565b7f4e487b7100000000000000000000000000000000000000000000000000000000600052602260045260246000fd5b60006002820490506001821680611d0657607f821691505b60208210811415611d1a57611d19611cbf565b5b50919050565b6000611d2b82611c2c565b9150611d3683611c2c565b9250827fffffffffffffffffffffffffffffffffffffffffffffffffffffffffffffffff03821115611d6b57611d6a611c36565b5b828201905092915050565b6000611d818261146e565b915060ff821415611d9557611d94611c36565b5b600182019050919050565b7f4e487b7100000000000000000000000000000000000000000000000000000000600052601260045260246000fd5b6000611dda82611c2c565b9150611de583611c2c565b925082611df557611df4611da0565b5b828204905092915050565b611e0981611430565b82525050565b600081549050919050565b600082825260208201905092915050565b60008190508160005260206000209050919050565b611e498161146e565b82525050565b60008160001c9050919050565b600060ff82169050919050565b6000611e7c611e7783611e4f565b611e5c565b9050919050565b60008160081c9050919050565b6000611ea3611e9e83611e83565b611e5c565b9050919050565b60008160101c9050919050565b6000611eca611ec583611eaa565b611e5c565b9050919050565b60008160181c9050919050565b6000611ef1611eec83611ed1565b611e5c565b9050919050565b60008160201c9050919050565b6000611f18611f1383611ef8565b611e5c565b9050919050565b60008160281c9050919050565b6000611f3f611f3a83611f1f565b611e5c565b9050919050565b60008160301c9050919050565b6000611f66611f6183611f46565b611e5c565b9050919050565b60008160381c9050919050565b6000611f8d611f8883611f6d565b611e5c565b9050919050565b60008160401c9050919050565b6000611fb4611faf83611f94565b611e5c565b9050919050565b60008160481c9050919050565b6000611fdb611fd683611fbb565b611e5c565b9050919050565b60008160501c9050919050565b6000612002611ffd83611fe2565b611e5c565b9050919050565b60008160581c9050919050565b600061202961202483612009565b611e5c565b9050919050565b60008160601c9050919050565b600061205061204b83612030565b611e5c565b9050919050565b60008160681c9050919050565b600061207761207283612057565b611e5c565b9050919050565b60008160701c9050919050565b600061209e6120998361207e565b611e5c565b9050919050565b60008160781c9050919050565b60006120c56120c0836120a5565b611e5c565b9050919050565b60008160801c9050919050565b60006120ec6120e7836120cc565b611e5c565b9050919050565b60008160881c9050919050565b600061211361210e836120f3565b611e5c565b9050919050565b60008160901c9050919050565b600061213a6121358361211a565b611e5c565b9050919050565b60008160981c9050919050565b600061216161215c83612141565b611e5c565b9050919050565b60008160a01c9050919050565b600061218861218383612168565b611e5c565b9050919050565b60008160a81c9050919050565b60006121af6121aa8361218f565b611e5c565b9050919050565b60008160b01c9050919050565b60006121d66121d1836121b6565b611e5c565b9050919050565b60008160b81c9050919050565b60006121fd6121f8836121dd565b611e5c565b9050919050565b60008160c01c9050919050565b600061222461221f83612204565b611e5c565b9050919050565b60008160c81c9050919050565b600061224b6122468361222b565b611e5c565b9050919050565b60008160d01c9050919050565b600061227261226d83612252565b611e5c565b9050919050565b60008160d81c9050919050565b600061229961229483612279565b611e5c565b9050919050565b60008160e01c9050919050565b60006122c06122bb836122a0565b611e5c565b9050919050565b60008160e81c9050919050565b60006122e76122e2836122c7565b611e5c565b9050919050565b60008160f01c9050919050565b600061230e612309836122ee565b611e5c565b9050919050565b60008160f81c9050919050565b600061233561233083612315565b611e5c565b9050919050565b600061234782611e0f565b6123518185611e1a565b93508361235d84611e2b565b600060011561268a575b836001602003820110156126895781546123898861238483611e69565b611e40565b6020880197506123a18861239c83611e90565b611e40565b6020880197506123b9886123b483611eb7565b611e40565b6020880197506123d1886123cc83611ede565b611e40565b6020880197506123e9886123e483611f05565b611e40565b602088019750612401886123fc83611f2c565b611e40565b6020880197506124198861241483611f53565b611e40565b6020880197506124318861242c83611f7a565b611e40565b6020880197506124498861244483611fa1565b611e40565b6020880197506124618861245c83611fc8565b611e40565b6020880197506124798861247483611fef565b611e40565b6020880197506124918861248c83612016565b611e40565b6020880197506124a9886124a48361203d565b611e40565b6020880197506124c1886124bc83612064565b611e40565b6020880197506124d9886124d48361208b565b611e40565b6020880197506124f1886124ec836120b2565b611e40565b60208801975061250988612504836120d9565b611e40565b6020880197506125218861251c83612100565b611e40565b6020880197506125398861253483612127565b611e40565b6020880197506125518861254c8361214e565b611e40565b6020880197506125698861256483612175565b611e40565b6020880197506125818861257c8361219c565b611e40565b60208801975061259988612594836121c3565b611e40565b6020880197506125b1886125ac836121ea565b611e40565b6020880197506125c9886125c483612211565b611e40565b6020880197506125e1886125dc83612238565b611e40565b6020880197506125f9886125f48361225f565b611e40565b6020880197506126118861260c83612286565b611e40565b60208801975061262988612624836122ad565b611e40565b6020880197506126418861263c836122d4565b611e40565b60208801975061265988612654836122fb565b611e40565b6020880197506126718861266c83612322565b611e40565b60208801975060018301925050602081019050612367565b5b600115612b75578154848210156126ba576126ad886126a883611e69565b611e40565b6020880197506001820191505b848210156126e1576126d4886126cf83611e90565b611e40565b6020880197506001820191505b84821015612708576126fb886126f683611eb7565b611e40565b6020880197506001820191505b8482101561272f576127228861271d83611ede565b611e40565b6020880197506001820191505b84821015612756576127498861274483611f05565b611e40565b6020880197506001820191505b8482101561277d576127708861276b83611f2c565b611e40565b6020880197506001820191505b848210156127a4576127978861279283611f53565b611e40565b6020880197506001820191505b848210156127cb576127be886127b983611f7a565b611e40565b6020880197506001820191505b848210156127f2576127e5886127e083611fa1565b611e40565b6020880197506001820191505b848210156128195761280c8861280783611fc8565b611e40565b6020880197506001820191505b84821015612840576128338861282e83611fef565b611e40565b6020880197506001820191505b848210156128675761285a8861285583612016565b611e40565b6020880197506001820191505b8482101561288e576128818861287c8361203d565b611e40565b6020880197506001820191505b848210156128b5576128a8886128a383612064565b611e40565b6020880197506001820191505b848210156128dc576128cf886128ca8361208b565b611e40565b6020880197506001820191505b84821015612903576128f6886128f1836120b2565b611e40565b6020880197506001820191505b8482101561292a5761291d88612918836120d9565b611e40565b6020880197506001820191505b84821015612951576129448861293f83612100565b611e40565b6020880197506001820191505b848210156129785761296b8861296683612127565b611e40565b6020880197506001820191505b8482101561299f576129928861298d8361214e565b611e40565b6020880197506001820191505b848210156129c6576129b9886129b483612175565b611e40565b6020880197506001820191505b848210156129ed576129e0886129db8361219c565b611e40565b6020880197506001820191505b84821015612a1457612a0788612a02836121c3565b611e40565b6020880197506001820191505b84821015612a3b57612a2e88612a29836121ea565b611e40565b6020880197506001820191505b84821015612a6257612a5588612a5083612211565b611e40565b6020880197506001820191505b84821015612a8957612a7c88612a7783612238565b611e40565b6020880197506001820191505b84821015612ab057612aa388612a9e8361225f565b611e40565b6020880197506001820191505b84821015612ad757612aca88612ac583612286565b611e40565b6020880197506001820191505b84821015612afe57612af188612aec836122ad565b611e40565b6020880197506001820191505b84821015612b2557612b1888612b13836122d4565b611e40565b6020880197506001820191505b84821015612b4c57612b3f88612b3a836122fb565b611e40565b6020880197506001820191505b84821015612b7357612b6688612b6183612322565b611e40565b6020880197506001820191505b505b8694505050505092915050565b60008190508160005260206000209050919050565b60008154612ba481611cee565b612bae8186611549565b94506001821660008114612bc95760018114612bdb57612c0e565b60ff1983168652602086019350612c0e565b612be485612b82565b60005b83811015612c0657815481890152600182019150602081019050612be7565b808801955050505b50505092915050565b612c2081611c2c565b82525050565b6000608082019050612c3b6000830187611e00565b8181036020830152612c4d818661233c565b90508181036040830152612c618185612b97565b9050612c706060830184612c17565b95945050505050565b6000612c8482611c2c565b9150612c8f83611c2c565b925082821015612ca257612ca1611c36565b5b828203905092915050565b7f4e487b7100000000000000000000000000000000000000000000000000000000600052600160045260246000fd5b600081905092915050565b6000612cf28261153e565b612cfc8185612cdc565b9350612d0c81856020860161155a565b80840191505092915050565b7f2300000000000000000000000000000000000000000000000000000000000000600082015250565b6000612d4e600183612cdc565b9150612d5982612d18565b600182019050919050565b6000612d708284612ce7565b9150612d7b82612d41565b91508190509291505056fea2646970667358221220cfef5d396f7e345ab8f590fad1b77c17461fc67c491709e576a097b1fb51f3c164736f6c63430008090033",
  "immutableReferences": {},
  "source": "pragma solidity >=0.4.2 <0.9.0;\n\n\nimport \"./stringUtils.sol\";\n\n/* \n\n\nTHIS CONTRACT CONTAINS TWO BUGS, DENIAL OF SERVICE BUG AND ASSERT VIOLATION. ON CERTAIN INPUT PATTERNS THE REQUIRE/ASSERT STATEMENT FAILS, REVERTING THE\nTRANSACTION.\n\n*/\n\ncontract Marks {\n    \n    using StringUtils for string;\n\n    mapping (address => uint8[]) marks;\n    mapping (address => string) grade;\n    mapping (address => uint256) totalmarks;\n\n    event MarksAdd(address addr, uint8[] mark, string g , uint256 avg);\n\n    \n\n    function insert(address addr, uint8[] memory m ) external returns(bool)\n    {\n            marks[addr] = m;\n\n            uint256 tot = 0;\n            uint8 flag = 0;\n            uint256 avg ;\n            for (uint8 i = 0 ;i<5;i++)\n            {\n                    tot+= m[i];\n\n                    if (flag == 0 && m[i]>46){\n\n                        flag = 1;\n                    }\n\n                    if ((flag==0 || flag == 1) && m[i]<20){\n                        flag = 2;\n\n                    }\n            }\n\n            avg = (tot * 4)/10;\n\n            totalmarks[addr] = tot;\n\n            if (flag== 1 && avg>=85){\n                grade[addr] = 'A*';\n            }\n            else if (flag==2 && avg<50)\n            {\n                grade[addr] = 'F';\n            }\n            else\n            {\n                grade[addr] = compgrade(avg);\n            }\n\n\n            emit MarksAdd(addr,marks[addr],grade[addr],avg);\n            return true;\n    }\n\n    function compgrade(uint256 avg) internal returns(string memory)\n    {\n        if (avg>=90) return 'A';\n        if (avg>=80) return 'B';\n        if (avg>=70) return 'C';\n        if (avg>=60) return 'D';\n        if (avg>=50) return 'E';\n        if (avg>=45) return 'Incomplete';\n    }\n\n    function getIndMark(address addr, uint8 idx) public view returns(uint8){\n\n         return marks[addr][idx];\n    }    \n\n    function getGrade(address addr) public view returns(string memory){\n\n         return grade[addr];\n    }\n\n    function graceMarks(address addr) public  returns (string memory message){\n\n        string memory g = getGrade(addr);\n        message = \"\";\n\n        if (StringUtils.equal(g,\"A*\") || StringUtils.equal(g,\"A\") || StringUtils.equal(g,\"B\") || StringUtils.equal(g,\"F\")){\n\n            message = 'Not Eligible for Grace Marks';\n\n\n        }\n\n        else\n        {\n            uint256 req = 0;\n            if(StringUtils.equal(g,\"C\"))\n            {\n                req = 40;\n\n            }\n            else if (StringUtils.equal(g,\"D\"))\n            {\n                req = 35;\n\n            }\n            else if (StringUtils.equal(g,\"E\"))\n            {\n                req = 30;\n\n            }\n            else\n            {\n                req = 25;\n\n            }\n\n            message = checktot(addr,req*5);\n\n        }\n\n\n    }\n\n\n    function checktot(address addr, uint256 req) internal returns(string memory message ){\n        message = '';\n        if (req - totalmarks[addr]>15)\n        {\n            message = 'Not Enough Grace Marks';\n        }\n\n        else\n        {\n            bool[4] memory flags = [true,true,true,true];                             //Flag Array for triggering the bug\n            uint8[] memory m = marks[addr];                                           \n                                                   \n            for (uint8 i = 0 ;i<5;i++) \n            {\n                if (flags[0] &&  10<=m[i] && m[i]<20) flags[0] = false;                 //Condition testing to trigger bug\n                else if (flags[1] &&  20<=m[i] && m[i]<30) flags[1] = false;            //Condition testing to trigger bug\n                else if (flags[2] &&  30<=m[i] && m[i]<40) flags[2] = false;            //Condition testing to trigger bug\n                else if (flags[3] &&  40<=m[i] && m[i]<50) flags[3] = false;            //Condition testing to trigger bug\n             \n                \n            }\n\n            //require(flags[0]||flags[1]||flags[2]||flags[3],'Bug Triggered');           //Condition testing to trigger bug. If all flags are false, then\n             \n            assert(flags[0]||flags[1]||flags[2]||flags[3]);                                                                          // only bug triggered\n            \n           \n\n   \n            uint256 avg = (req * 4)/10;\n            grade[addr] = string(abi.encodePacked(compgrade(avg),'#'));\n            //grade[addr] = compgrade(avg);\n\n\n            message = grade[addr];\n        }\n\n\n    }    \n\n\n   \n    \n\n}",
  "sourcePath": "/home/harsh/Desktop/LMS/contracts/Marks.sol",
  "compiler": {
    "name": "solc",
    "version": "0.8.9+commit.e5eed63a.Emscripten.clang"
  },
  "schemaVersion": "3.4.8",
  "updatedAt": "2022-08-08T08:55:05.219Z",
  "networkType": "ethereum",
  "devdoc": {
    "kind": "dev",
    "methods": {},
    "version": 1
  },
  "userdoc": {
    "kind": "user",
    "methods": {},
    "version": 1
  }
}